:020000040000FA
:100000000C9475080C94591E0C942E1E0C94031E0F
:100010000C94D81D0C94AD1D0C94821D0C94571D8E
:100020000C942C1D0C94A6080C94A6080C94A608FD
:100030000C948E2C0C94A6080C94A6080C94A6087C
:100040000C94A6080C94A6080C94A6080C94A60878
:100050000C94A6080C94A6080C94A6080C94E21C18
:100060000C94A6080C94AE1E0C94841E0C94A60846
:100070000C94A6080C94A6080C94A6080C94A60848
:100080000C94A6080C94A6080C94A6080C94A60838
:100090000C94A6080C94A6080C94A6080C94E41ED4
:1000A0000C94A6080C94A6080C94A6080C94A60818
:1000B0000C94A6080C94A6080C94A6080C94A60808
:1000C0000C94A6080C94A6080C94A6080C94A608F8
:1000D0000C94A6080C94A6080C94A6080C94A608E8
:1000E0000C94A6080C94D9080C94F8080C94BE093A
:1000F0000C9421090C9417090C94A10A0C94F00893
:100100000C9433120C94BF100C941D090C944713DB
:100110000C94D2130C9495190C94FC080C94090CB3
:100120000C94AF130C9455060C949B120C940E0A6D
:100130000C940F090C94540A0C94FF080C94EB09CE
:100140000C941E080C9464170C94C3070C94912C07
:100150000C94520C0C94A8080C9454110C94D913C0
:100160000C94BD170C9452180C94F4080C94BD090F
:100170000C94B0130C9406140C948E0F0C941B1258
:100180000C9413090C94AB070C9437110C94540D78
:100190000C94990C0C940B120C942F090C940509D7
:1001A0000C9480070C941C0A0C94FA090C9409090D
:1001B0000C942B090C94BC180C94362E0C946010E3
:1001C0000C94BF130C94BA170C9427120C94BD070F
:1001D0000C94AE130C94DE080C942509DB40A4A605
:1001E0002EAF2000A1C8D300408DAED580A800005E
:1001F000600000000000000000000000000000E0BF
:100200000000000000000000000000000001E0000D
:1002100000000000000000000000000001F00000ED
:10022000000000000000000000000003F0000000DB
:100230000000000000000000000007F000000000C7
:1002400000000000000000000007F80000000000AF
:1002500000000000000000000FF800000003C000D4
:100260007E000001E0007F0FF800000003C000FEE8
:10027000000001E000FFEFF800000003C000FE00F6
:100280000001E000FFFFF800000003C000F00000E4
:10029000000F007FFE7FC0000003C000F0000000E0
:1002A0000F003FFE7FF83FF1FBCFFCFEF3BC3DEFBC
:1002B000E01FFE7FFF7FFBFFDFFEFEFFBC3DEFE0A8
:1002C0001FC6FFFF7FFBFFDFFEFEFFBC3DEFE00F21
:1002D000E3C7FE787BC3DE1EF0FFBC3DEF0007FFE7
:1002E00087FC787BC3DE1EF0F83C3DEF0001FFFF8A
:1002F000F0007BC3C01EF0F03C3DEF0001F37FE057
:100300003FFBC3CFFEF0F03C3DEF0003E33F807FB7
:10031000FBC3DFFEF0F03C3DEF0007E73C00787BDD
:10032000C3DE1EF0F03C3DEF0007FFBE00787BC34C
:10033000DE1EF0F03C3DEF0007FFFE00787BC3DEE1
:100340001EF0F03C3DEF000FFFFE007FFBFFDFFEE5
:10035000F0F03FFDEFE00FFFFF007FFBFFDFFEF05F
:10036000F03FFDEFE00FF9FF003E79F9CF9EF0F08E
:100370001F3DE7E01FF1FF0000000000000000004B
:100380000000001F80FF007FFFFFFFFFFFFFFFFF58
:10039000FFE01C007F007FFFFFFFFEB46D888D181B
:1003A000E000001F007FFFFFFFFE95AD7DB577E009
:1003B00000000F007FFFFFFFFEA5AD9D8D19E0003F
:1003C0000006007FFFFFFFFEB5ADEDB57EE000004B
:1003D0000000000180000000000000000000038019
:1003E00000000000000000000007C0000000000046
:1003F0000000000007C00000000000000000000F27
:10040000C00000000000000000001FE0000000002D
:1004100000000000001FE0000000000000000000DD
:100420003FE00000000000000000003FF00000007E
:100430000000000000007FF0000000000000001F2E
:10044000F87FF0000000000000003FFE7FF0000099
:1004500000000000003FFF7FF000000000000000EF
:100460001FFFFBE0000000000000000FFFF9FFC0CD
:100470000000000000000FFFF9FFF800000000007E
:100480000007FFF1FFFF00000000000003FC73FF06
:10049000FF80000000000001FE3FFFFF8000000021
:1004A000000000FF1E0FFF000000000000007FFEA4
:1004B0001FFC000000000000003FFFFFF8000000EC
:1004C000000000000FDFFFE0000000000000001F40
:1004D00019FFC0000000000000003F3CFF000000CA
:1004E00000000000007E7CF800000000000000001A
:1004F0007FFE7C0000000000000000FFFFFC000009
:10050000000000000000FFFFFE00000000000000EF
:1005100000FFFFFE0000000000000001FFEFFE00F2
:1005200000000000000001FFCFFE000000000000FE
:100530000003FF07FE0000000000000003FC07FEB0
:100540000000000000000003F003FE0000000000B7
:100550000000018000FE000000000000000000001C
:100560007E000000000000000000003E00000000CF
:100570000000000000000C000000000000078000E8
:10058000FC000003C0000000078001FC000003C065
:10059000000000078001FC000003C000000007808D
:1005A00001E00000001E000000078001E0000000E4
:1005B0001E007FE3F79FF9FDE7787BDFC0FFF7FFC1
:1005C000BFFDFDFF787BDFC0FFF7FFBFFDFDFF78BC
:1005D0007BDFC0F0F787BC3DE1FF787BDE00F0F702
:1005E00087BC3DE1F0787BDE0000F787803DE1E0ED
:1005F000787BDE007FF7879FFDE1E0787BDE00FF00
:10060000F787BFFDE1E0787BDE00F0F787BC3DE1D6
:10061000E0787BDE00F0F787BC3DE1E0787BDE0030
:10062000F0F787BC3DE1E0787BDE00FFF7FFBFFD20
:10063000E1E07FFBDFC0FFF7FFBFFDE1E07FFBDF15
:10064000C07CF3F39F3DE1E03E7BCFC000000000A3
:1006500000000000000000FFFFFFFFFFFFFFFFFFA3
:10066000FFC0FFFFFFFFFD68DB111A31C0FFFFFF76
:10067000FFFD2B5AFB6AEFC0FFFFFFFFFD4B5B3B0B
:100680001A33C0FFFFFFFFFD6B5BDB6AFDC000009C
:100690000000003E5B4F5B3E3E6B4F6B3E1C3E7C62
:1006A0003E1C183C7E3C181C577D571C1C5E7F5E10
:1006B0001C00183C1800FFE7C3E7FF0018241800CF
:1006C000FFE7DBE7FF30483A060E26297929264066
:1006D0007F050507407F05253F5A3CE73C5A7F3E92
:1006E0001C1C08081C1C3E7F14227F22145F5F0024
:1006F0005F5F06097F017F006689956A60606060C0
:100700006094A2FFA29408047E040810207E2010AA
:1007100008082A1C08081C2A08081E101010100CB3
:100720001E0C1E0C30383E3830060E3E0E06000001
:1007300000000000005F00000007000700147F14A5
:100740007F14242A7F2A1223130864623649562014
:10075000500008070300001C2241000041221C0039
:100760002A1C7F1C2A08083E0808008070300008F8
:1007700008080808000060600020100804023E51CC
:1007800049453E00427F400072494949462141495E
:100790004D331814127F1027454545393C4A4949C5
:1007A0003141211109073649494936464949291E2F
:1007B000000014000000403400000008142241141E
:1007C00014141414004122140802015909063E4170
:1007D0005D594E7C1211127C7F494949363E414198
:1007E00041227F4141413E7F494949417F090909F1
:1007F000013E414151737F0808087F00417F41005D
:100800002040413F017F081422417F404040407F0B
:10081000021C027F7F0408107F3E4141413E7F0958
:100820000909063E4151215E7F0919294626494999
:10083000493203017F01033F4040403F1F204020D9
:100840001F3F4038403F63140814630304780403D7
:100850006159494D43007F41414102040810200085
:100860004141417F040201020440404040400003F6
:1008700007080020545478407F28444438384444C2
:100880004428384444287F385454541800087E09BA
:100890000218A4A49C787F0804047800447D4000DA
:1008A0002040403D007F1028440000417F40007CF4
:1008B000047804787C080404783844444438FC18EC
:1008C00024241818242418FC7C08040408485454D0
:1008D000542404043F44243C4040207C1C204020FD
:1008E0001C3C4030403C44281028444C9090907C64
:1008F0004464544C44000836410000007700000076
:100900004136080002010204023C2623263C1EA1B7
:10091000A161123A4040207A385454555921555516
:1009200079412254547842215554784020545579C5
:10093000400C1E5272123955555559395454545958
:1009400039555454580000457C410002457D420011
:1009500001457C407D1211127DF0282528F07C5441
:100960005545002054547C547C0A097F493249493A
:1009700049323A4444443A324A4848303A414121A3
:100980007A3A42402078009DA0A07D3D4242423DFF
:100990003D4040403D3C24FF2424487E4943662B93
:1009A0002FFC2F2BFF0929F620C0887E0903205435
:1009B0005479410000447D413048484A3238404033
:1009C000227A007A0A0A727D0D19317D2629292F93
:1009D00028262929292630484D40203808080808AB
:1009E00008080808382F10C8ACBA2F102834FA00AD
:1009F000007B000008142A142222142A140855002F
:100A0000550055AA55AA55AAFF55FF55FF000000ED
:100A1000FF00101010FF00141414FF001010FF004E
:100A2000FF1010F010F0141414FC001414F700FF61
:100A30000000FF00FF1414F404FC141417101F101E
:100A4000101F101F1414141F00101010F0000000CD
:100A5000001F101010101F10101010F010000000D8
:100A6000FF101010101010101010FF10000000FFE9
:100A7000140000FF00FF00001F10170000FC04F42A
:100A800014141710171414F404F40000FF00F714E2
:100A9000141414141414F700F71414141714101069
:100AA0001F101F141414F4141010F010F000001F85
:100AB000101F0000001F14000000FC140000F010C4
:100AC000F01010FF10FF141414FF141010101F006A
:100AD000000000F010FFFFFFFFFFF0F0F0F0F0FF6C
:100AE000FFFF0000000000FFFF0F0F0F0F0F384443
:100AF000443844FC4A4A4A347E02020606027E0218
:100B00007E0263554941633844443C04407E201EC4
:100B10002006027E020299A5E7A5991C2A492A1CF3
:100B20004C7201724C304A4D4D303048784830BCE0
:100B3000625A463D3E494949007E0101017E2A2A0A
:100B40002A2A2A44445F444440514A444040444A8B
:100B500051400000FF0103E080FF000008086B6BBC
:100B6000083612362436060F090F06000018180042
:100B700000001010003040FF0101001F01011E00A5
:100B8000191D1712003C3C3C3C0000000000000115
:100B900003070F1F3F7F0080C0E0F0F8FCFE00005D
:100BA0002100240027002A002D003000330001011D
:100BB0000000040107010A010000220025002800AE
:100BC0002B002E0031003400020100000501080155
:100BD0000B010505050507050808080802020202C1
:100BE0000A0A0808040404040101010101010101C9
:100BF0000303030303030303040707070C0C0C0C94
:100C00000C0C0C0C0202020206060606060606067C
:100C10000B0B0B0B0B0B0B0B010210202008081009
:100C2000204010204080020102010804020101025C
:100C30000408102040808040201008040201800435
:100C40000201804020100804020108040201010290
:100C50000408102040800102040810204080000099
:100C60000A0B02090C0D0E08070304010000000026
:100C70000000000000000000000000000000000074
:100C80000000000000000000000012111000000031
:100C90000000000000000000000000000000000054
:100CA000000000002200FF210000CF93DF9300D05E
:100CB00000D000D01F92CDB7DEB7E091C703F0910E
:100CC000C8031081D12CC12C112329F00580F68195
:100CD000E02DC080D1800E9402210E94F8207C017A
:100CE0008091C1039091C203E816F90608F08EC006
:100CF0000E942722F092C203E092C1030E94DA23ED
:100D00000091C3031091C4031A86198680E068011C
:100D1000F1E1CF0ED11C0FB6F8940F92D8015A967C
:100D2000FC905A97FF2009F432C15C964C915C9775
:100D3000442301F150E016968D919C911797840FF2
:100D4000951F17969C938E93169714962D913C9110
:100D500015978217930738F08D919C9111971796EC
:100D60009C938E931697F80166817781CE01019648
:100D70000E94AD2FFA94D8015A96FC925A97189671
:100D80008C91882339F0C80108960E945320811164
:100D90000E9416230F900FBEF980F7FCB1CF0C8193
:100DA0001D81D8011A968D919C91892B21F0C80143
:100DB00002960E9455210E94F8206C018091C10387
:100DC0009091C203C816D90610F40E942722D0922F
:100DD000C203C092C103EFEFEF0DE93008F090CFEE
:100DE0000E2E000CFF0BD80152969C91529788272B
:100DF000E350F94F8F4F0C94A02F80078007C30753
:100E0000AB07BD0780078007C307AB07F092C2039B
:100E1000E092C103112351F0EC14FD0470F00E9424
:100E2000DA23B701C6010E94FD216ACFE091C50314
:100E3000F091C603808161E0811160E00091C303FD
:100E40001091C4030FB6F8940F92D8015D968C915F
:100E50005D978F3F11F45D961C92F801868D8F3F50
:100E600009F4168E0F900FBED8015A968C915A979E
:100E700081113CC05296ED91FC91A091D002B091AD
:100E8000D1021F96FC93EE931E97A091D002B091D1
:100E9000D1028481958151969C938E935097809135
:100EA000D0029091D102A481B5810C9613969C93A7
:100EB0008E9312978091D0029091D1020C969583D7
:100EC0008483E091D002F091D102C8014196958BC4
:100ED000848BF80181898F5F818BC6018E199F09F0
:100EE000662311F08FEF9FEF0E944522C8010E94F8
:100EF00013210E94DA23811103CF0E94162300CF11
:100F00009160F801928BEA80FB80648575856E0D97
:100F10007F1D9701A601C8010E94AF21882309F413
:100F2000EFCED80152968C91529782FF10C01C963A
:100F30006D917C916E0D7F1DA601C8010E94D92183
:100F4000D8015096ED91FC91C8011995D9CE8E7FAC
:100F5000F801828BF5CF916052969C9352976A81EB
:100F60007B811D967C936E931C976C0D7D1D960165
:100F7000A601C8010E94AF21C3CE91FD04C0C801E3
:100F80000E94A62ABDCE9E7FF801928BB9CE2985FC
:100F90003A85232B19F40F900FBE8FCE811109C013
:100FA00080910C048E8380910A0490910B049887A1
:100FB0008F830F900FBE0E9402210FB6F8940F92FC
:100FC000F801858D8F3F09F4158ED8015E968C91BE
:100FD0005E978F3F11F45E961C920F900FBEBE017C
:100FE000675F7F4FCE0106960E94202081111BC0B3
:100FF000C8010E940821882381F069857A85C6018D
:101000000E94C722C8010E9413210E94DA23811185
:1010100002C00E94162381E07ECEC8010E941321E7
:101020000E94DA23F8CFC8010E9413210E94DA231C
:10103000C8010E940821882371F33FCE8091A0034C
:10104000811130C080910D04823010F00E9416236F
:101050008091A3039091A4030E94DB26813071F755
:1010600081EC92E00E943F18E091D104F091D2040B
:10107000468157815093A2034093A10370E060E042
:101080002AE082E394E00E94F31767E672E082E3CD
:1010900094E00E94E4178091A3039091A4030E941E
:1010A000B025CCCF0FB6F8940F92E091E403F09105
:1010B000E503C681D781CE0102960E945521809119
:1010C00005048150809305048091A0038150809392
:1010D000A0030F900FBE8F89988D0E94A62ACE0183
:1010E0000E94A62AABCF912C362E11241FBECFEF23
:1010F000D1E2DEBFCDBF00E00CBF12E0A0E0B2E065
:10110000EEE9FFE500E00BBF02C007900D92A03DA5
:10111000B107D9F725E0A0EDB2E001C01D92AC32D5
:10112000B207E1F718E0C4E7D8E000E006C0219775
:101130000109802FFE010E94A02FC337D10780E054
:101140000807A9F70E94B12D0C94BD2F0C94000044
:101150000895282F30E0F901E25AF34F9491F901F4
:10116000E85EF34F44912E52344FF901249122232B
:1011700009F435C0992311F191509231F8F4E92F17
:10118000F0E08827E953F74F8F4F0C94A02FF80811
:10119000FC08D908F008F408DE08FF080509090969
:1011A0000F09130917091D092109DE0825092B0953
:1011B0002F09809180008F7780938000E22FF0E0EC
:1011C000EE0FFF1FE854F44FA591B4918FB7F89438
:1011D000EC91611148C040954E234C938FBF089508
:1011E000809180008F7DE8CF80918000877FE4CF61
:1011F00084B58F7784BDE2CF84B58F7DFBCF80919E
:10120000B0008F778093B000D9CF8091B0008F7DF0
:10121000F9CF809190008F7780939000CFCF80910D
:1012200090008F7DF9CF80919000877FF5CF8091DE
:10123000A0008F778093A000C1CF8091A0008F7D08
:10124000F9CF8091A000877FF5CF809120018F7723
:1012500080932001B3CF809120018F7DF9CF8091C1
:101260002001877FF5CF4E2BB8CFCF93DF9390E04F
:10127000FC01E85EF34F24918E52944FFC0184915F
:101280008823D1F090E0880F991FFC01E256F44FBB
:10129000A591B491FC01E854F44FC591D49162300A
:1012A00071F49FB7F8943C91822F809583238C939F
:1012B000E8812E2B28839FBFDF91CF9108958FB7B0
:1012C000F894EC912E2B2C938FBFF6CF3FB7F89468
:1012D0008091CE039091CF03A091D003B091D10320
:1012E00026B5A89B05C02F3F19F00196A11DB11D81
:1012F0003FBFBA2FA92F982F8827BC01CD01620FBD
:10130000711D811D911D42E0660F771F881F991F77
:101310004A95D1F708958F929F92AF92BF92CF9244
:10132000DF92EF92FF924B015C010E9466096B0114
:101330007C010E9466096C197D098E099F09683E2F
:10134000734081059105A8F321E0821A9108A10854
:10135000B10888EEC80E83E0D81EE11CF11C811490
:101360009104A104B10429F7FF90EF90DF90CF9092
:10137000BF90AF909F908F9008950895AF92BF92C5
:10138000CF92DF92EF92FF920F931F93CF93DF9351
:101390006C017B018B01040F151FEB015E01AE1880
:1013A000BF08C017D10759F06991D601ED91FC91A2
:1013B0000190F081E02DC6011995892B79F7C501BF
:1013C000DF91CF911F910F91FF90EF90DF90CF9021
:1013D000BF90AF900895FC01538D448D252F30E0D0
:1013E000842F90E0821B930B541710F0CF96089532
:1013F00001970895FC01918D828D981761F0A28D5F
:10140000AE0FBF2FB11D5D968C91928D9F5F9F7324
:10141000928F90E008958FEF9FEF0895FC01918DDA
:10142000828D981731F0828DE80FF11D858D90E047
:1014300008958FEF9FEF0895FC01918D228D892FE4
:1014400090E0805C9F4F821B91098F7399270895CC
:1014500082E394E00E941C0A21E0892B09F420E039
:10146000822F0895FC01A48DA80FB92FB11DA35A96
:10147000BF4F2C91848D90E001968F739927848FB4
:10148000A689B7892C93A089B1898C9183708064D7
:101490008C93938D848D981306C00288F389E02D78
:1014A00080818F7D80830895EF92FF920F931F9329
:1014B000CF93DF93EC0181E0888F9B8D8C8D981307
:1014C0001AC0E889F989808185FF15C09FB7F89413
:1014D000EE89FF896083E889F9898081837080645F
:1014E00080839FBF81E090E0DF91CF911F910F91AA
:1014F000FF90EF900895F62E0B8D10E00F5F1F4FB9
:101500000F731127E02E8C8D8E110CC00FB607FCC7
:10151000FACFE889F989808185FFF5CFCE010E9455
:10152000320AF1CFEB8DEC0FFD2FF11DE35AFF4F87
:10153000F0829FB7F8940B8FEA89FB8980818062E3
:10154000CFCFCF93DF93EC01888D8823B9F0AA89A0
:10155000BB89E889F9898C9185FD03C0808186FD6E
:101560000DC00FB607FCF7CF8C9185FFF2CF8081BD
:1015700085FFEDCFCE010E94320AE9CFDF91CF91F6
:10158000089580E090E0892B29F00E94280A8111BB
:101590000E94000080E090E0892B49F080E090E01C
:1015A000892B29F00E94000081110E94000080E038
:1015B00090E0892B49F080E090E0892B29F00E948F
:1015C000000081110E94000080E090E0892B49F02A
:1015D00080E090E0892B29F00E94000081110C949A
:1015E00000000895EF92FF920F931F93CF93DF9324
:1015F000EC01EC80FD806E157F050CF070C057FF8C
:1016000004C0240F351F50E040E08E819F81FA0115
:10161000E20FF31F8E179F071CF49C01241B350B50
:10162000121613060CF05BC0922F842F86958695B8
:1016300086958E9DD0018F9DB00D11246A0F7B1F62
:10164000AF8DB8A1A60FB71F477049F188E0841B82
:10165000482F682F70E0FB01EA56F44FE4912817F9
:1016600008F063C0621B71092FEF30E002C03595AE
:1016700027956A95E2F7E2230130110539F0B0F1C0
:101680000230110561F58C91E82702C08C91E82B9E
:10169000EC93941720F12C813D81A20FB31FE92F09
:1016A000E41BE83078F00230110521F58E2F9C9173
:1016B00090959C932C813D81A20FB31F8850883058
:1016C000B0F7E770EE2359F0F0E0E257F44FE49101
:1016D00001301105F9F010F10230110519F1DF9117
:1016E000CF911F910F91FF90EF900895E0958C910D
:1016F000E823CECF81E00115110509F480E0819542
:101700009E2F8C932C813D81A20FB31F985098304F
:10171000C0F7D7CF8C91E82BEC93E1CFE0958C917B
:10172000E823FACF8C91E827F7CF0130110509F4AF
:10173000ADCFE0F20230110509F4A5CFAE0DBF1D0B
:10174000AECF0F931F93CF93DF9377FF04C0260F85
:10175000371F70E060E0DC011496CD91DC91FB0155
:10176000E20FF31FCE17DF071CF49E01261B370B79
:10177000121613064CF5FA0157FD3796A3E0F595BE
:10178000E795AA95E1F7EC9FD001ED9FB00DFC9F86
:10179000B00D11246A0F7B1FDC015F96ED91FC9167
:1017A000E60FF71F4770552781E090E001C0880FD2
:1017B0004A95EAF7482F0130110559F0A8F02E0F8D
:1017C0003F1F02301105E1F0DF91CF911F910F9182
:1017D00008952E0F3F1FE217F307B1F38191DF0148
:1017E0001197842B8C93F7CF80952E0F3F1FE21714
:1017F000F30751F39191DF01119798239C93F7CF51
:10180000E217F30709F38191DF01119784278C9385
:10181000F7CF0F931F93FA01DC0156964C91569720
:101820004230E9F04330A1F1413061F514964D9119
:101830005C91DA01AE1BBF0BFD01E21BF30B77FDE0
:101840000BC0DC0116964D915C916417750724F46A
:10185000AB01BF010E94A10B1F910F910895149637
:101860004D915C91DA01A61BB70BBD016150710966
:10187000DC0116964D915C91DA01AE1BBF0BFD01A8
:10188000E21BF30B77FDE8CFAF010E94F20AE4CF31
:1018900016964D915C91DA01A61BB70BBD01615004
:1018A0007109CDCF0F931F93FA01DC0156964C912D
:1018B00056974230A9F0433091F1413019F5149612
:1018C0004D915C91DA01AE1BBF0BFD013197F7FD25
:1018D00004C0AB01BF010E94F20A1F910F9108954D
:1018E00014964D915C91DA01A61BB70BBD01DC018A
:1018F00016964D915C91DA01AE1BBF0BFD0131973D
:10190000621B730BF7FDE9CFDC0116964D915C91DC
:10191000E417F50714F7AF010E94A10BDECF16966E
:101920004D915C91DA01A61BB70BBD01621B730BD5
:10193000CECFFC0177FD64C080859185681779075B
:101940000CF05EC057FD5CC082859385481759072F
:101950000CF056C086898230B1F0833029F1813095
:1019600041F484819581841B950BAB01BC016150CE
:1019700071092130310509F108F443C022303105E5
:1019800009F463C0089584819581DC01A61BB70B1F
:10199000BD016150710986819781DC01A41BB50BE3
:1019A000AD0141505109E5CF86819781861B970B88
:1019B000BA01AC0141505109DCCFCA0157FD07966D
:1019C000A3E095958795AA95E1F7A481B5818A9FB3
:1019D00090018B9F300D9A9F300D1124620F731F61
:1019E000078CF0A1E02DE60FF71F4770552721E087
:1019F00030E001C0220F4A95EAF78081822B808374
:101A00000895CA0157FD079633E0959587953A9555
:101A1000E1F7A481B5818A9F90018B9F300D9A9F39
:101A2000300D1124620F731F078CF0A1E02DE60F1B
:101A3000F71F4770552781E090E001C0880F4A9555
:101A4000EAF7809590818923DACFCA0157FD07967E
:101A500023E0959587952A95E1F7A481B5818A9F22
:101A600090018B9F300D9A9F300D1124620F731FD0
:101A7000078CF0A1E02DE60FF71F4770552721E0F6
:101A800030E001C0220F4A95EAF780818227B7CF64
:101A900008958EBD00000DB407FEFDCF8EB50895EC
:101AA0008CBD9DBD08950895FC016370668B848193
:101AB000958126813781613039F0633029F0918733
:101AC000808733872287089531872087938782878D
:101AD00008952F923F924F925F926F927F928F92D2
:101AE0009F92AF92BF92CF92DF92EF92FF920F93AD
:101AF0001F93CF93DF93CDB7DEB76A970FB6F894F5
:101B0000DEBF0FBECDBF9A8F898F7A8369834A016A
:101B1000D22E18870F833701BC2CDC0159962D91EA
:101B20003C915A972115310509F015C118968D91F0
:101B30009C911997681779070CF0D7C11A968D9167
:101B40009C91481759070CF0D0C14C2C512CB6E091
:101B5000CB9E600D711D11247C876B8716161706AE
:101B60000CF0C3C1EA2DF0E0FA87E98793E0EE0FAD
:101B7000FF1F9A95E1F7F88BEF87CF01840F951F30
:101B8000181619060CF0B1C1A98DBA8D58968C9112
:101B9000811104C0BFEABD1508F4D394A98DBA8D94
:101BA000ED91FC9111970284F385E02DCD011995FB
:101BB000B5E0DB9EC0011124E981FA81FC83EB834F
:101BC000312C212C9C012257394F388F2F8B4A2DD5
:101BD00050E05E8B4D8BEF89F88DE20DF31D449143
:101BE0009E828D82D12CC12C69817A81620D731DF8
:101BF0007A8B698B842F90E09C8B8B8BE98DFA8D8F
:101C0000A081B18140FF82C0F1E0BF126FC0AF126E
:101C10006DC01C96ED91FC912F813885A4014C0D6F
:101C20005D1D69897A89898D9A8D1995EB89FC8961
:101C3000F595E7954E2F5FEFC51AD50A6D817E8128
:101C40008D899E89680F791F7E836D8398E0C91600
:101C5000D10481F6AFEF2A1A3A0AEB81FC81E40D38
:101C6000F51DFC83EB83F5E02F16310409F0B3CFAB
:101C70002F81388526153705B9F0A98DBA8DED91DC
:101C8000FC91B1E0BB1257C0AB1255C069817A819B
:101C90006B5F7F4F0088F189E02D830128E030E001
:101CA000A401898D9A8D1995A98DBA8DED91FC911C
:101CB00011970688F789E02DCD016A960FB6F89442
:101CC000DEBF0FBECDBFDF91CF911F910F91FF906F
:101CD000EF90DF90CF90BF90AF909F908F907F90CC
:101CE0006F905F904F903F902F9019941E96ED91BA
:101CF000FC91EF80F88409851A8592014D815E81FF
:101D00006B817C81898D9A8D199590CF2F81388533
:101D10002615370509F48ACF31E0B31207C0A312A4
:101D200005C01C96ED91FC91930178CF1E96ED9124
:101D3000FC917301E0CF6B857C856419750906847D
:101D4000F785E02D73010F8518899201A401898D13
:101D50009A8D1995A9CFF9013496949132974591AE
:101D60005491D91AB7E0DB9E400D511D1124F901A1
:101D7000259134913C8B2B8BFA0125903490FA01FC
:101D80003296749031963491398B329664903196B4
:101D9000449041E04C1518F04A1508F07FC0662DBC
:101DA000062C000C770B7C836B83842D042C000C99
:101DB000990B9E838D83A98DBA8DED91FC9111971E
:101DC0000284F385E02DCD011995512CD12CC12C25
:101DD000EA2DF0E0FA87E9872B2D30E03C872B874E
:101DE000A401440D511D47FC5A95588F4F8B6981B2
:101DF0007A81660D711D67FC7A957E876D8779897A
:101E0000C71608F051CF2C2D30E04D815E81420F76
:101E1000531FA985BA854A9FC0014B9F900D5A9FB9
:101E2000900D1124FC01E80DF91DF88BEF87852D2D
:101E3000612C4F89588D420F531F5E8B4D8B671459
:101E400008F050C044244394480E877041F4C10107
:101E50000196EB89FC89E20DF31DD4901C01D7FE9D
:101E600019C0A98DBA8DED91FC91662D70E0B1E09D
:101E7000BB1219C0AB1217C02D853E85620F731FB0
:101E80000484F585E02D2F8138854D895E89898D03
:101E90009A8D1995DD0C6394842DD1CF1E821D82FD
:101EA0001C821B8288CF4B815C81640F751FAB85C0
:101EB000BC856A9FC0016B9F900D7A9F900D112485
:101EC00069817A81680F791F0684F785E02DEF809C
:101ED000F88409851A859D014F855889898D9A8DC9
:101EE0001995D8CF570CC3948ACF6A960FB6F89439
:101EF000DEBF0FBECDBFDF91CF911F910F91FF903D
:101F0000EF90DF90CF90BF90AF909F908F907F9099
:101F10006F905F904F903F902F9008958F929F9277
:101F2000AF92CF92EF92FF920F931F93CF93DF93D5
:101F3000EC01262F898D9A8D009709F051C06A30E7
:101F4000D1F41D861C868D8948E0849F9001112460
:101F50008E859F85820F931F9F878E8781E090E0FB
:101F6000DF91CF911F910F91FF90EF90CF90AF90A5
:101F70009F908F9008956D3089F3CC88AD888F89BC
:101F80008823C1F08C859D8536E0C39E800D911D10
:101F90001124488559854817590764F44E855F8593
:101FA0001D861C8638E0A39EC0011124840F951F56
:101FB0009F878E87EA88FB88088919894E855F8507
:101FC0006C857D85CE010E94690D2C898C859D854F
:101FD00046E0249F800D911D11249D878C87BECFE4
:101FE0006A3069F41D861C86FC013896E4912D89BF
:101FF0008E859F85E29F800D911D1124ADCF6D30A0
:1020000009F4ACCFFC0134963491631708F4A6CFE1
:102010003296E491E61708F4A1CFFC013296859040
:102020009490462F431B342F47E0349F800C911C23
:102030001124F401329634913196E4913323A9F1BD
:10204000EE2399F1CC88F4013596E491AD884F895F
:10205000442301F10E2E000CFF0BE30FF11DCE9E69
:10206000A001CF9E500D11246C857D85460F571F12
:1020700068857985641775076CF44E855F851D86C4
:102080001C86FC013896E491AE9E400D511D112432
:102090005F874E87EA88FB88088919894E855F85A6
:1020A0006C857D85CE010E94690DF4013496E49122
:1020B0002C898C859D85E29F800D911D11248DCFEB
:1020C0006F927F928F929F92AF92BF92CF92DF9248
:1020D000EF92FF920F931F93CF93DF93EC016B016D
:1020E0005A0139014801E881F9810284F385E02D24
:1020F0001995E881F9810288F389E02D8701930120
:10210000A501B601CE011995A501480D591D4150F3
:102110005109E881F9810288F389E02D9301B60124
:10212000CE011995E881F9810088F189E02D9401AB
:10213000A501B601CE011995C60CD71CB601615098
:102140007109E881F9810088F189E02D9401A501E8
:10215000CE011995E881F9810688F789E02DCE0135
:10216000DF91CF911F910F91FF90EF90DF90CF9073
:10217000BF90AF909F908F907F906F9019946F92C7
:102180007F928F929F92AF92BF92CF92DF92EF9207
:10219000FF920F931F93CF93DF935C01EB016A01D2
:1021A000490138018701DC01ED91FC916217730749
:1021B00019F5641675062CF0962D872D3A01C92E57
:1021C000D82E9601261937092F5F3F4F048CF58DC5
:1021D000E02DA301BE01C5011995DF91CF911F919B
:1021E0000F91FF90EF90DF90CF90BF90AF909F90B6
:1021F0008F907F906F9008954615570591F426179C
:10220000370724F0892D4B01C22FD82F9E012819A2
:1022100039092F5F3F4F068CF78DE02DA601B401E1
:10222000DACF0284F385E02D1995D501ED91FC916B
:102230000488F589E02D83019401A601BE01C50142
:102240001995D501ED91FC910688F789E02DC5011E
:10225000DF91CF911F910F91FF90EF90DF90CF9082
:10226000BF90AF909F908F907F906F901994EF9256
:10227000FF920F931F93DC011A960D911C911B97EF
:1022800018962D913C911997ED91FC9100A0F1A128
:10229000E02D7B0150E040E070E060E019951F9177
:1022A0000F91FF90EF9008954F925F926F927F92FF
:1022B0008F929F92AF92BF92CF92DF92EF92FF9256
:1022C0000F931F93CF93DF936C012B015A013901B8
:1022D0004801DC01ED91FC910284F385E02D199514
:1022E000E201640C751CD601ED91FC91C615D70571
:1022F0005CF40088F189E02D87019401A501BE01FD
:10230000C60119952196EFCF0688F789E02DC60101
:10231000DF91CF911F910F91FF90EF90DF90CF90C1
:10232000BF90AF909F908F907F906F905F904F90F5
:1023300019948F929F92AF92BF92CF92DF92EF92B9
:10234000FF920F931F93CF93DF93EC015B014A0140
:102350006901E881F9810284F385E02D19959501E1
:102360002C0D3D1D21503109E881F9810488F58942
:10237000E02D78018401A401B501CE011995E88111
:10238000F9810688F789E02DCE01DF91CF911F9169
:102390000F91FF90EF90DF90CF90BF90AF909F9004
:1023A0008F9019948F929F92AF92BF92CF92DF92AB
:1023B000EF92FF920F931F93CF93DF93EC015B019A
:1023C0004A0169017801E881F9810284F385E02DF1
:1023D0001995C80CD91C860101501109E881F981B1
:1023E0000488F589E02D9501A401B501CE01199568
:1023F000E881F9810688F789E02DCE01DF91CF9140
:102400001F910F91FF90EF90DF90CF90BF90AF9012
:102410009F908F901994EF92FF920F931F93DC017E
:10242000ED91FC9100A0F1A1E02D19951F910F9164
:10243000FF90EF9008950F931F93DC01ED91FC91B5
:10244000068CF78DE02D19951F910F9108950F932C
:102450001F93DC01ED91FC91048CF58DE02D199515
:102460001F910F910895DC01ED91FC910084F1859D
:10247000E02D19943F924F925F926F927F928F92CC
:102480009F92AF92BF92CF92DF92EF92FF920F9303
:102490001F93CF93DF935C017B014A0169013901EE
:1024A00087E0680E711C93E0759467949A95E1F744
:1024B0002B01400E511E10E000E0312CD0E0C0E0B6
:1024C000CE0187709927330C892B59F4FE0183E0E4
:1024D000F595E7958A95E1F7E00FF11FE80DF91DF5
:1024E000349037FE0AC021E030E0A701B5016C0F3F
:1024F0007D1F88EE94E00E9433122196CC16DD06F3
:10250000F9F68FEFE81AF80A060D171DE414F50422
:10251000A9F6DF91CF911F910F91FF90EF90DF907F
:10252000CF90BF90AF909F908F907F906F905F9073
:102530004F903F9008952F923F924F925F926F92EB
:102540007F928F929F92AF92BF92CF92DF92EF9243
:10255000FF920F931F93CF93DF9300D000D0CDB79E
:10256000DEB73C016A013E832D83FC82EB82580179
:10257000A41AB50AB7FE03C0B194A194B1088D8026
:102580009E80861A970A97FE03C0919481949108C1
:102590008A149B045CF0902F812F0D811E819D83F6
:1025A0008E839C2D8D2D6B01692F782F0C151D05A9
:1025B0005CF09D818E817E836D83692F782F902FB3
:1025C000812F8601C92ED82E1601201A310A2B011F
:1025D0002D813E81421A530A57FE03C05194419403
:1025E0005108710137FE03C03FEFE31AF30AF59477
:1025F000E7948D819E81861797075CF5A1E0B0E096
:10260000BA83A983C016D1064CF1D301ED91FC9198
:102610000484F585E02D2B813C81A8016D817E81AC
:102620008A149B041CF04D815E81B801C301199589
:10263000E418F508F7FE0AC02D813E8189819A8150
:10264000280F391F3E832D83E20CF31C0F5F1F4FB1
:10265000D9CF2FEF3FEF3A832983D4CF26960FB6F9
:10266000F894DEBF0FBECDBFDF91CF911F910F91C8
:10267000FF90EF90DF90CF90BF90AF909F908F90A2
:102680007F906F905F904F903F902F9008950895A6
:1026900020915403260F3327331F21323105ECF4E8
:1026A00020917A03FC0190E080E0243069F082E020
:1026B0000895A09154032191AC014E5C5C4FA40F8E
:1026C000B52FB11D2C930196861798F38091540372
:1026D000680F6093540380E0089581E0089510929C
:1026E0007A0381E080937C0310927B0361E084E1B4
:1026F0000E94A90861E085E10E94A908E9EBF0E0E9
:1027000080818E7F808380818D7F808388E4809329
:10271000B80085E48093BC000895CF93DF9391E0E7
:10272000909331038823B9F0C091B800D091BA00DA
:102730008091BC008A7B8093BC0060E084E10E94B1
:10274000A90860E085E10E94A9080E946F13D09358
:10275000BA00C093B800DF91CF910895089508950D
:10276000E0912B0380912A03E81730F4F0E0E65F54
:10277000FC4F808190E008958FEF9FEF0895909136
:102780002B0380912A032FEF3FEF981748F4E92F8E
:10279000F0E0E65FFC4F208130E09F5F90932B03D9
:1027A000C901089580912A0390912B03891B990BED
:1027B0000895CF92DF92EF92FF920F931F93CF93E2
:1027C000DF937C01CB018A0120910904222389F047
:1027D000EB016B01C40ED51ECC15DD0569F06991C6
:1027E000D701ED91FC910190F081E02DC701199581
:1027F000F3CF642F0E944813C801DF91CF911F913E
:102800000F91FF90EF90DF90CF900895CF93DF93DB
:102810001F92CDB7DEB76983209109042223F9F016
:1028200020910604203258F021E030E0FC0133838F
:10283000228390E080E00F90DF91CF910895809106
:102840000704E82FF0E0E651FD4F998190838F5FF8
:10285000809307048093060481E090E0ECCF61E070
:10286000CE0101960E944813F7CFCF92DF92EF92EC
:10287000FF920F931F93CF93DF93D091060481E0D3
:10288000D13208F09CC0C09108040E9466096B0117
:102890007C0180917A0381116CC082E080937A037D
:1028A00081E080937C038FEF8093790310929E03E5
:1028B000D0939D03AAEEB2E0EDE7F3E080E0D813F9
:1028C0008DC010929F0380919F03CC0FC82BC093A3
:1028D0009F0380917B03813009F084C010927B03B9
:1028E0000E9466096B017C0180919F038093BB006D
:1028F00080912D0390912E03A0912F03B09130036E
:10290000892B8A2B8B2BA1F00E94660900912D0345
:1029100010912E0320912F03309130036C197D0903
:102920008E099F09061717072807390708F442C0C0
:102930008091BC0083FDD8CF85EC8093BC000E94C1
:1029400066096B017C0180917A03823009F44CC0E6
:10295000809179038F3F09F469C0809179038032B7
:1029600009F466C080917903803309F463C084E080
:1029700026C080912D0390912E03A0912F03B0913A
:102980003003892B8A2B8B2B09F483CF0E94660995
:1029900000912D0310912E0320912F0330913003CD
:1029A0006C197D098E099F09061717072807390733
:1029B00008F06FCF80912C030E948D1385E0109258
:1029C00007041092060410920904DF91CF911F9121
:1029D0000F91FF90EF90DF90CF9008959D9191938C
:1029E0008F5F6DCF85EEA9CF80912D0390912E033F
:1029F000A0912F03B0913003892B8A2B8B2B09F4E4
:102A0000A2CF0E94660900912D0310912E03209100
:102A10002F03309130036C197D098E099F09061729
:102A200017072807390708F08ECFC4CF80E0C7CF3B
:102A300082E0C5CF83E0C3CFEF92FF920F931F9345
:102A4000CF93DF937C01C62F8091050590910605F9
:102A5000009709F459C02091090531E03093090429
:102A6000209308041092070410920604DC01ED91F3
:102A7000FC910190F081E02D60E019958701EE2432
:102A8000E394F12CD1E0C1508091050590910605A9
:102A9000CF3F91F1B0E2EB16F104D8F00E9435146B
:102AA000809105059091060520910905D0930904B0
:102AB000209308041092070410920604DC01ED91A3
:102AC000FC910190F081E02D60E01995EE24E394F3
:102AD000F12C8091050590910605F8016491DC01C7
:102AE000ED91FC910190F081E02D1995BFEFEB1A6B
:102AF000FB0A0F5F1F4FC7CFDF91CF911F910F913F
:102B0000FF90EF900C943514E0911505F0911605A7
:102B1000908180911B058095892380838701C15016
:102B200008F438C0F8018491209103053091040520
:102B3000232B29F00E94490D0F5F1F4FF0CF28E093
:102B400030E040E8E0911105F091120590911905EF
:102B5000582F5423D9F05081952B9083E091130581
:102B6000F0911405908150911A05952B9083E09176
:102B70001305F0911405508190911A0590959523B5
:102B80009083469521503109E9F6D6CF5081909532
:102B90009523E3CFDF91CF911F910F91FF90EF909D
:102BA00008951F93CF93DF93EC018D8D9E8D009739
:102BB00021F1162F29A131E0309309042093080454
:102BC0001092070410920604DC01ED91FC91019033
:102BD000F081E02D60E019958D8D9E8DDC01ED91E9
:102BE000FC910190F081E02D612F19958D8D9E8DC6
:102BF000DF91CF911F910C943514ADA5BEA59C918A
:102C00008BA9809589238C938B8D9C8D892B31F09A
:102C1000862FDF91CF911F910C94490D28E030E071
:102C200080E8A9A5BAA599A9462F4823C1F04C91DF
:102C3000942B9C93ABA5BCA59C914AA9942B9C93E7
:102C4000ABA5BCA54C919AA9909594239C9386958D
:102C50002150310931F7DF91CF911F9108954C91A7
:102C600090959423E6CFDF92EF92FF920F931F93FC
:102C7000CF93DF938091050590910605892B09F488
:102C800098C020911D0530911E0540911F0550915F
:102C9000200560E074E284EF90E00E946A2F2051EA
:102CA0003109410951095695479537952795209344
:102CB000B80065E084EA9CE00E941C156091EC0479
:102CC000615088EE94E00E94D1152091EE0430917D
:102CD000EF04C901079697FD079633E09595879510
:102CE0003A95E1F72091EC043091ED04829F800148
:102CF000839F100D929F100D1124C0910705D09154
:102D0000080580910505909106050C0F1D1F009781
:102D100009F48FC02091090531E030930904209314
:102D200008041092070410920604DC01ED91FC9156
:102D30000190F081E02D60E41995EE24E394F12CEC
:102D4000DD24D39480910505909106050C171D078D
:102D500009F446C0B0E2EB16F104D8F00E94351435
:102D6000809105059091060520910905D0920904EE
:102D7000209308041092070410920604DC01ED91E0
:102D8000FC910190F081E02D60E41995EE24E3942C
:102D9000F12C80910505909106056991DC01ED917A
:102DA000FC910190F081E02D1995BFEFEB1AFB0A21
:102DB000C9CF8091030590910405892B31F0809152
:102DC0002605909127050E94500DE0911705F0917E
:102DD0001805908180911C0580958923808369CF97
:102DE0000E9435148091050590910605892B09F400
:102DF00061C0209121053091220540912305509119
:102E0000240560E074E284EF90E00E946A2F205174
:102E100031094109510956954795379527952093D2
:102E2000B800DF91CF911F910F91FF90EF90DF904D
:102E30000895E0911505F0911605808190911B058C
:102E4000892B80830C171D0769F289912091030556
:102E500030910405232B19F00E94490DF3CF28E08F
:102E600030E040E8E0911105F091120590911905CC
:102E7000582F5423D9F05081952B9083E09113055E
:102E8000F0911405908150911A05952B9083E09153
:102E90001305F0911405508190911A059095952392
:102EA0009083469521503109E9F6CCCF5081909519
:102EB0009523E3CFE0911705F0911805808190915B
:102EC0001C05892B8083ADCF1F93CF93DF93EC013B
:102ED000162F8D8D9E8D892BB1F12DA93EA94FA95D
:102EE00058AD60E074E284EF90E00E946A2F2051B8
:102EF00031094109510956954795379527952093F2
:102F0000B80066EA111167EACE010E94D1158D8DD5
:102F10009E8D892B41F129AD3AAD4BAD5CAD60E0A2
:102F200074E284EF90E00E946A2F20513109410938
:102F3000510956954795379527952093B800DF910D
:102F4000CF911F9108958B8D9C8D892B21F08EAD93
:102F50009FAD0E94500DEFA5F8A990818CA9809596
:102F600089238083CECFEFA5F8A980819CA9892BE6
:102F70008083E5CF90E080E008951092DD0210920A
:102F8000DC0208952091EE043091EF04C901079608
:102F900097FD079623E0959587952A95E1F720916F
:102FA000EC043091ED04829FA001839F500D929F0D
:102FB000500D112470E060E08091070590910805A4
:102FC0000C94B62F0E94A82FFB0101900020E9F776
:102FD0003197AF01461B570BDC01ED91FC9102804C
:102FE000F381E02D19948F929F92AF92BF92EF924E
:102FF000FF920F931F93CF93DF93CDB7DEB7A197C7
:103000000FB6F894DEBF0FBECDBF7C01FA01CB0135
:1030100019A2223008F42AE08E010F5D1F4F822E84
:10302000912CB12CA12CBF01A50194010E946A2F03
:10303000F901CA016A300CF5605DD8016E938D010B
:10304000232B242B252B79F790E080E0109721F09B
:10305000BD01C7010E94E417A1960FB6F894DEBF28
:103060000FBECDBFDF91CF911F910F91FF90EF90D9
:10307000BF90AF909F908F900895695CDECFCF9303
:10308000DF93BC0182E394E00E94E417EC0167E661
:1030900072E082E394E00E94E4178C0F9D1FDF91A1
:1030A000CF91089588EEC82E83E0D82EE12CF12C24
:1030B00090E6892E9AEE992EA12CB12CCCE3D0E08B
:1030C00011E08FB7F8944090CA035090CB03609002
:1030D000CC037090CD038FBF8091E6029091E70200
:1030E000A091E802B091E902A3019201281B390BDB
:1030F0004A0B5B0BDA01C901883E9340A105B1057B
:10310000A8F14092E6025092E7026092E8027092C3
:10311000E902C301B201A70196010E946A2F209320
:10312000E2023093E3024093E4025093E502C301CC
:10313000B201A50194010E946A2F3093E10220930D
:10314000E002C901BE010E948C2F7093DF026093E0
:10315000DE028091DC029091DD0201969093DD0207
:103160008093DC0203972CF01093DB020E94A225CF
:10317000A8CF1092DB02FACF3F924F925F926F92EC
:103180007F928F929F92AF92BF92CF92DF92EF92F7
:10319000FF920F931F93CF93DF938091A30390919E
:1031A000A4030E94DB26813009F0A8C033243394A5
:1031B000C1E0D0E08AE5882E912C0EE110E093E288
:1031C000E92EF12C28E1C22ED12C3CE3A32EB12C08
:1031D0004CE3442E512C612C712C8091DB02811127
:1031E0007EC00E94C2173092FC043092FD04D0933E
:1031F000F504C093F404D093F704C093F6046AE690
:1032000072E088EE94E00E94E4174091A10350918F
:10321000A20370E060E02AE088EE94E00E94F317D9
:103220009092F5048092F404D093F704C093F604CE
:1032300060E772E088EE94E00E94E4174091D902C2
:103240005091DA0270E060E02AE088EE94E00E949B
:10325000F3171093F5040093F404F092F704E0924E
:10326000F6048091DE029091DF02B6010E948C2F5D
:10327000AC0170E060E02AE088EE94E00E94F31771
:103280006AE388EE94E00E948E0F8091E0029091B4
:10329000E102B5010E948C2FAC0170E060E02AE0F1
:1032A00088EE94E00E94F3176AE388EE94E00E94AF
:1032B0008E0F6091E2027091E3028091E40290919E
:1032C000E502A30192010E946A2FAB01BC012AE032
:1032D00088EE94E00E94F3170E9433167ECF0E947E
:1032E000C2173092FC043092FD04D093F504C093D1
:1032F000F404D093F704C093F604EECF8091A303B7
:103300009091A403DF91CF911F910F91FF90EF90C7
:10331000DF90CF90BF90AF909F908F907F906F90F5
:103320005F904F903F900C94B02583E792E00E940D
:103330003F18C0E480917B00886080937B00C0933D
:103340007C0080917A00806480937A0080917A007A
:1033500086FDFCCF809178009091790018161906AF
:10336000BCF48091A3039091A4030E94DB268130DA
:1033700079F48091D9029091DA0201969093DA0261
:103380008093D9028091A3039091A4030E94B02559
:103390000E94A225CFCF85ED8093BC0080912D03A4
:1033A00090912E03A0912F03B09130030796A11D99
:1033B000B11D23E0B695A795979587952A95D1F7E6
:1033C0002091BC0024FD03C010927A03089540911F
:1033D0002D0350912E0360912F0370913003452BE4
:1033E000462B472B69F30097A105B10541F02AE26E
:1033F0002A95F1F700C00197A109B109E1CF8091A9
:103400002C030C948D130F931F93CF93DF93E091B4
:103410004204F091430482E08083E0913E04F09105
:103420003F041082E0914004F09141048FEC8083CE
:1034300010924A04E0914604F091470486E08083AC
:10344000E0914404F0914504808180618083E091A3
:103450004404F0914504808188608083E0914404B5
:10346000F0914504808180688083E0914404F0916C
:10347000450480818F7D80838FE190E00E94882ABF
:10348000EC01009741F09983888381E08B8F1C8E3B
:10349000CE010E94E622D093A403C093A3032097F9
:1034A00019F0CE010E94B02561E08DE00E9435093F
:1034B00062E082E00E9435098DEB97E19093020271
:1034C0008093010280916A008C7F826080936A0001
:1034D000EC9A8091070590910805892B31F5209190
:1034E000EE043091EF04C901079697FD0796B3E00B
:1034F00095958795BA95E1F72091EC043091ED040C
:10350000AC01429FC001439F900D529F900D11242A
:103510000E94452E9093080580930705892B29F476
:1035200089E892E00E943F18FFCF0E94C2172091C5
:10353000EE043091EF048091EC049091ED04B90118
:10354000213231050CF435C16054710977FF02C096
:103550006F5F7F4F759567958255910997FD01962D
:1035600000E410E022E530E04EEC53E095958795BD
:103570000E943A1282E080930A058091050590919D
:103580000605892B09F428C18DE380930905109263
:103590002B0310922A0310920704109206040E9433
:1035A0006F138EEA93E190935303809352038FEA53
:1035B00093E190935703809356038091100587FD04
:1035C0001EC061E00E94350961E0809110050E94F3
:1035D000A90861E070E080E090E00E948B0960E063
:1035E000809110050E94A9086AE070E080E090E0F8
:1035F0000E948B0961E0809110050E94A9088091CA
:10360000050590910605892B09F4A5C120911D059A
:1036100030911E0540911F055091200560E074E235
:1036200084EF90E00E946A2F20513109410951092D
:1036300056954795379527952093B80064E08AEE14
:1036400091E00E941C156091EE04615088EE94E0B8
:103650000E94D11564E086EE91E00E941C158091D5
:103660000A0564E1813009F460E188EE94E00E948B
:10367000D11564E082EE91E00E941C158FE88093E2
:1036800025058091EC049091ED048038910509F0B6
:103690007BC18091EE049091EF048034910509F094
:1036A00083C180910A05813009F46CC18FEC80934D
:1036B0002505C2E16AED88EE94E00E94D1156C2FD9
:1036C00088EE94E00E94D11561E888EE94E00E94B3
:1036D000D1156091250588EE94E00E94D11569ED21
:1036E00088EE94E00E94D11580910A0561EF813047
:1036F00009F462E288EE94E00E94D11566E08CED58
:1037000091E00E941C158091050590910605892B7A
:1037100009F44EC1209121053091220540912305E5
:103720005091240560E074E284EF90E00E946A2FDB
:1037300020513109410951095695479537952795EB
:103740002093B8000E94C21781E090E09093FB04A0
:103750008093FA049093F9048093F8048DEC92E03E
:103760000E943F1807ED12E021E040E050E163EADB
:1037700072E08CEB98E10E94B72A05ED12E022E09E
:1037800040E850E06BEA72E082E598E10E94B72AD7
:1037900010E000E023E048EE53E060EB72E085E9E2
:1037A00099E10E94B72ADF91CF911F910F910C945C
:1037B000E52B6052710977FF02C06F5F7F4F7595EF
:1037C00067958357910997FD019600E210E023E782
:1037D00030E04EEE51E0CACE61E080910E050E94CD
:1037E000350961E080910F050E94350980910E0531
:1037F000082E000C990BFC01EE52F44FE491F0E01E
:10380000EE0FFF1FE854F44F2591349130931605C5
:1038100020931505FC01E85EF34FE491E0931B054E
:1038200080910F05082E000C990BFC01EE52F44F0D
:10383000E491F0E0EE0FFF1FE854F44FA591B4912E
:10384000B0931805A0931705FC01E85EF34FE491CF
:10385000E0931C058C91E82BEC93809103059091EB
:103860000405892B09F434C0CFB7F8948091D402B1
:10387000811127C0E7E0FCE08491EDE4FCE0949145
:10388000E82FF0E0EE0FFF1FE256F44FA591B49140
:10389000EC91E92321F461E085E30E94A90861E04D
:1038A00085E30E9435098CB580618CBD8CB5806440
:1038B0008CBD61E084E30E94350961E083E30E94EE
:1038C00035098091D4028F5F8093D402CFBF75CE2B
:1038D00061E080910C050E94350961E080910D0541
:1038E0000E94350980910C05082E000C990BFC01F3
:1038F000EE52F44FE491F0E0EE0FFF1FE854F44F66
:10390000259134913093120520931105FC01E85E56
:10391000F34FE491E093190580910D05082E000CFA
:10392000990BFC01EE52F44FE491F0E0EE0FFF1F13
:10393000E854F44FA591B491B0931405A0931305E6
:10394000FC01E85EF34FE491E0931A058C91E09559
:10395000E823EC9332CE8091030590910405892BE6
:1039600031F080912605909127050E94500DE0913D
:103970001705F0911805908180911C058095892389
:1039800080835CCE8FE993CE8036910569F4809177
:10399000EE049091EF04409739F480910A0581304C
:1039A00029F08FEA80932505C2E084CE80E1FACF2A
:1039B000E0911705F0911805808190911C05892BE5
:1039C0008083C0CE1F920F920FB60F9211242F93B7
:1039D0003F938F939F93AF93BF938091CA0390912E
:1039E000CB03A091CC03B091CD033091C90323E068
:1039F000230F2D3758F50196A11DB11D2093C90342
:103A00008093CA039093CB03A093CC03B093CD03D0
:103A10008091CE039091CF03A091D003B091D103B8
:103A20000196A11DB11D8093CE039093CF03A09367
:103A3000D003B093D103BF91AF919F918F913F91EC
:103A40002F910F900FBE0F901F90189526E8230F0F
:103A50000296A11DB11DD2CF1F920F920FB60F92E9
:103A600011240BB60F922F933F934F935F936F9355
:103A70007F938F939F93AF93BF93EF93FF93E091C7
:103A80000F02F09110021995FF91EF91BF91AF9144
:103A90009F918F917F916F915F914F913F912F9166
:103AA0000F900BBE0F900FBE0F901F9018951F9296
:103AB0000F920FB60F9211240BB60F922F933F93D4
:103AC0004F935F936F937F938F939F93AF93BF9326
:103AD000EF93FF93E0910D02F0910E021995FF9183
:103AE000EF91BF91AF919F918F917F916F915F9176
:103AF0004F913F912F910F900BBE0F900FBE0F90E3
:103B00001F9018951F920F920FB60F9211240BB6AB
:103B10000F922F933F934F935F936F937F938F9366
:103B20009F93AF93BF93EF93FF93E0910302F091C4
:103B300004021995FF91EF91BF91AF919F918F91E1
:103B40007F916F915F914F913F912F910F900BBE9D
:103B50000F900FBE0F901F9018951F920F920FB6E7
:103B60000F9211240BB60F922F933F934F935F93B5
:103B70006F937F938F939F93AF93BF93EF93FF9335
:103B8000E0910102F09102021995FF91EF91BF912E
:103B9000AF919F918F917F916F915F914F913F91E5
:103BA0002F910F900BBE0F900FBE0F901F90189586
:103BB0001F920F920FB60F9211240BB60F922F93F4
:103BC0003F934F935F936F937F938F939F93AF93A5
:103BD000BF93EF93FF93E0910B02F0910C021995C4
:103BE000FF91EF91BF91AF919F918F917F916F91D5
:103BF0005F914F913F912F910F900BBE0F900FBE91
:103C00000F901F9018951F920F920FB60F921124CC
:103C10000BB60F922F933F934F935F936F937F93C6
:103C20008F939F93AF93BF93EF93FF93E09109021C
:103C3000F0910A021995FF91EF91BF91AF919F9179
:103C40008F917F916F915F914F913F912F910F9045
:103C50000BBE0F900FBE0F901F9018951F920F92E2
:103C60000FB60F9211240BB60F922F933F934F93E1
:103C70005F936F937F938F939F93AF93BF93EF93D4
:103C8000FF93E0910702F09108021995FF91EF91DF
:103C9000BF91AF919F918F917F916F915F914F9164
:103CA0003F912F910F900BBE0F900FBE0F901F9062
:103CB00018951F920F920FB60F9211240BB60F9208
:103CC0002F933F934F935F936F937F938F939F9324
:103CD000AF93BF93EF93FF93E0910502F09106023B
:103CE0001995FF91EF91BF91AF919F918F917F9126
:103CF0006F915F914F913F912F910F900BBE0F905D
:103D00000FBE0F901F9018951F920F920FB60F9233
:103D100011240BB60F922F933F934F935F936F93A2
:103D20007F938F939F93AF93BF93EF93FF9382E320
:103D300094E00E94320AFF91EF91BF91AF919F9161
:103D40008F917F916F915F914F913F912F910F9044
:103D50000BBE0F900FBE0F901F9018951F920F92E1
:103D60000FB60F9211240BB60F922F938F939F9340
:103D7000EF93FF93E0914204F09143048081E0913E
:103D80004804F091490482FD1DC0908180914B044C
:103D90008F5F8F7320914C04821741F0E0914B04A8
:103DA000F0E0EE5CFB4F958F80934B04FF91EF9119
:103DB0009F918F912F910F900BBE0F900FBE0F9080
:103DC0001F9018958081F2CF1F920F920FB60F921D
:103DD00011240BB60F922F933F934F935F936F93E2
:103DE0007F938F939F93AF93BF93EF93FF938091B4
:103DF000B900887F803609F44DC008F040C0883291
:103E000009F4A9C028F5803109F49DC0C8F48823BD
:103E100009F4FBC0883009F496C0FF91EF91BF917F
:103E2000AF919F918F917F916F915F914F913F9152
:103E30002F910F900BBE0F900FBE0F901F901895F3
:103E4000883109F488C0803241F78093790314C027
:103E5000803409F49DC040F48033B9F38833E9F627
:103E60008093790385ECB0C0803509F485C088352E
:103E700009F496C0883489F60E94CB19CECF8839D0
:103E800009F48CC038F5883729F050F4883611F0E1
:103E9000803719F683E080937A031092780357C035
:103EA000883809F47BC0803919F0803809F0B5CF23
:103EB00080917803803208F071C0E091780381E04E
:103EC0008E0F809378038091BB00F0E0E85AFC4F9E
:103ED00080833DC0803B39F0E0F4803A09F479C03A
:103EE000883A09F09ACF84E080937A0310925503C0
:103EF00010925403E0915203F0915303199580916D
:103F0000540381110FC081E0809354031092320357
:103F100009C0803C09F4A6CF883C09F4A3CF883BB4
:103F200009F07BCFE091550381E08E0F809355031C
:103F3000F0E0EE5CFC4F80818093BB0090915503D4
:103F40008091540329C080919F038093BB0085EC2E
:103F50008093BC0062CF90919E0380919D0398173F
:103F600058F5E0919E0381E08E0F80939E03F0E070
:103F7000E358FC4F8081E9CFE0919E0381E08E0FF2
:103F800080939E038091BB00F0E0E358FC4F808358
:103F900090919E0380919D039817C8F285E8D8CF31
:103FA000E0919E0381E08E0F80939E038091BB0081
:103FB000F0E0E358FC4F808380917C0381115CCF5B
:103FC00081E080937B0384EA8093BC0010927A03A3
:103FD00024CF85EC8093BC0010927A038091780303
:103FE000803230F4E0917803F0E0E85AFC4F108220
:103FF0006091780370E0E0915603F091570388E5F3
:1040000093E019951092780308CF1092790334CF7A
:10401000E091D403F091D5038081811107C08FEF27
:104020009FEF9093C0038093BF030895E091D40362
:10403000F091D5030580F681E02D80819181F1CF4B
:10404000FC01DB010FB6F8940F9240910A045091E5
:104050000B042D913C9111972F3F320711F1818173
:10406000928160910C047081761749F048175907C6
:1040700030F01D921C9281E00F900FBE0895481BF6
:10408000590B42175307A8F7241B350B2D933C936C
:1040900080910C04808380910A0490910B04928398
:1040A000818380E0E9CFCF93DF93DC011596ED911A
:1040B000FC910680F781E02DA489B58986859785D6
:1040C00020893189EC013D832C83C089D1899B8370
:1040D0008A83CF010C9611962D913C911297281747
:1040E000390721F41296DC93CE931197158A148A1E
:1040F0002C9121502C932091BE03211157C0A285F1
:10410000B3858481958126813781EC013D832C83A1
:10411000C681D7819B838A83CF01029611962D9108
:104120003C9112972817390721F41296DC93CE930D
:104130001197138612862C9121502C93C6892091B9
:1041400031042C1710F4C093310429E02C9FE001B6
:104150001124C35FDB4F0980DA81C02DD583C4836E
:104160004C815D8157834683AC81BD8113969C93BE
:104170008E9312979D838C83A689A29FD0011124D0
:10418000A35FBB4FB387A2878C918F5F8C93A09165
:10419000D002B091D102968956968C91891730F54C
:1041A00081E08093BD03DF91CF910895A091E90351
:1041B000B091EA03B787A68714962D913C91159785
:1041C000318B208B1496CD91DC9115979B838A833C
:1041D00015969C938E93149788EE93E0958B848B21
:1041E0008091E8038F5F8093E803D1CF80E0DBCF3D
:1041F0000FB6F8940F9280910A0490910B040F90DF
:104200000FBE08958091BE038F5F8093BE03089513
:104210000FB6F8940F92FC01928D0F900FBE81E0C3
:10422000911180E00895EF92FF920F931F93CF9327
:10423000DF93EC010FB6F8940F921E8D7C0181E1A3
:10424000E80EF11C01E01116D4F08FEF8E8F0F9065
:104250000FBE0FB6F8940F921D8D7E0188E0E80E18
:10426000F11C01E01116B4F08FEF8D8F0F900FBE8F
:10427000DF91CF911F910F91FF90EF900895898961
:10428000882319F3C7010E94532081110093BD03B5
:104290001150D9CF8885882339F3C7010E94532054
:1042A00081110093BD031150DDCFCF93DF93FC014B
:1042B000A085B1858281938124813581EC013D8384
:1042C0002C83C481D5819B838A8311968D919C9187
:1042D00012978E179F0721F41296DC93CE931197B5
:1042E000118610868C9181508C938C91DF91CF91A7
:1042F00008950F931F93CF93DF938C01FB0180816F
:104300009181D80113968F3F9807F1F4E801AF81AE
:10431000B88512968D919C91139793838283EC01BB
:10432000FD83EC83B583A4831396FC93EE931297DD
:1043300011870087F80180818F5F8083DF91CF91A3
:104340001F910F910895D90112962D913C911397C9
:10435000E9014881598184179507A8F7DACFFC0154
:1043600073836283918780874617570790F0421BBB
:10437000530B8485958548175907C8F4BF016E5FB4
:104380007F4F8091C5039091C6030E94792180E000
:1043900008954217530718F46217730740F4BF01DA
:1043A0006E5F7F4F8091C7039091C803EECF81E08D
:1043B0000895EF92FF920F931F93CF93DF93EC0139
:1043C0008B017A016C857D85600F711F9801A701B3
:1043D000CE010E94AF21811107C0DF91CF911F91C3
:1043E0000F91FF90EF9008958C859D85080F191F00
:1043F000E889F989CE011995E5CFEF92FF920F93E5
:104400001F93CF93DF938C017B01E091C703F09161
:10441000C8030580F681E02DC681D781CE010296C2
:104420000E9455218A8982FF0FC0A701B801CE01E1
:104430000E94D921E889F989CE01DF91CF911F919E
:104440000F91FF90EF9019948E7F8A8BF3CFE091BC
:10445000C703F091C803808181110DC08091C5030D
:104460009091C6039093C8038093C703F093C6034B
:10447000E093C50308950580F681E02D6FEF7FEF8F
:10448000808191810E94FD21E2CFFF920F931F93C3
:10449000CF93DF93EC01F62E00910A0410910B04E8
:1044A0008091D0029091D10202960E945521CF3F77
:1044B000DC07E9F5FF20D9F1E091D703F091D803AB
:1044C000A091D002B091D1021596FC93EE9314976F
:1044D000A091D002B091D1028481958117969C93CE
:1044E0008E9316978091D0029091D102A481B581CC
:1044F000029613969C938E9312978091D00290917E
:10450000D102029695838483E091D002F091D1028A
:1045100086ED93E0938782878091D6038F5F8093A7
:10452000D603DF91CF911F910F91FF900895C00F97
:10453000D11FE091D002F091D102D383C283609168
:10454000D0027091D102C017D10768F48091D203D4
:104550009091D3036E5F7F4FDF91CF911F910F91A9
:10456000FF900C9479218091D4039091D5036E5FD4
:104570007F4F0E9479218091BF039091C003C8179B
:10458000D90778F6D093C003C093BF03CACFCF93A7
:10459000DF93EB016091D0027091D102645F7F4F95
:1045A0000E94792161E0CE01DF91CF910C944522E8
:1045B000FC010396928381832FEF3FEF34832383A3
:1045C000968385839087878310820895CF93DF93A6
:1045D000EC010FB6F8940F92888199812B8D4C8D48
:1045E000BC01249F600D711D11247D836C831A8E84
:1045F0009B838A832150330B429FB001439F700DF0
:104600001124860F971F9F838E838FEF8D8F8E8F40
:10461000CE0108960E94D822CE0141960E94D8224F
:104620000F900FBE81E0DF91CF9108950F920FB6EA
:10463000F8940F920BB60F920CB60F921F921124A2
:104640002F923F924F925F926F927F928F929F92A2
:10465000AF92BF92CF92DF92EF92FF920F931F9390
:104660002F933F934F935F936F937F938F939F937A
:10467000AF93BF93CF93DF93EF93FF93A091D002BB
:10468000B091D1020DB60D920EB60D928091BE037F
:10469000882321F081E08093BD035DC01092BD03AB
:1046A000A091D002B091D102E091D002F091D1025C
:1046B0002D913C918789908D82179307A8F0809166
:1046C000D0029091D1028091D0029091D102279A8C
:1046D0002F9A2FEF87EA91E6215080409040E1F732
:1046E00000C000001F9AF5CF2091310489E001C07D
:1046F0002150422F50E0849FF001859FF00D11243E
:10470000E35FFB4F9081992399F3A181B2811296C7
:104710006D917C9172836183289FC0011124805F19
:104720009B4F6817790721F4858196819283818355
:1047300089E0849FF001859FF00D1124E35FFB4F1A
:104740000180F281E02D868197819093D102809340
:10475000D00220933104A091D002B091D102CD912A
:10476000CDBFDD91DEBFFF91EF91DF91CF91BF9182
:10477000AF919F918F917F916F915F914F913F91F9
:104780002F911F910F91FF90EF90DF90CF90BF90EE
:10479000AF909F908F907F906F905F904F903F90E1
:1047A0002F901F900F900CBE0F900BBE0F900FBE5E
:1047B0000F9008958F929F92BF92CF92DF92EF92C7
:1047C000FF920F931F93CF93DF930FB6F8940F923E
:1047D0008091BE0381508093BE038091BE038823E5
:1047E00079F080E00F900FBEDF91CF911F910F9174
:1047F000FF90EF90DF90CF90BF909F908F900895A3
:1048000080910504882369F3E090ED03F090EE03B6
:10481000F0E0E0E039E041E08091E80381115EC022
:10482000EF2B11F00E940820E090BB03F090BC0336
:10483000E114F10409F47DC189E0D82ECC24C3949D
:104840000FEF1FEF8091BE03811161C1C0910A0477
:10485000D0910B044E018FEF881A980A90920B04A6
:1048600080920A0481149104B9F48091D403909148
:10487000D5032091D2033091D3033093D5032093F5
:10488000D4039093D3038093D20380910C048F5F61
:1048900080930C040E9408208091BF039091C00374
:1048A000B12C8816990608F026C1E091D002F0914B
:1048B000D102E689DE9EF0011124E35FFB4F808187
:1048C000823010F0BB24B3948091BD03811103C0EA
:1048D000BB2009F425C1C092BD0322C1D7011696A1
:1048E000ED91FC91A489B589668577858089918948
:1048F000EB019D838C8380899189EC017B836A83A2
:10490000BF01645F7F4F11960D911C91129706179E
:10491000170721F412969C938E931197158A148A87
:104920008C9181508C93A285B38584819581668119
:104930007781EC017D836C8366817781EB019B83BA
:104940008A83CF01029611960D911C911297081738
:10495000190721F412967C936E9311971386128691
:104960002C9121502C93A689209131042A1710F400
:10497000A09331043A9FD0011124A35FBB4F11963D
:104980000D90BC91A02DB583A48314966D917C915C
:1049900015977783668314966D917C911597EB013B
:1049A0009B838A8315969C938E9314979689939FE5
:1049B000D0011124A35FBB4FB387A2878C918F5F77
:1049C0008C93A091D002B091D10256968C91891708
:1049D00008F022CF4093BD031FCFE091D403F091A4
:1049E000D5030580F681E02D0680F781E02D8281D8
:1049F00093818816990628F49093C0038093BF038F
:104A000054CFC285D3858481958126813781DC018D
:104A100015963C932E93149726813781D9011396CE
:104A20009C938E931297CF01029649815A81481721
:104A3000590711F43A83298313861286288121505D
:104A40002883A489B5891097F9F026853785408990
:104A50005189E9015D834C8340895189EA013B8397
:104A60002A8311966D917C9112979F01245F3F4F8D
:104A70006217730721F412965C934E931197158A6F
:104A8000148A2C9121502C93A689209131042A1745
:104A900010F4A0933104DA9ED0011124A35FBB4F20
:104AA00011960D90BC91A02DB583A48314962D91E1
:104AB0003C9115973783268314962D913C91159739
:104AC000E9019B838A8315969C938E93149796890C
:104AD0009D9DD0011124A35FBB4FB387A2878C910A
:104AE0008F5F8C93E091D002F091D1028689891773
:104AF00010F4BB24B394E091D403F091D5038081EA
:104B000081116BCF1093C0030093BF03CECE809171
:104B1000BB039091BC0301969093BC038093BB03AD
:104B2000D1E0ED1AF10809F08DCE1092BC0310927D
:104B3000BB038091BD03882309F453CE0E94162342
:104B400081E050CE0E94022160E086E090E00E9469
:104B500045220E94DA23811102C00E941623089583
:104B6000AF92BF92DF92EF92FF920F931F93CF937A
:104B7000DF9300D01F921F92CDB7DEB78C011D824C
:104B80001C8280E0780198E0E90EF11C0FB6F894E1
:104B90000F92D8015A962C915A975B969C915B97ED
:104BA000291708F0B0C05A96DC905A975C964C9141
:104BB0005C9741118CC08D919C91892B11F080E004
:104BC0000AC0F801E480F580E114F10431F580E0D9
:104BD000F80115821482D394D8015A96DC925A9720
:104BE00051969C91992321F0C80141960E9453202F
:104BF00081110E9416230F900FBE81E00F900F903D
:104C00000F900F900F90DF91CF911F910F91FF9018
:104C1000EF90DF90BF90AF900895D70192968C915E
:104C20009297815092968C93929756962C91569784
:104C300091969C91291759F28111C9CF5701B2E081
:104C4000AB0EB11CC5010E945521F70181A1868BD5
:104C5000482F50E024E030E0241B350B35872487B3
:104C600090913104981710F48093310489E0849F67
:104C7000D001859FB00D1124A35FBB4F11960D90FD
:104C8000BC91A02DF701B583A48314962D913C917E
:104C90001597378326831496ED91FC911597B3826F
:104CA000A2821596BC92AE921497D7015696EC91BB
:104CB0005697E89FF0011124E35FFB4F1B96FC938E
:104CC000EE931A9780818F5F808381E081CF50E0DF
:104CD00070E060E012968D919C910E94AD2FF801DA
:104CE000848D22813381820F932F911D9383828340
:104CF000248135818217930708F461CF80819181E7
:104D0000938382835CCF2C813D81232B21F40F90F0
:104D10000FBE80E073CF811109C080910C0489839C
:104D200080910A0490910B049B838A830F900FBE9D
:104D30000E9402210FB6F8940F92F801858D8F3FE3
:104D400009F4158ED8015E968C915E978F3F11F411
:104D50005E961C920F900FBEBE016C5F7F4FCE011E
:104D600001960E942020811120C00FB6F8940F9266
:104D7000F801928D838D0F900FBE981310C06C8137
:104D80007D81C7010E94C722C8010E9413210E9491
:104D9000DA23811102C00E94162381E0F7CEC801F8
:104DA0000E9413210E94DA23F8CFC8010E94132128
:104DB0000E94DA23AECF7F928F929F92AF92BF92E2
:104DC000CF92DF92EF92FF920F931F93CF93DF93D7
:104DD00000D01F921F92CDB7DEB78C018FEF9FEFEF
:104DE0009D838C83D12C90E0580121E1A20EB11C4F
:104DF00089E0782E24E0822E912C0FB6F8940F9241
:104E0000D8015A968C915A97882309F440C0815052
:104E10005A968C935A978D919C91892BA1F48091ED
:104E2000D0029091D102892B39F0E091D002F0911B
:104E3000D10282A18F5F82A38091D0029091D10292
:104E4000F80195838483D80118968C91882339F0D2
:104E5000C80108960E94532081110E9416230F90CA
:104E60000FBEDD24D3948D2D0F900F900F900F90D7
:104E70000F90DF91CF911F910F91FF90EF90DF90F6
:104E8000CF90BF90AF909F908F907F9008952C818E
:104E90003D81232B21F40F900FBED12CE4CF911133
:104EA00009C080910C04898380910A0490910B04BD
:104EB0009B838A830F900FBE0E9402210FB6F89445
:104EC0000F92F801858D8F3F09F4158ED8015E96FB
:104ED0008C915E978F3F11F45E961C920F900FBEDF
:104EE000BE016C5F7F4FCE0101960E942020811190
:104EF000AEC0C8010E940821882309F4A2C0F801AD
:104F000080819181892B09F076C00FB6F8940F92B9
:104F1000E480F580E114F10409F491C0F701868979
:104F2000E091D002F091D1029689891708F07BC0F8
:104F3000D7011C962D913C911D9737FD0CC0E09137
:104F4000D002F091D10296899401291B31091D9656
:104F50003C932E931C97879DC0011124835F9B4F28
:104F6000F701228533852817390709F054C06701F6
:104F7000F2E0CF0ED11CC6010E945521E091D00273
:104F8000F091D102E689D7015696EC9380913104D5
:104F90008E1710F4E09331047E9EF0011124E35F3C
:104FA000FB4F0180F281E02DD7011596FC93EE9323
:104FB00014978481958117969C938E931697A4815C
:104FC000B5811396DC92CE921297D582C482D70116
:104FD0005696EC915697E79DF0011124E35FFB4F45
:104FE0001B96FC93EE931A9780818F5F8083DD245C
:104FF000D3940F900FBE6C817D81C5010E94C722A2
:10500000C8010E9413210E94DA23811102C00E946C
:10501000162391E0F2CEE091D002F091D102868980
:10502000F701868BE4CFE091D002F091D102DD242C
:10503000D394D70191969C9186899817D0F2D12C60
:10504000D8CFC8010E9413210E94DA23E2CFC80101
:105050000E9413210E94DA23C8010E94082188239C
:10506000C1F2DD2009F4FFCE0FB6F8940F92F801DB
:105070008189882309F47BC00688F789E02D908117
:1050800084E0891BD80114960D911C91011511051E
:1050900009F401CFF80191A1981708F4982FD801CD
:1050A00056968C915697981709F4F5CE92962C91B6
:1050B0009297213009F0EFCE56969C9356971C9606
:1050C0002D913C911D9737FD08C024E030E0291B4D
:1050D00031091D963C932E931C97B9E08B9FC0011C
:1050E0001124835F9B4FF8012285338528173907E8
:1050F00009F0D1CE7801F2E0EF0EF11CC7010E9459
:105100005521F801A689809131048A1710F4A093E3
:10511000310489E08A9FD0011124A35FBB4F11960F
:105120000D90BC91A02DF801B583A48314962D9108
:105130003C911597378326831496ED91FC91159732
:10514000F382E2821596FC92EE921497D80156965D
:10515000EC915697E89FF0011124E35FFB4F1B96FB
:10516000FC93EE931A9780818F5F808394CE80E0CA
:1051700089CF0F920FB6F8940F920BB60F920CB620
:105180000F921F9211242F923F924F925F926F9233
:105190007F928F929F92AF92BF92CF92DF92EF92C7
:1051A000FF920F931F932F933F934F935F936F93B0
:1051B0007F938F939F93AF93BF93CF93DF93EF939F
:1051C000FF93A091D002B091D1020DB60D920EB610
:1051D0000D9213BE8091BE038111F9C080910A0423
:1051E00090910B04019690930B0480930A0400970E
:1051F00081F52091D4033091D5034091D203509191
:10520000D3035093D5034093D4033093D303209317
:10521000D20320910C042F5F20930C04E091D4035F
:10522000F091D5032081211107C02FEF3FEF30937C
:10523000C0032093BF030DC0E091D403F091D503C8
:105240000580F681E02D208131813093C0032093C9
:10525000BF032091BF033091C0038217930710F45E
:1052600020E0A1C020E039E0D32EE091D403F091FA
:10527000D5033081311107C08FEF9FEF9093C003AA
:105280008093BF0390C0E091D403F091D5030580D3
:10529000F681E02D0680F781E02D4281538184174D
:1052A000950728F45093C0034093BF037CC0A285A8
:1052B000B3854481558166817781EA017D836C8362
:1052C00066817781EB015B834A83AF014E5F5F4F5D
:1052D00011960D911C9112970417150721F412963F
:1052E0007C936E931197138612863C9131503C93B8
:1052F000A489B5891097F9F06685778500891189A9
:10530000EB011D830C8300891189E8017B836A838B
:105310001196ED90FC901297BF01645F7F4FE616E7
:10532000F70621F412961C930E931197158A148A8E
:105330003C9131503C93A689309131043A1710F4D6
:10534000A0933104DA9ED0011124A35FBB4F1196C4
:105350000D90BC91A02DB583A48314966D917C9182
:1053600015977783668314966D917C911597EB0161
:105370005B834A8315965C934E93149746894D9DA3
:10538000D0011124A35FBB4FB387A2873C913F5F3D
:105390003C93E091D002F091D1023689341708F0A5
:1053A00064CF21E062CFE091D002F091D102E68992
:1053B000D9E0ED9FF0011124E35FFB4F8081823043
:1053C00008F021E08091BD0381110EC00AC08091D8
:1053D000BB039091BC0301969093BC038093BB03E5
:1053E00068C0222309F465C08091BE03882321F0A0
:1053F00081E08093BD035DC01092BD03A091D002F7
:10540000B091D102E091D002F091D1022D913C9166
:105410008789908D82179307A8F08091D002909190
:10542000D1028091D0029091D102279A2F9A2FEF2A
:1054300087EA91E6215080409040E1F700C00000EB
:105440001F9AF5CF2091310489E001C02150422FED
:1054500050E0849FF001859FF00D1124E35FFB4F26
:105460009081992399F3A181B28112966D917C91DB
:1054700072836183289FC0011124805F9B4F68174E
:10548000790721F4858196819283818389E0849FC5
:10549000F001859FF00D1124E35FFB4F0180F28145
:1054A000E02D868197819093D1028093D002209342
:1054B0003104A091D002B091D102CD91CDBFDD9148
:1054C000DEBFFF91EF91DF91CF91BF91AF919F919F
:1054D0008F917F916F915F914F913F912F911F918C
:1054E0000F91FF90EF90DF90CF90BF90AF909F9083
:1054F0008F907F906F905F904F903F902F901F9074
:105500000F900CBE0F900BBE0F900FBE0F90089522
:10551000CF93DF93EC010E940221CE010E94452E21
:10552000EC010E94DA23209769F4279A2F9A2FEF33
:1055300080E792E0215080409040E1F700C00000F9
:105540001F9AF5CFCE01DF91CF910895CF93DF93CE
:10555000009751F0EC010E940221CE010E94E12E41
:10556000DF91CF910C94DA23DF91CF9108957F9250
:105570008F929F92AF92BF92CF92DF92EF92FF9263
:105580000F931F93CF93DF93982EA92E762E872EFD
:105590007A01B22ECA010E94882A6C01892B09F473
:1055A000F3C088E290E00E94882AEC01892B09F47C
:1055B000E8C088E2DE011D928A95E9F7D88ECF8A8D
:1055C000A70165EA70E0C6010E94B62FB1E0EB1AB0
:1055D000F108EF89F88DEE0DFF1D672D782DCE01B6
:1055E00049969B01285F3F4FDB014D91BD01DC01D6
:1055F0004D93CD01AB0141505109DA014C91442347
:1056000019F06217730781F718A2BE8AB9A21B8628
:105610001A861D8A1C8AD987C88784E090E08B1976
:1056200091099D878C87DB8BCA8B9082DF01119754
:10563000AC9211971C9211971C92119780E88C9351
:1056400011971C9211971C9211971C9257971C92BC
:1056500011971C92B697F983E8830115110519F08B
:10566000F801D183C0830FB6F8940F92809105049E
:105670008F5F809305048091D0029091D102892B95
:1056800009F091C0D093D102C093D002809105045B
:10569000813081F58DE094E00E94D82286E194E08B
:1056A0000E94D8228FE194E00E94D82288E294E000
:1056B0000E94D8228AEF93E00E94D82281EF93E0E3
:1056C0000E94D82288EE93E00E94D8228FED93E0CA
:1056D0000E94D82286ED93E00E94D8228AEF93E0C0
:1056E0009093D5038093D40381EF93E09093D303F9
:1056F0008093D203809103048F5F80930304AE896B
:10570000809131048A1710F4A093310429E02A9F74
:10571000D0011124A35FBB4F11960D90BC91A02D19
:10572000BD83AC8314968D919C9115979F838E8336
:105730001496ED91FC911597CE0102969383828386
:1057400015969C938E931497EE89E29FF001112495
:10575000E35FFB4FFB87EA8780818F5F80830F9039
:105760000FBE80910404882351F0E091D002F091A3
:10577000D10296898E89981710F40E94162381E031
:1057800004C0C6010E94A62A8FEFDF91CF911F911E
:105790000F91FF90EF90DF90CF90BF90AF909F90D0
:1057A0008F907F900895809104048111A3CFE091A0
:1057B000D002F091D10296898E89891708F49ACF88
:1057C000D093D102C093D00295CF0F931F93CF9364
:1057D000DF9309EB13E020E040EC50E06CE772E06F
:1057E0008EE198E00E94B72A813009F090C00FB690
:1057F000F8940F928091C3039091C403892B49F5CB
:105800008EEA93E00E94D82285EA93E00E94D82293
:105810008EEA93E09093C8038093C70385EA93E0F0
:105820009093C6038093C50381E590E00E94882A87
:10583000EC01009751F04F96998388838AE08B8F13
:1058400085E08C8FCE010E94E622D093C403C093E2
:10585000C3030F900FBE8091C3039091C403892BA3
:1058600009F455C007EB13E023E045E550E061E89B
:1058700072E085E596E00E94B72A813009F047C0C2
:10588000F8942FEF3FEF3093C0032093BF03809332
:10589000040410920B0410920A04A89588E190EC7D
:1058A0000FB6F894A895809360000FBE90936000A7
:1058B000A091D002B091D102CD91CDBFDD91DEBFDC
:1058C000FF91EF91DF91CF91BF91AF919F918F9118
:1058D0007F916F915F914F913F912F911F910F9108
:1058E000FF90EF90DF90CF90BF90AF909F908F9000
:1058F0007F906F905F904F903F902F901F900F90F0
:105900000CBE0F900BBE0F900FBE0F9008958091AC
:105910000002DF91CF911F910F9108950E94B92845
:105920001895CF93DF93109235041092340488EECB
:1059300093E0A0E0B0E08093360490933704A09306
:105940003804B09339042BE132E0309333042093D0
:10595000320425EC30E030933F0420933E0424ECE5
:1059600030E0309341042093400420EC30E0309349
:1059700043042093420421EC30E03093450420930B
:10598000440422EC30E0309347042093460426EC94
:1059900030E0309349042093480410924B04109255
:1059A0004C0410924D0410924E041092DF04109299
:1059B000DE048093E0049093E104A093E204B093AA
:1059C000E3048DE292E09093DD048093DC04109276
:1059D000EB041092EA0420E830E03093ED042093C9
:1059E000EC0480E490E09093EF048093EE04309315
:1059F000F1042093F0049093F3048093F204109246
:105A0000FE041092F5041092F4041092F704109220
:105A1000F60481E08093FD048093FC04CFEFDFEF78
:105A2000D093FB04C093FA04D093F904C093F80414
:105A30008093FF0410920005109202051092010558
:105A40002FE332E03093E9042093E8041092040538
:105A5000109203052CED34E03093060520930505E4
:105A600010920805109207059FEF90930C059093F4
:105A70000D0590930E0590930F0594E090931005FB
:105A800040E85AE166E070E040931D0550931E0522
:105A900060931F057093200540EA56E861E070E0CE
:105AA00040932105509322056093230570932405AC
:105AB00090E590932605109227051092D904109234
:105AC000D80422E030E03093DB042093DA048093A2
:105AD000D0048EE390E00E94452EFC0186E390E026
