:020000040000FA
:100000000C9471080C94551E0C942A1E0C94FF1D20
:100010000C94D41D0C94A91D0C947E1D0C94531D9E
:100020000C94281D0C94A2080C94A2080C94A2080D
:100030000C948A2C0C94A2080C94A2080C94A2088C
:100040000C94A2080C94A2080C94A2080C94A20888
:100050000C94A2080C94A2080C94A2080C94DE1C28
:100060000C94A2080C94AA1E0C94801E0C94A20856
:100070000C94A2080C94A2080C94A2080C94A20858
:100080000C94A2080C94A2080C94A2080C94A20848
:100090000C94A2080C94A2080C94A2080C94E01EE4
:1000A0000C94A2080C94A2080C94A2080C94A20828
:1000B0000C94A2080C94A2080C94A2080C94A20818
:1000C0000C94A2080C94A2080C94A2080C94A20808
:1000D0000C94A2080C94A2080C94A2080C94A208F8
:1000E0000C94A2080C94D5080C94F4080C94BA094A
:1000F0000C941D090C9413090C949D0A0C94EC08A3
:100100000C942F120C94BB100C9419090C944313EB
:100110000C94CE130C9491190C94F8080C94050CC3
:100120000C94AB130C9455060C9497120C940A0A79
:100130000C940B090C94500A0C94FB080C94E709DE
:100140000C941E080C9460170C94C3070C948D2C0F
:100150000C944E0C0C94A4080C9450110C94D513D0
:100160000C94B9170C944E180C94F0080C94B9091F
:100170000C94AC130C9402140C948A0F0C94171268
:100180000C940F090C94AB070C9433110C94500D84
:100190000C94950C0C9407120C942B090C940109E7
:1001A0000C9480070C94180A0C94F6090C94050919
:1001B0000C9427090C94B8180C94322E0C945C10F3
:1001C0000C94BB130C94B6170C9423120C94BD071B
:1001D0000C94AA130C94DA080C942109DB40A4A611
:1001E0002EAF2000A1C8D300408DAED580A800005E
:1001F000600000000000000000000000000000E0BF
:100200000000000000000000000000000001E0000D
:1002100000000000000000000000000001F00000ED
:10022000000000000000000000000003F0000000DB
:100230000000000000000000000007F000000000C7
:1002400000000000000000000007F80000000000AF
:1002500000000000000000000FF800000003C000D4
:100260007E000001E0007F0FF800000003C000FEE8
:10027000000001E000FFEFF800000003C000FE00F6
:100280000001E000FFFFF800000003C000F00000E4
:10029000000F007FFE7FC0000003C000F0000000E0
:1002A0000F003FFE7FF83FF1FBCFFCFEF3BC3DEFBC
:1002B000E01FFE7FFF7FFBFFDFFEFEFFBC3DEFE0A8
:1002C0001FC6FFFF7FFBFFDFFEFEFFBC3DEFE00F21
:1002D000E3C7FE787BC3DE1EF0FFBC3DEF0007FFE7
:1002E00087FC787BC3DE1EF0F83C3DEF0001FFFF8A
:1002F000F0007BC3C01EF0F03C3DEF0001F37FE057
:100300003FFBC3CFFEF0F03C3DEF0003E33F807FB7
:10031000FBC3DFFEF0F03C3DEF0007E73C00787BDD
:10032000C3DE1EF0F03C3DEF0007FFBE00787BC34C
:10033000DE1EF0F03C3DEF0007FFFE00787BC3DEE1
:100340001EF0F03C3DEF000FFFFE007FFBFFDFFEE5
:10035000F0F03FFDEFE00FFFFF007FFBFFDFFEF05F
:10036000F03FFDEFE00FF9FF003E79F9CF9EF0F08E
:100370001F3DE7E01FF1FF0000000000000000004B
:100380000000001F80FF007FFFFFFFFFFFFFFFFF58
:10039000FFE01C007F007FFFFFFFFEB46D888D181B
:1003A000E000001F007FFFFFFFFE95AD7DB577E009
:1003B00000000F007FFFFFFFFEA5AD9D8D19E0003F
:1003C0000006007FFFFFFFFEB5ADEDB57EE000004B
:1003D0000000000180000000000000000000038019
:1003E00000000000000000000007C0000000000046
:1003F0000000000007C00000000000000000000F27
:10040000C00000000000000000001FE0000000002D
:1004100000000000001FE0000000000000000000DD
:100420003FE00000000000000000003FF00000007E
:100430000000000000007FF0000000000000001F2E
:10044000F87FF0000000000000003FFE7FF0000099
:1004500000000000003FFF7FF000000000000000EF
:100460001FFFFBE0000000000000000FFFF9FFC0CD
:100470000000000000000FFFF9FFF800000000007E
:100480000007FFF1FFFF00000000000003FC73FF06
:10049000FF80000000000001FE3FFFFF8000000021
:1004A000000000FF1E0FFF000000000000007FFEA4
:1004B0001FFC000000000000003FFFFFF8000000EC
:1004C000000000000FDFFFE0000000000000001F40
:1004D00019FFC0000000000000003F3CFF000000CA
:1004E00000000000007E7CF800000000000000001A
:1004F0007FFE7C0000000000000000FFFFFC000009
:10050000000000000000FFFFFE00000000000000EF
:1005100000FFFFFE0000000000000001FFEFFE00F2
:1005200000000000000001FFCFFE000000000000FE
:100530000003FF07FE0000000000000003FC07FEB0
:100540000000000000000003F003FE0000000000B7
:100550000000018000FE000000000000000000001C
:100560007E000000000000000000003E00000000CF
:100570000000000000000C000000000000078000E8
:10058000FC000003C0000000078001FC000003C065
:10059000000000078001FC000003C000000007808D
:1005A00001E00000001E000000078001E0000000E4
:1005B0001E007FE3F79FF9FDE7787BDFC0FFF7FFC1
:1005C000BFFDFDFF787BDFC0FFF7FFBFFDFDFF78BC
:1005D0007BDFC0F0F787BC3DE1FF787BDE00F0F702
:1005E00087BC3DE1F0787BDE0000F787803DE1E0ED
:1005F000787BDE007FF7879FFDE1E0787BDE00FF00
:10060000F787BFFDE1E0787BDE00F0F787BC3DE1D6
:10061000E0787BDE00F0F787BC3DE1E0787BDE0030
:10062000F0F787BC3DE1E0787BDE00FFF7FFBFFD20
:10063000E1E07FFBDFC0FFF7FFBFFDE1E07FFBDF15
:10064000C07CF3F39F3DE1E03E7BCFC000000000A3
:1006500000000000000000FFFFFFFFFFFFFFFFFFA3
:10066000FFC0FFFFFFFFFD68DB111A31C0FFFFFF76
:10067000FFFD2B5AFB6AEFC0FFFFFFFFFD4B5B3B0B
:100680001A33C0FFFFFFFFFD6B5BDB6AFDC000009C
:100690000000003E5B4F5B3E3E6B4F6B3E1C3E7C62
:1006A0003E1C183C7E3C181C577D571C1C5E7F5E10
:1006B0001C00183C1800FFE7C3E7FF0018241800CF
:1006C000FFE7DBE7FF30483A060E26297929264066
:1006D0007F050507407F05253F5A3CE73C5A7F3E92
:1006E0001C1C08081C1C3E7F14227F22145F5F0024
:1006F0005F5F06097F017F006689956A60606060C0
:100700006094A2FFA29408047E040810207E2010AA
:1007100008082A1C08081C2A08081E101010100CB3
:100720001E0C1E0C30383E3830060E3E0E06000001
:1007300000000000005F00000007000700147F14A5
:100740007F14242A7F2A1223130864623649562014
:10075000500008070300001C2241000041221C0039
:100760002A1C7F1C2A08083E0808008070300008F8
:1007700008080808000060600020100804023E51CC
:1007800049453E00427F400072494949462141495E
:100790004D331814127F1027454545393C4A4949C5
:1007A0003141211109073649494936464949291E2F
:1007B000000014000000403400000008142241141E
:1007C00014141414004122140802015909063E4170
:1007D0005D594E7C1211127C7F494949363E414198
:1007E00041227F4141413E7F494949417F090909F1
:1007F000013E414151737F0808087F00417F41005D
:100800002040413F017F081422417F404040407F0B
:10081000021C027F7F0408107F3E4141413E7F0958
:100820000909063E4151215E7F0919294626494999
:10083000493203017F01033F4040403F1F204020D9
:100840001F3F4038403F63140814630304780403D7
:100850006159494D43007F41414102040810200085
:100860004141417F040201020440404040400003F6
:1008700007080020545478407F28444438384444C2
:100880004428384444287F385454541800087E09BA
:100890000218A4A49C787F0804047800447D4000DA
:1008A0002040403D007F1028440000417F40007CF4
:1008B000047804787C080404783844444438FC18EC
:1008C00024241818242418FC7C08040408485454D0
:1008D000542404043F44243C4040207C1C204020FD
:1008E0001C3C4030403C44281028444C9090907C64
:1008F0004464544C44000836410000007700000076
:100900004136080002010204023C2623263C1EA1B7
:10091000A161123A4040207A385454555921555516
:1009200079412254547842215554784020545579C5
:10093000400C1E5272123955555559395454545958
:1009400039555454580000457C410002457D420011
:1009500001457C407D1211127DF0282528F07C5441
:100960005545002054547C547C0A097F493249493A
:1009700049323A4444443A324A4848303A414121A3
:100980007A3A42402078009DA0A07D3D4242423DFF
:100990003D4040403D3C24FF2424487E4943662B93
:1009A0002FFC2F2BFF0929F620C0887E0903205435
:1009B0005479410000447D413048484A3238404033
:1009C000227A007A0A0A727D0D19317D2629292F93
:1009D00028262929292630484D40203808080808AB
:1009E00008080808382F10C8ACBA2F102834FA00AD
:1009F000007B000008142A142222142A140855002F
:100A0000550055AA55AA55AAFF55FF55FF000000ED
:100A1000FF00101010FF00141414FF001010FF004E
:100A2000FF1010F010F0141414FC001414F700FF61
:100A30000000FF00FF1414F404FC141417101F101E
:100A4000101F101F1414141F00101010F0000000CD
:100A5000001F101010101F10101010F010000000D8
:100A6000FF101010101010101010FF10000000FFE9
:100A7000140000FF00FF00001F10170000FC04F42A
:100A800014141710171414F404F40000FF00F714E2
:100A9000141414141414F700F71414141714101069
:100AA0001F101F141414F4141010F010F000001F85
:100AB000101F0000001F14000000FC140000F010C4
:100AC000F01010FF10FF141414FF141010101F006A
:100AD000000000F010FFFFFFFFFFF0F0F0F0F0FF6C
:100AE000FFFF0000000000FFFF0F0F0F0F0F384443
:100AF000443844FC4A4A4A347E02020606027E0218
:100B00007E0263554941633844443C04407E201EC4
:100B10002006027E020299A5E7A5991C2A492A1CF3
:100B20004C7201724C304A4D4D303048784830BCE0
:100B3000625A463D3E494949007E0101017E2A2A0A
:100B40002A2A2A44445F444440514A444040444A8B
:100B500051400000FF0103E080FF000008086B6BBC
:100B6000083612362436060F090F06000018180042
:100B700000001010003040FF0101001F01011E00A5
:100B8000191D1712003C3C3C3C0000000000000115
:100B900003070F1F3F7F0080C0E0F0F8FCFE00005D
:100BA0002100240027002A002D003000330001011D
:100BB0000000040107010A010000220025002800AE
:100BC0002B002E0031003400020100000501080155
:100BD0000B010505050507050808080802020202C1
:100BE0000A0A0808040404040101010101010101C9
:100BF0000303030303030303040707070C0C0C0C94
:100C00000C0C0C0C0202020206060606060606067C
:100C10000B0B0B0B0B0B0B0B010210202008081009
:100C2000204010204080020102010804020101025C
:100C30000408102040808040201008040201800435
:100C40000201804020100804020108040201010290
:100C50000408102040800102040810204080000099
:100C60000A0B02090C0D0E08070304010000000026
:100C70000000000000000000000000000000000074
:100C80000000000000000000000012111000000031
:100C90000000000000000000000000000000000054
:100CA000000000002200FF210000CF93DF9300D05E
:100CB00000D000D01F92CDB7DEB7E091CD03F09108
:100CC000CE031081D12CC12C112329F00580F6818F
:100CD000E02DC080D1800E94FE200E94F4207C0183
:100CE0008091C7039091C803E816F90608F08EC0FA
:100CF0000E942322F092C803E092C7030E94D623E9
:100D00000091C9031091CA031A86198680E0680110
:100D1000F1E1CF0ED11C0FB6F8940F92D8015A967C
:100D2000FC905A97FF2009F432C15C964C915C9775
:100D3000442301F150E016968D919C911797840FF2
:100D4000951F17969C938E93169714962D913C9110
:100D500015978217930738F08D919C9111971796EC
:100D60009C938E931697F80166817781CE01019648
:100D70000E94A92FFA94D8015A96FC925A97189675
:100D80008C91882339F0C80108960E944F20811168
:100D90000E9412230F900FBEF980F7FCB1CF0C8197
:100DA0001D81D8011A968D919C91892B21F0C80143
:100DB00002960E9451210E94F4206C018091C70389
:100DC0009091C803C816D90610F40E942322D0922D
:100DD000C803C092C703EFEFEF0DE93008F090CFE2
:100DE0000E2E000CFF0BD80152969C91529788272B
:100DF000E350F94F8F4F0C949C2F80078007C30757
:100E0000AB07BD0780078007C307AB07F092C80395
:100E1000E092C703112351F0EC14FD0470F00E941E
:100E2000D623B701C6010E94F9216ACFE091CB0316
:100E3000F091CC03808161E0811160E00091C903F1
:100E40001091CA030FB6F8940F92D8015D968C9159
:100E50005D978F3F11F45D961C92F801868D8F3F50
:100E600009F4168E0F900FBED8015A968C915A979E
:100E700081113CC05296ED91FC91A091D602B091A7
:100E8000D7021F96FC93EE931E97A091D602B091C5
:100E9000D7028481958151969C938E93509780912F
:100EA000D6029091D702A481B5810C9613969C939B
:100EB0008E9312978091D6029091D7020C969583CB
:100EC0008483E091D602F091D702C8014196958BB8
:100ED000848BF80181898F5F818BC6018E199F09F0
:100EE000662311F08FEF9FEF0E944122C8010E94FC
:100EF0000F210E94D623811103CF0E94122300CF1D
:100F00009160F801928BEA80FB80648575856E0D97
:100F10007F1D9701A601C8010E94AB21882309F417
:100F2000EFCED80152968C91529782FF10C01C963A
:100F30006D917C916E0D7F1DA601C8010E94D52187
:100F4000D8015096ED91FC91C8011995D9CE8E7FAC
:100F5000F801828BF5CF916052969C9352976A81EB
:100F60007B811D967C936E931C976C0D7D1D960165
:100F7000A601C8010E94AB21C3CE91FD04C0C801E7
:100F80000E94A22ABDCE9E7FF801928BB9CE298500
:100F90003A85232B19F40F900FBE8FCE811109C013
:100FA000809112048E83809110049091110498878F
:100FB0008F830F900FBE0E94FE200FB6F8940F9201
:100FC000F801858D8F3F09F4158ED8015E968C91BE
:100FD0005E978F3F11F45E961C920F900FBEBE017C
:100FE000675F7F4FCE0106960E941C2081111BC0B7
:100FF000C8010E940421882381F069857A85C60191
:101000000E94C322C8010E940F210E94D623811191
:1010100002C00E94122381E07ECEC8010E940F21EF
:101020000E94D623F8CFC8010E940F210E94D62328
:10103000C8010E940421882371F33FCE8091A6034A
:1010400081112CC080911304823010F00E94122371
:101050008091A9039091AA030E94D726813071F74D
:10106000E091D704F091D804468157815093A803AA
:101070004093A70370E060E02AE088E394E00E94D8
:10108000EF1767E672E088E394E00E94E017809132
:10109000A9039091AA030E94AC25D0CF0FB6F89473
:1010A0000F92E091EA03F091EB03C681D781CE0164
:1010B00002960E94512180910B04815080930B0471
:1010C0008091A60381508093A6030F900FBE8F8955
:1010D000988D0E94A22ACE010E94A22AAFCF8D2C09
:1010E000322E11241FBECFEFD1E2DEBFCDBF00E014
:1010F0000CBF12E0A0E0B2E0E6E9FFE500E00BBFC4
:1011000002C007900D92A63DB107D9F725E0A6EDE4
:10111000B2E001C01D92A233B207E1F718E0C0E7C8
:10112000D8E000E006C021970109802FFE010E944F
:101130009C2FCF36D10780E00807A9F70E94AD2D7C
:101140000C94B92F0C9400000895282F30E0F90179
:10115000E25AF34F9491F901E85EF34F44912E5215
:10116000344FF9012491222309F435C0992311F158
:1011700091509231F8F4E92FF0E08827ED53F74FC2
:101180008F4F0C949C2FF408F808D508EC08F00851
:10119000DA08FB08010905090B090F0913091909E8
:1011A0001D09DA08210927092B09809180008F7712
:1011B00080938000E22FF0E0EE0FFF1FE854F44F21
:1011C000A591B4918FB7F894EC91611148C0409506
:1011D0004E234C938FBF0895809180008F7DE8CF80
:1011E00080918000877FE4CF84B58F7784BDE2CF84
:1011F00084B58F7DFBCF8091B0008F778093B00056
:10120000D9CF8091B0008F7DF9CF809190008F77FA
:1012100080939000CFCF809190008F7DF9CF809107
:101220009000877FF5CF8091A0008F778093A000FA
:10123000C1CF8091A0008F7DF9CF8091A000877FE2
:10124000F5CF809120018F7780932001B3CF8091DB
:1012500020018F7DF9CF80912001877FF5CF4E2B24
:10126000B8CFCF93DF9390E0FC01E85EF34F249179
:101270008E52944FFC0184918823D1F090E0880F26
:10128000991FFC01E256F44FA591B491FC01E8547A
:10129000F44FC591D491623071F49FB7F8943C91AA
:1012A000822F809583238C93E8812E2B28839FBFE8
:1012B000DF91CF9108958FB7F894EC912E2B2C935A
:1012C0008FBFF6CF3FB7F8948091D4039091D503A8
:1012D000A091D603B091D70326B5A89B05C02F3F98
:1012E00019F00196A11DB11D3FBFBA2FA92F982F4C
:1012F0008827BC01CD01620F711D811D911D42E047
:10130000660F771F881F991F4A95D1F708958F920E
:101310009F92AF92BF92CF92DF92EF92FF924B01DA
:101320005C010E9462096B017C010E9462096C19D8
:101330007D098E099F09683E734081059105A8F3D8
:1013400021E0821A9108A108B10888EEC80E83E056
:10135000D81EE11CF11C81149104A104B10429F7E9
:10136000FF90EF90DF90CF90BF90AF909F908F90C5
:1013700008950895AF92BF92CF92DF92EF92FF92BD
:101380000F931F93CF93DF936C017B018B01040FAD
:10139000151FEB015E01AE18BF08C017D10759F049
:1013A0006991D601ED91FC910190F081E02DC6018B
:1013B0001995892B79F7C501DF91CF911F910F9175
:1013C000FF90EF90DF90CF90BF90AF900895FC0119
:1013D000538D448D252F30E0842F90E0821B930B9A
:1013E000541710F0CF96089501970895FC01918D40
:1013F000828D981761F0A28DAE0FBF2FB11D5D9643
:101400008C91928D9F5F9F73928F90E008958FEFE4
:101410009FEF0895FC01918D828D981731F0828D98
:10142000E80FF11D858D90E008958FEF9FEF0895EF
:10143000FC01918D228D892F90E0805C9F4F821B53
:1014400091098F739927089588E394E00E94180A00
:1014500021E0892B09F420E0822F0895FC01A48D5E
:10146000A80FB92FB11DA35ABF4F2C91848D90E0C6
:1014700001968F739927848FA689B7892C93A089A9
:10148000B1898C91837080648C93938D848D981333
:1014900006C00288F389E02D80818F7D80830895C6
:1014A000EF92FF920F931F93CF93DF93EC0181E0B4
:1014B000888F9B8D8C8D98131AC0E889F98980815B
:1014C00085FF15C09FB7F894EE89FF896083E8898E
:1014D000F98980818370806480839FBF81E090E080
:1014E000DF91CF911F910F91FF90EF900895F62E0D
:1014F0000B8D10E00F5F1F4F0F731127E02E8C8DA7
:101500008E110CC00FB607FCFACFE889F9898081EB
:1015100085FFF5CFCE010E942E0AF1CFEB8DEC0FA7
:10152000FD2FF11DE35AFF4FF0829FB7F8940B8F08
:10153000EA89FB8980818062CFCFCF93DF93EC0172
:10154000888D8823B9F0AA89BB89E889F9898C91AB
:1015500085FD03C0808186FD0DC00FB607FCF7CF67
:101560008C9185FFF2CF808185FFEDCFCE010E9467
:101570002E0AE9CFDF91CF91089580E090E0892B8A
:1015800029F00E94240A81110E94000080E090E06E
:10159000892B49F080E090E0892B29F00E9400001F
:1015A00081110E94000080E090E0892B49F080E0EA
:1015B00090E0892B29F00E94000081110E94000018
:1015C00080E090E0892B49F080E090E0892B29F0C1
:1015D0000E94000081110C9400000895EF92FF9288
:1015E0000F931F93CF93DF93EC01EC80FD806E157A
:1015F0007F050CF070C057FF04C0240F351F50E06A
:1016000040E08E819F81FA01E20FF31F8E179F0742
:101610001CF49C01241B350B121613060CF05BC046
:10162000922F842F8695869586958E9DD0018F9DCD
:10163000B00D11246A0F7B1FAF8DB8A1A60FB71F85
:10164000477049F188E0841B482F682F70E0FB0148
:10165000EA56F44FE491281708F063C0621B710941
:101660002FEF30E002C0359527956A95E2F7E22327
:101670000130110539F0B0F10230110561F58C919E
:10168000E82702C08C91E82BEC93941720F12C8171
:101690003D81A20FB31FE92FE41BE83078F0023040
:1016A000110521F58E2F9C9190959C932C813D8165
:1016B000A20FB31F88508830B0F7E770EE2359F0BF
:1016C000F0E0E257F44FE49101301105F9F010F128
:1016D0000230110519F1DF91CF911F910F91FF9009
:1016E000EF900895E0958C91E823CECF81E001152D
:1016F000110509F480E081959E2F8C932C813D810A
:10170000A20FB31F98509830C0F7D7CF8C91E82B19
:10171000EC93E1CFE0958C91E823FACF8C91E82708
:10172000F7CF0130110509F4ADCFE0F20230110519
:1017300009F4A5CFAE0DBF1DAECF0F931F93CF936E
:10174000DF9377FF04C0260F371F70E060E0DC01F5
:101750001496CD91DC91FB01E20FF31FCE17DF074A
:101760001CF49E01261B370B121613064CF5FA01CA
:1017700057FD3796A3E0F595E795AA95E1F7EC9F1D
:10178000D001ED9FB00DFC9FB00D11246A0F7B1F9F
:10179000DC015F96ED91FC91E60FF71F477055272E
:1017A00081E090E001C0880F4A95EAF7482F0130A8
:1017B000110559F0A8F02E0F3F1F02301105E1F07E
:1017C000DF91CF911F910F9108952E0F3F1FE217C8
:1017D000F307B1F38191DF011197842B8C93F7CF3D
:1017E00080952E0F3F1FE217F30751F39191DF0110
:1017F000119798239C93F7CFE217F30709F3819190
:10180000DF01119784278C93F7CF0F931F93FA0171
:10181000DC0156964C9156974230E9F04330A1F1E5
:10182000413061F514964D915C91DA01AE1BBF0B0E
:10183000FD01E21BF30B77FD0BC0DC0116964D9109
:101840005C916417750724F4AB01BF010E949D0BE6
:101850001F910F91089514964D915C91DA01A61B8A
:10186000B70BBD0161507109DC0116964D915C9179
:10187000DA01AE1BBF0BFD01E21BF30B77FDE8CFD6
:10188000AF010E94EE0AE4CF16964D915C91DA0109
:10189000A61BB70BBD0161507109CDCF0F931F93EC
:1018A000FA01DC0156964C9156974230A9F043302C
:1018B00091F1413019F514964D915C91DA01AE1B0E
:1018C000BF0BFD013197F7FD04C0AB01BF010E94C2
:1018D000EE0A1F910F91089514964D915C91DA01D3
:1018E000A61BB70BBD01DC0116964D915C91DA0188
:1018F000AE1BBF0BFD013197621B730BF7FDE9CFE8
:10190000DC0116964D915C91E417F50714F7AF01D1
:101910000E949D0BDECF16964D915C91DA01A61BBD
:10192000B70BBD01621B730BCECFFC0177FD64C00A
:1019300080859185681779070CF05EC057FD5CC003
:1019400082859385481759070CF056C086898230E6
:10195000B1F0833029F1813041F484819581841B79
:10196000950BAB01BC01615071092130310509F1C2
:1019700008F443C02230310509F463C0089584811E
:101980009581DC01A61BB70BBD01615071098681F1
:101990009781DC01A41BB50BAD0141505109E5CF86
:1019A00086819781861B970BBA01AC014150510982
:1019B000DCCFCA0157FD0796A3E095958795AA95B8
:1019C000E1F7A481B5818A9F90018B9F300D9A9F8A
:1019D000300D1124620F731F078CF0A1E02DE60F6C
:1019E000F71F4770552721E030E001C0220F4A95CC
:1019F000EAF78081822B80830895CA0157FD0796FC
:101A000033E0959587953A95E1F7A481B5818A9F52
:101A100090018B9F300D9A9F300D1124620F731F20
:101A2000078CF0A1E02DE60FF71F4770552781E0E6
:101A300090E001C0880F4A95EAF78095908189234C
:101A4000DACFCA0157FD079623E0959587952A9529
:101A5000E1F7A481B5818A9F90018B9F300D9A9FF9
:101A6000300D1124620F731F078CF0A1E02DE60FDB
:101A7000F71F4770552721E030E001C0220F4A953B
:101A8000EAF780818227B7CF08958EBD00000DB49C
:101A900007FEFDCF8EB508958CBD9DBD08950895B8
:101AA000FC016370668B848195812681378161306A
:101AB00039F0633029F09187808733872287089532
:101AC000318720879387828708952F923F924F9284
:101AD0005F926F927F928F929F92AF92BF92CF92BE
:101AE000DF92EF92FF920F931F93CF93DF93CDB7C7
:101AF000DEB76A970FB6F894DEBF0FBECDBF9A8FE0
:101B0000898F7A8369834A01D22E18870F83370120
:101B1000BC2CDC0159962D913C915A972115310529
:101B200009F015C118968D919C911997681779073E
:101B30000CF0D7C11A968D919C91481759070CF05B
:101B4000D0C14C2C512CB6E0CB9E600D711D1124E0
:101B50007C876B87161617060CF0C3C1EA2DF0E0E0
:101B6000FA87E98793E0EE0FFF1F9A95E1F7F88B6C
:101B7000EF87CF01840F951F181619060CF0B1C11D
:101B8000A98DBA8D58968C91811104C0BFEABD15FC
:101B900008F4D394A98DBA8DED91FC91119702842C
:101BA000F385E02DCD011995B5E0DB9EC001112430
:101BB000E981FA81FC83EB83312C212C9C01225793
:101BC000394F388F2F8B4A2D50E05E8B4D8BEF892C
:101BD000F88DE20DF31D44919E828D82D12CC12C93
:101BE00069817A81620D731D7A8B698B842F90E0F5
:101BF0009C8B8B8BE98DFA8DA081B18140FF82C0D7
:101C0000F1E0BF126FC0AF126DC01C96ED91FC9158
:101C10002F813885A4014C0D5D1D69897A89898DD4
:101C20009A8D1995EB89FC89F595E7954E2F5FEF15
:101C3000C51AD50A6D817E818D899E89680F791FAD
:101C40007E836D8398E0C916D10481F6AFEF2A1A1E
:101C50003A0AEB81FC81E40DF51DFC83EB83F5E092
:101C60002F16310409F0B3CF2F813885261537059B
:101C7000B9F0A98DBA8DED91FC91B1E0BB1257C0BE
:101C8000AB1255C069817A816B5F7F4F0088F18903
:101C9000E02D830128E030E0A401898D9A8D19950B
:101CA000A98DBA8DED91FC9111970688F789E02DE9
:101CB000CD016A960FB6F894DEBF0FBECDBFDF919F
:101CC000CF911F910F91FF90EF90DF90CF90BF9039
:101CD000AF909F908F907F906F905F904F903F90CC
:101CE0002F9019941E96ED91FC91EF80F884098550
:101CF0001A8592014D815E816B817C81898D9A8DDF
:101D0000199590CF2F8138852615370509F48ACF8C
:101D100031E0B31207C0A31205C01C96ED91FC91EF
:101D2000930178CF1E96ED91FC917301E0CF6B8506
:101D30007C85641975090684F785E02D73010F858C
:101D400018899201A401898D9A8D1995A9CFF9015D
:101D500034969491329745915491D91AB7E0DB9E0D
:101D6000400D511D1124F901259134913C8B2B8B91
:101D7000FA0125903490FA0132967490319634919C
:101D8000398B329664903196449041E04C1518F0AE
:101D90004A1508F07FC0662D062C000C770B7C835B
:101DA0006B83842D042C000C990B9E838D83A98D4D
:101DB000BA8DED91FC9111970284F385E02DCD0150
:101DC0001995512CD12CC12CEA2DF0E0FA87E98726
:101DD0002B2D30E03C872B87A401440D511D47FC7F
:101DE0005A95588F4F8B69817A81660D711D67FCFA
:101DF0007A957E876D877989C71608F051CF2C2D8B
:101E000030E04D815E81420F531FA985BA854A9FFC
:101E1000C0014B9F900D5A9F900D1124FC01E80DBD
:101E2000F91DF88BEF87852D612C4F89588D420F56
:101E3000531F5E8B4D8B671408F050C044244394AD
:101E4000480E877041F4C1010196EB89FC89E20DCF
:101E5000F31DD4901C01D7FE19C0A98DBA8DED9148
:101E6000FC91662D70E0B1E0BB1219C0AB1217C037
:101E70002D853E85620F731F0484F585E02D2F812B
:101E800038854D895E89898D9A8D1995DD0C63940D
:101E9000842DD1CF1E821D821C821B8288CF4B8154
:101EA0005C81640F751FAB85BC856A9FC0016B9F09
:101EB000900D7A9F900D112469817A81680F791FA6
:101EC0000684F785E02DEF80F88409851A859D0149
:101ED0004F855889898D9A8D1995D8CF570CC39401
:101EE0008ACF6A960FB6F894DEBF0FBECDBFDF91E2
:101EF000CF911F910F91FF90EF90DF90CF90BF9007
:101F0000AF909F908F907F906F905F904F903F9099
:101F10002F9008958F929F92AF92CF92EF92FF925F
:101F20000F931F93CF93DF93EC01262F898D9A8D0A
:101F3000009709F051C06A30D1F41D861C868D8946
:101F400048E0849F900111248E859F85820F931F06
:101F50009F878E8781E090E0DF91CF911F910F9155
:101F6000FF90EF90CF90AF909F908F9008956D303D
:101F700089F3CC88AD888F898823C1F08C859D85B5
:101F800036E0C39E800D911D112448855985481760
:101F9000590764F44E855F851D861C8638E0A39E34
:101FA000C0011124840F951F9F878E87EA88FB88C4
:101FB000088919894E855F856C857D85CE010E94D3
:101FC000650D2C898C859D8546E0249F800D911D93
:101FD00011249D878C87BECF6A3069F41D861C86CC
:101FE000FC013896E4912D898E859F85E29F800DB6
:101FF000911D1124ADCF6D3009F4ACCFFC013496A6
:102000003491631708F4A6CF3296E491E61708F4EA
:10201000A1CFFC01329685909490462F431B342F1C
:1020200047E0349F800C911C1124F40132963491C6
:102030003196E4913323A9F1EE2399F1CC88F40190
:102040003596E491AD884F89442301F10E2E000CA2
:10205000FF0BE30FF11DCE9EA001CF9E500D11246A
:102060006C857D85460F571F6885798564177507D0
:102070006CF44E855F851D861C86FC013896E491C4
:10208000AE9E400D511D11245F874E87EA88FB8864
:10209000088919894E855F856C857D85CE010E94F2
:1020A000650DF4013496E4912C898C859D85E29F21
:1020B000800D911D11248DCF6F927F928F929F92F0
:1020C000AF92BF92CF92DF92EF92FF920F931F9346
:1020D000CF93DF93EC016B015A0139014801E8818C
:1020E000F9810284F385E02D1995E881F981028850
:1020F000F389E02D87019301A501B601CE01199561
:10210000A501480D591D41505109E881F981028806
:10211000F389E02D9301B601CE011995E881F9818B
:102120000088F189E02D9401A501B601CE01199531
:10213000C60CD71CB60161507109E881F98100888D
:10214000F189E02D9401A501CE011995E881F9816D
:102150000688F789E02DCE01DF91CF911F910F9175
:10216000FF90EF90DF90CF90BF90AF909F908F90B7
:102170007F906F9019946F927F928F929F92AF92FF
:10218000BF92CF92DF92EF92FF920F931F93CF9364
:10219000DF935C01EB016A01490138018701DC0131
:1021A000ED91FC916217730719F5641675062CF012
:1021B000962D872D3A01C92ED82E9601261937095A
:1021C0002F5F3F4F048CF58DE02DA301BE01C501AB
:1021D0001995DF91CF911F910F91FF90EF90DF90B4
:1021E000CF90BF90AF909F908F907F906F90089509
:1021F0004615570591F42617370724F0892D4B0112
:10220000C22FD82F9E01281939092F5F3F4F068C06
:10221000F78DE02DA601B401DACF0284F385E02D1D
:102220001995D501ED91FC910488F589E02D830184
:102230009401A601BE01C5011995D501ED91FC914E
:102240000688F789E02DC501DF91CF911F910F918D
:10225000FF90EF90DF90CF90BF90AF909F908F90C6
:102260007F906F901994EF92FF920F931F93DC0170
:102270001A960D911C911B9718962D913C911997C8
:10228000ED91FC9100A0F1A1E02D7B0150E040E038
:1022900070E060E019951F910F91FF90EF90089505
:1022A0004F925F926F927F928F929F92AF92BF9266
:1022B000CF92DF92EF92FF920F931F93CF93DF9312
:1022C0006C012B015A0139014801DC01ED91FC91AF
:1022D0000284F385E02D1995E201640C751CD6018A
:1022E000ED91FC91C615D7055CF40088F189E02DCD
:1022F00087019401A501BE01C60119952196EFCF72
:102300000688F789E02DC601DF91CF911F910F91CB
:10231000FF90EF90DF90CF90BF90AF909F908F9005
:102320007F906F905F904F9019948F929F92AF9291
:10233000BF92CF92DF92EF92FF920F931F93CF93B2
:10234000DF93EC015B014A016901E881F9810284B4
:10235000F385E02D199595012C0D3D1D2150310976
:10236000E881F9810488F589E02D78018401A401D0
:10237000B501CE011995E881F9810688F789E02D2C
:10238000CE01DF91CF911F910F91FF90EF90DF90E1
:10239000CF90BF90AF909F908F9019948F929F9203
:1023A000AF92BF92CF92DF92EF92FF920F931F9363
:1023B000CF93DF93EC015B014A0169017801E88169
:1023C000F9810284F385E02D1995C80CD91C86018A
:1023D00001501109E881F9810488F589E02D950102
:1023E000A401B501CE011995E881F9810688F78924
:1023F000E02DCE01DF91CF911F910F91FF90EF90D3
:10240000DF90CF90BF90AF909F908F901994EF92F4
:10241000FF920F931F93DC01ED91FC9100A0F1A1BD
:10242000E02D19951F910F91FF90EF9008950F9354
:102430001F93DC01ED91FC91068CF78DE02D199531
:102440001F910F9108950F931F93DC01ED91FC9163
:10245000048CF58DE02D19951F910F910895DC01E5
:10246000ED91FC910084F185E02D19943F924F92FB
:102470005F926F927F928F929F92AF92BF92CF9214
:10248000DF92EF92FF920F931F93CF93DF935C0144
:102490007B014A016901390187E0680E711C93E0F4
:1024A000759467949A95E1F72B01400E511E10E048
:1024B00000E0312CD0E0C0E0CE0187709927330CCA
:1024C000892B59F4FE0183E0F595E7958A95E1F7AC
:1024D000E00FF11FE80DF91D349037FE0AC021E02E
:1024E00030E0A701B5016C0F7D1F8EEE94E00E94D5
:1024F0002F122196CC16DD06F9F68FEFE81AF80AAE
:10250000060D171DE414F504A9F6DF91CF911F9174
:102510000F91FF90EF90DF90CF90BF90AF909F9082
:102520008F907F906F905F904F903F9008952F9283
:102530003F924F925F926F927F928F929F92AF9253
:10254000BF92CF92DF92EF92FF920F931F93CF93A0
:10255000DF9300D000D0CDB7DEB73C016A013E83E7
:102560002D83FC82EB825801A41AB50AB7FE03C082
:10257000B194A194B1088D809E80861A970A97FE27
:1025800003C09194819491088A149B045CF0902F6D
:10259000812F0D811E819D838E839C2D8D2D6B013E
:1025A000692F782F0C151D055CF09D818E817E832F
:1025B0006D83692F782F902F812F8601C92ED82EF9
:1025C0001601201A310A2B012D813E81421A530A2D
:1025D00057FE03C0519441945108710137FE03C066
:1025E0003FEFE31AF30AF594E7948D819E818617F5
:1025F00097075CF5A1E0B0E0BA83A983C016D106C5
:102600004CF1D301ED91FC910484F585E02D2B81F3
:102610003C81A8016D817E818A149B041CF04D8150
:102620005E81B801C3011995E418F508F7FE0AC0E8
:102630002D813E8189819A81280F391F3E832D8308
:10264000E20CF31C0F5F1F4FD9CF2FEF3FEF3A8300
:102650002983D4CF26960FB6F894DEBF0FBECDBF28
:10266000DF91CF911F910F91FF90EF90DF90CF906E
:10267000BF90AF909F908F907F906F905F904F90A2
:102680003F902F900895089520915A03260F3327E5
:10269000331F21323105ECF420918003FC0190E0DE
:1026A00080E0243069F082E00895A0915A032191DE
:1026B000AC01485C5C4FA40FB52FB11D2C93019663
:1026C000861798F380915A03680F60935A0380E04D
:1026D000089581E008951092800381E08093820341
:1026E0001092810361E084E10E94A50861E085E128
:1026F0000E94A508E9EBF0E080818E7F80838081D5
:102700008D7F808388E48093B80085E48093BC004B
:102710000895CF93DF9391E0909337038823B9F026
:10272000C091B800D091BA008091BC008A7B8093A0
:10273000BC0060E084E10E94A50860E085E10E94A1
:10274000A5080E946B13D093BA00C093B800DF9124
:10275000CF91089508950895E09131038091300359
:10276000E81730F4F0E0E05FFC4F808190E00895DE
:102770008FEF9FEF089590913103809130032FEFF9
:102780003FEF981748F4E92FF0E0E05FFC4F20811D
:1027900030E09F5F90933103C90108958091300329
:1027A00090913103891B990B0895CF92DF92EF929C
:1027B000FF920F931F93CF93DF937C01CB018A018C
:1027C00020910F04222389F0EB016B01C40ED51E6A
:1027D000CC15DD0569F06991D701ED91FC9101906F
:1027E000F081E02DC7011995F3CF642F0E944413A7
:1027F000C801DF91CF911F910F91FF90EF90DF9073
:10280000CF900895CF93DF931F92CDB7DEB7698342
:1028100020910F042223F9F020910C04203258F06B
:1028200021E030E0FC013383228390E080E00F90D0
:10283000DF91CF91089580910D04E82FF0E0E051F1
:10284000FD4F998190838F5F80930D0480930C04DA
:1028500081E090E0ECCF61E0CE0101960E9444134C
:10286000F7CFCF92DF92EF92FF920F931F93CF9308
:10287000DF93D0910C0481E0D13208F09CC0C0916C
:102880000E040E9462096B017C018091800381111A
:102890006CC082E08093800381E0809382038FEF9D
:1028A00080937F031092A403D093A303A0EFB2E020
:1028B000E3E8F3E080E0D8138DC01092A503809187
:1028C000A503CC0FC82BC093A50380918103813051
:1028D00009F084C0109281030E9462096B017C019F
:1028E0008091A5038093BB008091330390913403C2
:1028F000A0913503B0913603892B8A2B8B2BA1F045
:102900000E94620900913303109134032091350332
:10291000309136036C197D098E099F090617170738
:102920002807390708F442C08091BC0083FDD8CF46
:1029300085EC8093BC000E9462096B017C01809150
:102940008003823009F44CC080917F038F3F09F4EB
:1029500069C080917F03803209F466C080917F0353
:10296000803309F463C084E026C0809133039091E2
:102970003403A0913503B0913603892B8A2B8B2B1E
:1029800009F483CF0E94620900913303109134034C
:1029900020913503309136036C197D098E099F090A
:1029A000061717072807390708F06FCF8091320301
:1029B0000E94891385E010920D0410920C0410926D
:1029C0000F04DF91CF911F910F91FF90EF90DF9057
:1029D000CF9008959D9191938F5F6DCF85EEA9CF94
:1029E0008091330390913403A0913503B091360365
:1029F000892B8A2B8B2B09F4A2CF0E9462090091AC
:102A000033031091340320913503309136036C1950
:102A10007D098E099F09061717072807390708F04F
:102A20008ECFC4CF80E0C7CF82E0C5CF83E0C3CFD5
:102A3000EF92FF920F931F93CF93DF937C01C62FEA
:102A400080910B0590910C05009709F459C02091D5
:102A50000F0531E030930F0420930E0410920D0403
:102A600010920C04DC01ED91FC910190F081E02DBD
:102A700060E019958701EE24E394F12CD1E0C15078
:102A800080910B0590910C05CF3F91F1B0E2EB16D0
:102A9000F104D8F00E94311480910B0590910C053F
:102AA00020910F05D0930F0420930E0410920D0473
:102AB00010920C04DC01ED91FC910190F081E02D6D
:102AC00060E01995EE24E394F12C80910B05909130
:102AD0000C05F8016491DC01ED91FC910190F0810D
:102AE000E02D1995BFEFEB1AFB0A0F5F1F4FC7CF01
:102AF000DF91CF911F910F91FF90EF900C943114C3
:102B0000E0911B05F0911C05908180912105809535
:102B1000892380838701C15008F438C0F80184916B
:102B20002091090530910A05232B29F00E94450DBB
:102B30000F5F1F4FF0CF28E030E040E8E09117052D
:102B4000F091180590911F05582F5423D9F050810A
:102B5000952B9083E0911905F0911A059081509181
:102B60002005952B9083E0911905F0911A0550816D
:102B70009091200590959523908346952150310999
:102B8000E9F6D6CF508190959523E3CFDF91CF9191
:102B90001F910F91FF90EF9008951F93CF93DF93B4
:102BA000EC018D8D9E8D009721F1162F29A131E02A
:102BB00030930F0420930E0410920D0410920C0415
:102BC000DC01ED91FC910190F081E02D60E0199520
:102BD0008D8D9E8DDC01ED91FC910190F081E02DB9
:102BE000612F19958D8D9E8DDF91CF911F910C9442
:102BF0003114ADA5BEA59C918BA9809589238C939A
:102C00008B8D9C8D892B31F0862FDF91CF911F9179
:102C10000C94450D28E030E080E8A9A5BAA599A953
:102C2000462F4823C1F04C91942B9C93ABA5BCA597
:102C30009C914AA9942B9C93ABA5BCA54C919AA9B5
:102C4000909594239C9386952150310931F7DF911B
:102C5000CF911F9108954C9190959423E6CFDF92E8
:102C6000EF92FF920F931F93CF93DF9380910B0509
:102C700090910C05892B09F498C02091230530917F
:102C80002405409125055091260560E074E284EF0B
:102C900090E00E94662F2051310941095109569553
:102CA0004795379527952093B80065E084EA9CE026
:102CB0000E9418156091F20461508EEE94E00E941B
:102CC000CD152091F4043091F504C901079697FDC4
:102CD000079633E0959587953A95E1F72091F204B0
:102CE0003091F304829F8001839F100D929F100DFD
:102CF0001124C0910D05D0910E0580910B05909186
:102D00000C050C0F1D1F009709F48FC020910F05B3
:102D100031E030930F0420930E0410920D041092B2
:102D20000C04DC01ED91FC910190F081E02D60E458
:102D30001995EE24E394F12CDD24D39480910B05B6
:102D400090910C050C171D0709F446C0B0E2EB1674
:102D5000F104D8F00E94311480910B0590910C057C
:102D600020910F05D0920F0420930E0410920D04B1
:102D700010920C04DC01ED91FC910190F081E02DAA
:102D800060E41995EE24E394F12C80910B05909169
:102D90000C056991DC01ED91FC910190F081E02D31
:102DA0001995BFEFEB1AFB0AC9CF809109059091E5
:102DB0000A05892B31F080912C0590912D050E94F8
:102DC0004C0DE0911D05F0911E059081809122052A
:102DD00080958923808369CF0E94311480910B05EF
:102DE00090910C05892B09F461C020912705309141
:102DF00028054091290550912A0560E074E284EF8E
:102E000090E00E94662F20513109410951095695E1
:102E10004795379527952093B800DF91CF911F9163
:102E20000F91FF90EF90DF900895E0911B05F091D6
:102E30001C05808190912105892B80830C171D072B
:102E400069F289912091090530910A05232B19F027
:102E50000E94450DF3CF28E030E040E8E0911705EF
:102E6000F091180590911F05582F5423D9F05081E7
:102E7000952B9083E0911905F0911A05908150915E
:102E80002005952B9083E0911905F0911A0550814A
:102E90009091200590959523908346952150310976
:102EA000E9F6CCCF508190959523E3CFE0911D05B5
:102EB000F0911E05808190912205892B8083ADCFF2
:102EC0001F93CF93DF93EC01162F8D8D9E8D892B51
:102ED000B1F12DA93EA94FA958AD60E074E284EF8D
:102EE00090E00E94662F2051310941095109569501
:102EF0004795379527952093B80066EA111167EA40
:102F0000CE010E94CD158D8D9E8D892B41F129AD6D
:102F10003AAD4BAD5CAD60E074E284EF90E00E94AE
:102F2000662F20513109410951095695479537952A
:102F300027952093B800DF91CF911F9108958B8D35
:102F40009C8D892B21F08EAD9FAD0E944C0DEFA57D
:102F5000F8A990818CA9809589238083CECFEFA595
:102F6000F8A980819CA9892B8083E5CF90E080E03F
:102F700008951092E3021092E20208952091F40461
:102F80003091F504C901079697FD079623E09595C2
:102F900087952A95E1F72091F2043091F304829FFE
:102FA000A001839F500D929F500D112470E060E0AE
:102FB00080910D0590910E050C94B22F0E94A42FC4
:102FC000FB0101900020E9F73197AF01461B570B39
:102FD000DC01ED91FC910280F381E02D19948F9238
:102FE0009F92AF92BF92EF92FF920F931F93CF9356
:102FF000DF93CDB7DEB7A1970FB6F894DEBF0FBE53
:10300000CDBF7C01FA01CB0119A2223008F42AE0DD
:103010008E010F5D1F4F822E912CB12CA12CBF0170
:10302000A50194010E94662FF901CA016A300CF5CE
:10303000605DD8016E938D01232B242B252B79F70E
:1030400090E080E0109721F0BD01C7010E94E017D9
:10305000A1960FB6F894DEBF0FBECDBFDF91CF9122
:103060001F910F91FF90EF90BF90AF909F908F9026
:103070000895695CDECFCF93DF93BC0188E394E0D1
:103080000E94E017EC0167E672E088E394E00E949A
:10309000E0178C0F9D1FDF91CF91089588EEC82E09
:1030A00083E0D82EE12CF12C90E6892E9AEE992E11
:1030B000A12CB12CCCE3D0E011E08FB7F894409074
:1030C000D0035090D1036090D2037090D3038FBF90
:1030D0008091EC029091ED02A091EE02B091EF028E
:1030E000A3019201281B390B4A0B5B0BDA01C901C2
:1030F000883E9340A105B105A8F14092EC025092A0
:10310000ED026092EE027092EF02C301B201A701DC
:1031100096010E94662F2093E8023093E9024093C3
:10312000EA025093EB02C301B201A50194010E948F
:10313000662F3093E7022093E602C901BE010E9488
:10314000882F7093E5026093E4028091E2029091EF
:10315000E30201969093E3028093E20203972CF03E
:103160001093E1020E949E25A8CF1092E102FACFAF
:103170003F924F925F926F927F928F929F92AF9207
:10318000BF92CF92DF92EF92FF920F931F93CF9354
:10319000DF938091A9039091AA030E94D7268130E2
:1031A00009F0A8C033243394C1E0D0E08AE5882E2A
:1031B000912C0EE110E093E2E92EF12C28E1C22ED1
:1031C000D12C3CE3A32EB12C4CE3442E512C612C8A
:1031D000712C8091E10281117EC00E94BE17309255
:1031E000020530920305D093FB04C093FA04D093F8
:1031F000FD04C093FC046AE672E08EEE94E00E9447
:10320000E0174091A7035091A80370E060E02AE026
:103210008EEE94E00E94EF179092FB048092FA04E5
:10322000D093FD04C093FC0460E772E08EEE94E05E
:103230000E94E0174091DF025091E00270E060E0F0
:103240002AE08EEE94E00E94EF171093FB040093A7
:10325000FA04F092FD04E092FC048091E402909163
:10326000E502B6010E94882FAC0170E060E02AE020
:103270008EEE94E00E94EF176AE38EEE94E00E94D7
:103280008A0F8091E6029091E702B5010E94882F93
:10329000AC0170E060E02AE08EEE94E00E94EF174F
:1032A0006AE38EEE94E00E948A0F6091E8027091CA
:1032B000E9028091EA029091EB02A30192010E943F
:1032C000662FAB01BC012AE08EEE94E00E94EF175E
:1032D0000E942F167ECF0E94BE17309202053092B8
:1032E0000305D093FB04C093FA04D093FD04C0936C
:1032F000FC04EECF8091A9039091AA03DF91CF91B6
:103300001F910F91FF90EF90DF90CF90BF90AF9003
:103310009F908F907F906F905F904F903F900C9414
:10332000AC2583E792E00E943B18C0E480917B00CB
:10333000886080937B00C0937C0080917A008064D9
:1033400080937A0080917A0086FDFCCF809178008E
:103350009091790018161906BCF48091A9039091F8
:10336000AA030E94D726813079F48091DF029091E0
:10337000E00201969093E0028093DF028091A9031E
:103380009091AA030E94AC250E949E25CFCF85ED87
:103390008093BC008091330390913403A091350356
:1033A000B09136030796A11DB11D23E0B695A795F0
:1033B000979587952A95D1F72091BC0024FD03C0ED
:1033C000109280030895409133035091340360912B
:1033D000350370913603452B462B472B69F3009735
:1033E000A105B10541F02AE22A95F1F700C0019745
:1033F000A109B109E1CF809132030C9489130F9395
:103400001F93CF93DF93E0914804F091490482E049
:103410008083E0914404F09145041082E0914604D9
:10342000F09147048FEC808310925004E0914C049B
:10343000F0914D0486E08083E0914A04F0914B04C2
:10344000808180618083E0914A04F0914B04808107
:1034500088608083E0914A04F0914B048081806809
:103460008083E0914A04F0914B0480818F7D8083BA
:103470008FE190E00E94842AEC01009741F099834B
:10348000888381E08B8F1C8ECE010E94E222D09334
:10349000AA03C093A903209719F0CE010E94AC257E
:1034A00061E08DE00E94310962E082E00E94310912
:1034B00089EB97E1909302028093010280916A0068
:1034C0008C7F826080936A00EC9A80910D059091C8
:1034D0000E05892B31F52091F4043091F504C901D2
:1034E000079697FD0796B3E095958795BA95E1F70E
:1034F0002091F2043091F304AC01429FC001439F3C
:10350000900D529F900D11240E94412E90930E0514
:1035100080930D05892B29F485E992E00E943B18E0
:10352000FFCF0E94BE172091F4043091F5048091E2
:10353000F2049091F304B901213231050CF435C144
:103540006054710977FF02C06F5F7F4F7595679573
:103550008255910997FD019600E410E022E530E0E4
:103560004EEC53E0959587950E94361282E0809349
:10357000100580910B0590910C05892B09F428C149
:103580008DE380930F051092310310923003109257
:103590000D0410920C040E946B138AEA93E190933D
:1035A0005903809358038BEA93E190935D038093D2
:1035B0005C038091160587FD1EC061E00E94310901
:1035C00061E0809116050E94A50861E070E080E04E
:1035D00090E00E94870960E0809116050E94A5088E
:1035E0006AE070E080E090E00E94870961E08091ED
:1035F00016050E94A50880910B0590910C05892B5A
:1036000009F4A5C120912305309124054091250599
:103610005091260560E074E284EF90E00E94662FEE
:1036200020513109410951095695479537952795FC
:103630002093B80064E08AEE91E00E941815609132
:10364000F40461508EEE94E00E94CD1564E086EEA5
:1036500091E00E9418158091100564E1813009F411
:1036600060E18EEE94E00E94CD1564E082EE91E080
:103670000E9418158FE880932B058091F204909199
:10368000F3048038910509F07BC18091F404909196
:10369000F5048034910509F083C1809110058130D3
:1036A00009F46CC18FEC80932B05C2E16AED8EEEBC
:1036B00094E00E94CD156C2F8EEE94E00E94CD1503
:1036C00061E88EEE94E00E94CD1560912B058EEEA0
:1036D00094E00E94CD1569ED8EEE94E00E94CD1528
:1036E0008091100561EF813009F462E28EEE94E082
:1036F0000E94CD1566E08CED91E00E941815809136
:103700000B0590910C05892B09F44EC120912705DA
:10371000309128054091290550912A0560E074E216
:1037200084EF90E00E94662F205131094109510930
:1037300056954795379527952093B8000E94BE1758
:1037400081E090E090930105809300059093FF0441
:103750008093FE048FEA92E00E943B180DED12E088
:1037600021E040E050E168EB72E088EB98E10E94D4
:10377000B32A0BED12E022E040E850E060EC72E08A
:103780008EE498E10E94B32A10E000E023E048EEC6
:1037900053E065EC72E081E999E10E94B32ADF9180
:1037A000CF911F910F910C94E12B6052710977FF1B
:1037B00002C06F5F7F4F759567958357910997FD9D
:1037C000019600E210E023E730E04EEE51E0CACE71
:1037D00061E0809114050E94310961E08091150536
:1037E0000E94310980911405082E000C990BFC01F0
:1037F000EE52F44FE491F0E0EE0FFF1FE854F44F67
:103800002591349130931C0520931B05FC01E85E43
:10381000F34FE491E093210580911505082E000CEB
:10382000990BFC01EE52F44FE491F0E0EE0FFF1F14
:10383000E854F44FA591B491B0931E05A0931D05D3
:10384000FC01E85EF34FE491E09322058C91E82BB4
:10385000EC938091090590910A05892B09F434C0F5
:10386000CFB7F8948091DA02811127C0E7E0FCE03D
:103870008491EDE4FCE09491E82FF0E0EE0FFF1F5F
:10388000E256F44FA591B491EC91E92321F461E063
:1038900085E30E94A50861E085E30E9431098CB5AB
:1038A00080618CBD8CB580648CBD61E084E30E9436
:1038B000310961E083E30E9431098091DA028F5F70
:1038C0008093DA02CFBF75CE61E0809112050E942D
:1038D000310961E0809113050E9431098091120540
:1038E000082E000C990BFC01EE52F44FE491F0E02D
:1038F000EE0FFF1FE854F44F2591349130931805D3
:1039000020931705FC01E85EF34FE491E0931F0557
:1039100080911305082E000C990BFC01EE52F44F18
:10392000E491F0E0EE0FFF1FE854F44FA591B4913D
:10393000B0931A05A0931905FC01E85EF34FE491DA
:10394000E09320058C91E095E823EC9332CE8091B2
:10395000090590910A05892B31F080912C059091F1
:103960002D050E944C0DE0911D05F0911E059081E2
:10397000809122058095892380835CCE8FE993CE48
:103980008036910569F48091F4049091F504409794
:1039900039F480911005813029F08FEA80932B054E
:1039A000C2E084CE80E1FACFE0911D05F0911E05C2
:1039B000808190912205892B8083C0CE1F920F9227
:1039C0000FB60F9211242F933F938F939F93AF9332
:1039D000BF938091D0039091D103A091D203B09175
:1039E000D3033091CF0323E0230F2D3758F50196F1
:1039F000A11DB11D2093CF038093D0039093D103D9
:103A0000A093D203B093D3038091D4039091D503B4
:103A1000A091D603B091D7030196A11DB11D80934B
:103A2000D4039093D503A093D603B093D703BF914B
:103A3000AF919F918F913F912F910F900FBE0F905B
:103A40001F90189526E8230F0296A11DB11DD2CF15
:103A50001F920F920FB60F9211240BB60F922F9355
:103A60003F934F935F936F937F938F939F93AF9306
:103A7000BF93EF93FF93E0910F02F091100219951D
:103A8000FF91EF91BF91AF919F918F917F916F9136
:103A90005F914F913F912F910F900BBE0F900FBEF2
:103AA0000F901F9018951F920F920FB60F9211242E
:103AB0000BB60F922F933F934F935F936F937F9328
:103AC0008F939F93AF93BF93EF93FF93E0910D027A
:103AD000F0910E021995FF91EF91BF91AF919F91D7
:103AE0008F917F916F915F914F913F912F910F90A7
:103AF0000BBE0F900FBE0F901F9018951F920F9244
:103B00000FB60F9211240BB60F922F933F934F9342
:103B10005F936F937F938F939F93AF93BF93EF9335
:103B2000FF93E0910302F09104021995FF91EF9148
:103B3000BF91AF919F918F917F916F915F914F91C5
:103B40003F912F910F900BBE0F900FBE0F901F90C3
:103B500018951F920F920FB60F9211240BB60F9269
:103B60002F933F934F935F936F937F938F939F9385
:103B7000AF93BF93EF93FF93E0910102F0910202A4
:103B80001995FF91EF91BF91AF919F918F917F9187
:103B90006F915F914F913F912F910F900BBE0F90BE
:103BA0000FBE0F901F9018951F920F920FB60F9295
:103BB00011240BB60F922F933F934F935F936F9304
:103BC0007F938F939F93AF93BF93EF93FF93E09176
:103BD0000B02F0910C021995FF91EF91BF91AF91FB
:103BE0009F918F917F916F915F914F913F912F9115
:103BF0000F900BBE0F900FBE0F901F9018951F9245
:103C00000F920FB60F9211240BB60F922F933F9382
:103C10004F935F936F937F938F939F93AF93BF93D4
:103C2000EF93FF93E0910902F0910A021995FF9139
:103C3000EF91BF91AF919F918F917F916F915F9124
:103C40004F913F912F910F900BBE0F900FBE0F9091
:103C50001F9018951F920F920FB60F9211240BB65A
:103C60000F922F933F934F935F936F937F938F9315
:103C70009F93AF93BF93EF93FF93E0910702F0916F
:103C800008021995FF91EF91BF91AF919F918F918C
:103C90007F916F915F914F913F912F910F900BBE4C
:103CA0000F900FBE0F901F9018951F920F920FB696
:103CB0000F9211240BB60F922F933F934F935F9364
:103CC0006F937F938F939F93AF93BF93EF93FF93E4
:103CD000E0910502F09106021995FF91EF91BF91D5
:103CE000AF919F918F917F916F915F914F913F9194
:103CF0002F910F900BBE0F900FBE0F901F90189535
:103D00001F920F920FB60F9211240BB60F922F93A2
:103D10003F934F935F936F937F938F939F93AF9353
:103D2000BF93EF93FF9388E394E00E942E0AFF91E4
:103D3000EF91BF91AF919F918F917F916F915F9123
:103D40004F913F912F910F900BBE0F900FBE0F9090
:103D50001F9018951F920F920FB60F9211240BB659
:103D60000F922F938F939F93EF93FF93E0914804CB
:103D7000F09149048081E0914E04F0914F0482FD5E
:103D80001DC09081809151048F5F8F7320915204E8
:103D9000821741F0E0915104F0E0E85CFB4F958F11
:103DA00080935104FF91EF919F918F912F910F90EC
:103DB0000BBE0F900FBE0F901F9018958081F2CF11
:103DC0001F920F920FB60F9211240BB60F922F93E2
:103DD0003F934F935F936F937F938F939F93AF9393
:103DE000BF93EF93FF938091B900887F803609F4E9
:103DF0004DC008F040C0883209F4A9C028F58031D0
:103E000009F49DC0C8F4882309F4FBC0883009F484
:103E100096C0FF91EF91BF91AF919F918F917F914C
:103E20006F915F914F913F912F910F900BBE0F902B
:103E30000FBE0F901F901895883109F488C080320A
:103E400041F780937F0314C0803409F49DC040F48F
:103E50008033B9F38833E9F680937F0385ECB0C0F3
:103E6000803509F485C0883509F496C0883489F610
:103E70000E94C719CECF883909F48CC038F588372D
:103E800029F050F4883611F0803719F683E08093DA
:103E9000800310927E0357C0883809F47BC08039B4
:103EA00019F0803809F0B5CF80917E03803208F098
:103EB00071C0E0917E0381E08E0F80937E0380913C
:103EC000BB00F0E0E25AFC4F80833DC0803B39F0FC
:103ED000E0F4803A09F479C0883A09F09ACF84E096
:103EE0008093800310925B0310925A03E091580371
:103EF000F0915903199580915A0381110FC081E007
:103F000080935A031092380309C0803C09F4A6CF6D
:103F1000883C09F4A3CF883B09F07BCFE0915B0399
:103F200081E08E0F80935B03F0E0E85CFC4F8081C2
:103F30008093BB0090915B0380915A0329C08091CC
:103F4000A5038093BB0085EC8093BC0062CF909169
:103F5000A4038091A303981758F5E091A40381E08E
:103F60008E0F8093A403F0E0ED57FC4F8081E9CFE2
:103F7000E091A40381E08E0F8093A4038091BB00A5
:103F8000F0E0ED57FC4F80839091A4038091A30350
:103F90009817C8F285E8D8CFE091A40381E08E0F8E
:103FA0008093A4038091BB00F0E0ED57FC4F808329
:103FB0008091820381115CCF81E08093810384EA48
:103FC0008093BC001092800324CF85EC8093BC00CA
:103FD0001092800380917E03803230F4E0917E0362
:103FE000F0E0E25AFC4F108260917E0370E0E091B5
:103FF0005C03F0915D038EE593E0199510927E03CA
:1040000008CF10927F0334CFE091DA03F091DB0305
:104010008081811107C08FEF9FEF9093C60380933B
:10402000C5030895E091DA03F091DB030580F68182
:10403000E02D80819181F1CFFC01DB010FB6F89476
:104040000F9240911004509111042D913C911197C1
:104050002F3F320711F181819281609112047081AA
:10406000761749F04817590730F01D921C9281E0ED
:104070000F900FBE0895481B590B42175307A8F71E
:10408000241B350B2D933C938091120480838091E7
:104090001004909111049283818380E0E9CFCF9343
:1040A000DF93DC011596ED91FC910680F781E02D00
:1040B000A489B5898685978520893189EC013D835E
:1040C0002C83C089D1899B838A83CF010C9611965A
:1040D0002D913C9112972817390721F41296DC9301
:1040E000CE931197158A148A2C9121502C932091EC
:1040F000C403211157C0A285B3858481958126818F
:104100003781EC013D832C83C681D7819B838A83D1
:10411000CF01029611962D913C91129728173907DD
:1041200021F41296DC93CE931197138612862C916C
:1041300021502C93C689209137042C1710F4C0937A
:10414000370429E02C9FE0011124CD5EDB4F09806C
:10415000DA81C02DD583C4834C815D81578346832A
:10416000AC81BD8113969C938E9312979D838C8313
:10417000A689A29FD0011124AD5EBB4FB387A28751
:104180008C918F5F8C93A091D602B091D7029689C3
:1041900056968C91891730F581E08093C303DF91A7
:1041A000CF910895A091EF03B091F003B787A68750
:1041B00014962D913C911597318B208B1496CD91AF
:1041C000DC9115979B838A8315969C938E93149705
:1041D0008EEE93E0958B848B8091EE038F5F8093BE
:1041E000EE03D1CF80E0DBCF0FB6F8940F92809131
:1041F0001004909111040F900FBE08958091C40394
:104200008F5F8093C40308950FB6F8940F92FC015A
:10421000928D0F900FBE81E0911180E00895EF9292
:10422000FF920F931F93CF93DF93EC010FB6F89497
:104230000F921E8D7C0181E1E80EF11C01E0111648
:10424000D4F08FEF8E8F0F900FBE0FB6F8940F92B1
:104250001D8D7E0188E0E80EF11C01E01116B4F01E
:104260008FEF8D8F0F900FBEDF91CF911F910F9128
:10427000FF90EF9008958989882319F3C7010E9460
:104280004F2081110093C3031150D9CF8885882313
:1042900039F3C7010E944F2081110093C3031150CD
:1042A000DDCFCF93DF93FC01A085B185828193811F
:1042B00024813581EC013D832C83C481D5819B838E
:1042C0008A8311968D919C9112978E179F0721F4E6
:1042D0001296DC93CE931197118610868C918150A3
:1042E0008C938C91DF91CF9108950F931F93CF936F
:1042F000DF938C01FB0180819181D80113968F3F60
:104300009807F1F4E801AF81B88512968D919C91E0
:10431000139793838283EC01FD83EC83B583A4839D
:104320001396FC93EE93129711870087F801808112
:104330008F5F8083DF91CF911F910F910895D901F5
:1043400012962D913C911397E90148815981841768
:104350009507A8F7DACFFC01738362839187808782
:104360004617570790F0421B530B848595854817D5
:104370005907C8F4BF016E5F7F4F8091CB039091C6
:10438000CC030E94752180E008954217530718F46A
:104390006217730740F4BF016E5F7F4F8091CD03BA
:1043A0009091CE03EECF81E00895EF92FF920F93AC
:1043B0001F93CF93DF93EC018B017A016C857D8590
:1043C000600F711F9801A701CE010E94AB218111DE
:1043D00007C0DF91CF911F910F91FF90EF9008954B
:1043E0008C859D85080F191FE889F989CE011995DB
:1043F000E5CFEF92FF920F931F93CF93DF938C0142
:104400007B01E091CD03F091CE030580F681E02D94
:10441000C681D781CE0102960E9451218A8982FFEE
:104420000FC0A701B801CE010E94D521E889F98902
:10443000CE01DF91CF911F910F91FF90EF901994D2
:104440008E7F8A8BF3CFE091CD03F091CE038081F4
:1044500081110DC08091CB039091CC039093CE033A
:104460008093CD03F093CC03E093CB0308950580B4
:10447000F681E02D6FEF7FEF808191810E94F9211D
:10448000E2CFFF920F931F93CF93DF93EC01F62EB1
:1044900000911004109111048091D6029091D702DE
:1044A00002960E945121CF3FDC07E9F5FF20D9F1A8
:1044B000E091DD03F091DE03A091D602B091D70226
:1044C0001596FC93EE931497A091D602B091D70263
:1044D0008481958117969C938E9316978091D6022E
:1044E0009091D702A481B581029613969C938E93E6
:1044F00012978091D6029091D70202969583848379
:10450000E091D602F091D7028CED93E093878287F9
:104510008091DC038F5F8093DC03DF91CF911F914B
:104520000F91FF900895C00FD11FE091D602F09136
:10453000D702D383C2836091D6027091D702C0178D
:10454000D10768F48091D8039091D9036E5F7F4FB3
:10455000DF91CF911F910F91FF900C947521809165
:10456000DA039091DB036E5F7F4F0E94752180918B
:10457000C5039091C603C817D90778F6D093C60330
:10458000C093C503CACFCF93DF93EB016091D602EE
:104590007091D702645F7F4F0E94752161E0CE0168
:1045A000DF91CF910C944122FC0103969283818389
:1045B0002FEF3FEF34832383968385839087878310
:1045C00010820895CF93DF93EC010FB6F8940F9209
:1045D000888199812B8D4C8DBC01249F600D711DAC
:1045E00011247D836C831A8E9B838A832150330B25
:1045F000429FB001439F700D1124860F971F9F8328
:104600008E838FEF8D8F8E8FCE0108960E94D422DD
:10461000CE0141960E94D4220F900FBE81E0DF911F
:10462000CF9108950F920FB6F8940F920BB60F9298
:104630000CB60F921F9211242F923F924F925F92CD
:104640006F927F928F929F92AF92BF92CF92DF92A2
:10465000EF92FF920F931F932F933F934F935F938C
:104660006F937F938F939F93AF93BF93CF93DF937A
:10467000EF93FF93A091D602B091D7020DB60D92A1
:104680000EB60D928091C403882321F081E08093BF
:10469000C3035DC01092C303A091D602B091D702AC
:1046A000E091D602F091D7022D913C918789908DAF
:1046B00082179307A8F08091D6029091D70280913B
:1046C000D6029091D702279A2F9A2FEF87EA91E688
:1046D000215080409040E1F700C000001F9AF5CFC4
:1046E0002091370489E001C02150422F50E0849F7F
:1046F000F001859FF00D1124ED5EFB4F9081992311
:1047000099F3A181B28112966D917C91728361833C
:10471000289FC00111248A5E9B4F6817790721F4F6
:10472000858196819283818389E0849FF001859FB2
:10473000F00D1124ED5EFB4F0180F281E02D8681AA
:1047400097819093D7028093D60220933704A0914B
:10475000D602B091D702CD91CDBFDD91DEBFFF91E2
:10476000EF91DF91CF91BF91AF919F918F917F9109
:104770006F915F914F913F912F911F910F91FF90FA
:10478000EF90DF90CF90BF90AF909F908F907F90F1
:104790006F905F904F903F902F901F900F900CBEA6
:1047A0000F900BBE0F900FBE0F9008958F929F92A7
:1047B000BF92CF92DF92EF92FF920F931F93CF930E
:1047C000DF930FB6F8940F928091C40381508093C9
:1047D000C4038091C403882379F080E00F900FBE5A
:1047E000DF91CF911F910F91FF90EF90DF90CF90CD
:1047F000BF909F908F90089580910B04882369F358
:10480000E090F303F090F403F0E0E0E039E041E001
:104810008091EE0381115EC0EF2B11F00E94042005
:10482000E090C103F090C203E114F10409F47DC1EA
:1048300089E0D82ECC24C3940FEF1FEF8091C403DE
:10484000811161C1C0911004D09111044E018FEF0C
:10485000881A980A9092110480921004811491048D
:10486000B9F48091DA039091DB032091D803309161
:10487000D9033093DB032093DA039093D903809319
:10488000D803809112048F5F809312040E94042049
:104890008091C5039091C603B12C8816990608F043
:1048A00026C1E091D602F091D702E689DE9EF001A2
:1048B0001124ED5EFB4F8081823010F0BB24B39455
:1048C0008091C303811103C0BB2009F425C1C092AC
:1048D000C30322C1D7011696ED91FC91A489B58935
:1048E0006685778580899189EB019D838C8380899A
:1048F0009189EC017B836A83BF01645F7F4F1196CE
:104900000D911C9112970617170721F412969C938C
:104910008E931197158A148A8C9181508C93A2855D
:10492000B3858481958166817781EC017D836C8379
:1049300066817781EB019B838A83CF010296119672
:104940000D911C9112970817190721F412967C9368
:104950006E931197138612862C9121502C93A68961
:10496000209137042A1710F4A09337043A9FD001FE
:104970001124AD5EBB4F11960D90BC91A02DB58357
:10498000A48314966D917C91159777836683149612
:104990006D917C911597EB019B838A8315969C936F
:1049A0008E9314979689939FD0011124AD5EBB4FCF
:1049B000B387A2878C918F5F8C93A091D602B09120
:1049C000D70256968C91891708F022CF4093C303E3
:1049D0001FCFE091DA03F091DB030580F681E02D33
:1049E0000680F781E02D828193818816990628F44C
:1049F0009093C6038093C50354CFC285D385848129
:104A0000958126813781DC0115963C932E9314976E
:104A100026813781D90113969C938E931297CF01EB
:104A2000029649815A814817590711F43A8329831C
:104A300013861286288121502883A489B58910976E
:104A4000F9F02685378540895189E9015D834C83DA
:104A500040895189EA013B832A8311966D917C91AB
:104A600012979F01245F3F4F6217730721F412963C
:104A70005C934E931197158A148A2C9121502C9394
:104A8000A689209137042A1710F4A0933704DA9EE0
:104A9000D0011124AD5EBB4F11960D90BC91A02D9D
:104AA000B583A48314962D913C9115973783268363
:104AB00014962D913C911597E9019B838A83159655
:104AC0009C938E93149796899D9DD0011124AD5E81
:104AD000BB4FB387A2878C918F5F8C93E091D602F6
:104AE000F091D7028689891710F4BB24B394E09122
:104AF000DA03F091DB03808181116BCF1093C60341
:104B00000093C503CECE8091C1039091C20301965C
:104B10009093C2038093C103D1E0ED1AF10809F02C
:104B20008DCE1092C2031092C1038091C3038823DB
:104B300009F453CE0E94122381E050CE0E94FE2041
:104B400060E086E090E00E9441220E94D62381111D
:104B500002C00E9412230895AF92BF92DF92EF929B
:104B6000FF920F931F93CF93DF9300D01F921F925A
:104B7000CDB7DEB78C011D821C8280E0780198E001
:104B8000E90EF11C0FB6F8940F92D8015A962C91A9
:104B90005A975B969C915B97291708F0B0C05A967C
:104BA000DC905A975C964C915C9741118CC08D912A
:104BB0009C91892B11F080E00AC0F801E480F58017
:104BC000E114F10431F580E0F80115821482D394E8
:104BD000D8015A96DC925A9751969C91992321F0CC
:104BE000C80141960E944F2081110E9412230F900C
:104BF0000FBE81E00F900F900F900F900F90DF91FC
:104C0000CF911F910F91FF90EF90DF90BF90AF90E9
:104C10000895D70192968C919297815092968C9399
:104C2000929756962C91569791969C91291759F2E6
:104C30008111C9CF5701B2E0AB0EB11CC5010E9472
:104C40005121F70181A1868B482F50E024E030E00C
:104C5000241B350B3587248790913704981710F45F
:104C60008093370489E0849FD001859FB00D112483
:104C7000AD5EBB4F11960D90BC91A02DF701B58391
:104C8000A48314962D913C9115973783268314960F
:104C9000ED91FC911597B382A2821596BC92AE92CB
:104CA0001497D7015696EC915697E89FF00111247E
:104CB000ED5EFB4F1B96FC93EE931A9780818F5FFE
:104CC000808381E081CF50E070E060E012968D91AA
:104CD0009C910E94A92FF801848D22813381820F3B
:104CE000932F911D938382832481358182179307AB
:104CF00008F461CF80819181938382835CCF2C8182
:104D00003D81232B21F40F900FBE80E073CF8111E2
:104D100009C080911204898380911004909111043C
:104D20009B838A830F900FBE0E94FE200FB6F894DB
:104D30000F92F801858D8F3F09F4158ED8015E968C
:104D40008C915E978F3F11F45E961C920F900FBE70
:104D5000BE016C5F7F4FCE0101960E941C20811125
:104D600020C00FB6F8940F92F801928D838D0F90AA
:104D70000FBE981310C06C817D81C7010E94C322B1
:104D8000C8010E940F210E94D623811102C00E94F7
:104D9000122381E0F7CEC8010E940F210E94D62382
:104DA000F8CFC8010E940F210E94D623AECF7F9278
:104DB0008F929F92AF92BF92CF92DF92EF92FF922B
:104DC0000F931F93CF93DF9300D01F921F92CDB705
:104DD000DEB78C018FEF9FEF9D838C83D12C90E009
:104DE000580121E1A20EB11C89E0782E24E0822E28
:104DF000912C0FB6F8940F92D8015A968C915A972D
:104E0000882309F440C081505A968C935A978D910B
:104E10009C91892BA1F48091D6029091D702892B85
:104E200039F0E091D602F091D70282A18F5F82A380
:104E30008091D6029091D702F80195838483D8019E
:104E400018968C91882339F0C80108960E944F204B
:104E500081110E9412230F900FBEDD24D3948D2D5B
:104E60000F900F900F900F900F90DF91CF911F91A7
:104E70000F91FF90EF90DF90CF90BF90AF909F90F9
:104E80008F907F9008952C813D81232B21F40F90EA
:104E90000FBED12CE4CF911109C0809112048983F7
:104EA00080911004909111049B838A830F900FBE10
:104EB0000E94FE200FB6F8940F92F801858D8F3F67
:104EC00009F4158ED8015E968C915E978F3F11F490
:104ED0005E961C920F900FBEBE016C5F7F4FCE019D
:104EE00001960E941C208111AEC0C8010E940421BD
:104EF000882309F4A2C0F80180819181892B09F0EF
:104F000076C00FB6F8940F92E480F580E114F104B6
:104F100009F491C0F7018689E091D602F091D70299
:104F20009689891708F07BC0D7011C962D913C917A
:104F30001D9737FD0CC0E091D602F091D7029689FB
:104F40009401291B31091D963C932E931C97879D34
:104F5000C00111248D5E9B4FF701228533852817F0
:104F6000390709F054C06701F2E0CF0ED11CC60129
:104F70000E945121E091D602F091D702E689D70133
:104F80005696EC93809137048E1710F4E093370413
:104F90007E9EF0011124ED5EFB4F0180F281E02D39
:104FA000D7011596FC93EE931497848195811796FB
:104FB0009C938E931697A481B5811396DC92CE9222
:104FC0001297D582C482D7015696EC915697E79DE9
:104FD000F0011124ED5EFB4F1B96FC93EE931A97A4
:104FE00080818F5F8083DD24D3940F900FBE6C810E
:104FF0007D81C5010E94C322C8010E940F210E9429
:10500000D623811102C00E94122391E0F2CEE091DA
:10501000D602F091D7028689F701868BE4CFE09122
:10502000D602F091D702DD24D394D70191969C91BA
:1050300086899817D0F2D12CD8CFC8010E940F21B1
:105040000E94D623E2CFC8010E940F210E94D623DE
:10505000C8010E9404218823C1F2DD2009F4FFCE9B
:105060000FB6F8940F92F8018189882309F47BC068
:105070000688F789E02D908184E0891BD801149679
:105080000D911C910115110509F401CFF80191A1B1
:10509000981708F4982FD80156968C915697981720
:1050A00009F4F5CE92962C919297213009F0EFCE2B
:1050B00056969C9356971C962D913C911D9737FDC3
:1050C00008C024E030E0291B31091D963C932E9343
:1050D0001C97B9E08B9FC00111248D5E9B4FF80196
:1050E000228533852817390709F0D1CE7801F2E0FF
:1050F000EF0EF11CC7010E945121F801A689809191
:1051000037048A1710F4A093370489E08A9FD001EE
:105110001124AD5EBB4F11960D90BC91A02DF801EE
:10512000B583A48314962D913C91159737832683DC
:105130001496ED91FC911597F382E2821596FC92FC
:10514000EE921497D8015696EC915697E89FF0018D
:105150001124ED5EFB4F1B96FC93EE931A97808112
:105160008F5F808394CE80E089CF0F920FB6F89442
:105170000F920BB60F920CB60F921F9211242F9222
:105180003F924F925F926F927F928F929F92AF92D7
:10519000BF92CF92DF92EF92FF920F931F932F93C4
:1051A0003F934F935F936F937F938F939F93AF93AF
:1051B000BF93CF93DF93EF93FF93A091D602B0916B
:1051C000D7020DB60D920EB60D9213BE8091C40398
:1051D0008111F9C08091100490911104019690936F
:1051E000110480931004009781F52091DA03309127
:1051F000DB034091D8035091D9035093DB034093D4
:10520000DA033093D9032093D803209112042F5F3F
:1052100020931204E091DA03F091DB032081211145
:1052200007C02FEF3FEF3093C6032093C5030DC097
:10523000E091DA03F091DB030580F681E02D208117
:1052400031813093C6032093C5032091C50330916B
:10525000C6038217930710F420E0A1C020E039E0D4
:10526000D32EE091DA03F091DB033081311107C0D6
:105270008FEF9FEF9093C6038093C50390C0E0919A
:10528000DA03F091DB030580F681E02D0680F781DB
:10529000E02D428153818417950728F45093C6036B
:1052A0004093C5037CC0A285B38544815581668146
:1052B0007781EA017D836C8366817781EB015B8373
:1052C0004A83AF014E5F5F4F11960D911C9112976B
:1052D0000417150721F412967C936E931197138689
:1052E00012863C9131503C93A489B5891097F9F00E
:1052F0006685778500891189EB011D830C83008900
:105300001189E8017B836A831196ED90FC901297D6
:10531000BF01645F7F4FE616F70621F412961C93D7
:105320000E931197158A148A3C9131503C93A689AB
:10533000309137043A1710F4A0933704DA9ED00165
:105340001124AD5EBB4F11960D90BC91A02DB5837D
:10535000A48314966D917C91159777836683149638
:105360006D917C911597EB015B834A8315965C9355
:105370004E93149746894D9DD0011124AD5EBB4FCD
:10538000B387A2873C913F5F3C93E091D602F091B6
:10539000D7023689341708F064CF21E062CFE0915C
:1053A000D602F091D702E689D9E0ED9FF0011124F1
:1053B000ED5EFB4F8081823008F021E08091C303D5
:1053C00081110EC00AC08091C1039091C203019661
:1053D0009093C2038093C10368C0222309F465C07F
:1053E0008091C403882321F081E08093C3035DC0D2
:1053F0001092C303A091D602B091D702E091D602D9
:10540000F091D7022D913C918789908D8217930757
:10541000A8F08091D6029091D7028091D602909107
:10542000D702279A2F9A2FEF87EA91E621508040E2
:105430009040E1F700C000001F9AF5CF209137049B
:1054400089E001C02150422F50E0849FF001859FE8
:10545000F00D1124ED5EFB4F9081992399F3A1810A
:10546000B28112966D917C9172836183289FC001F5
:1054700011248A5E9B4F6817790721F485819681F4
:105480009283818389E0849FF001859FF00D112430
:10549000ED5EFB4F0180F281E02D86819781909334
:1054A000D7028093D60220933704A091D602B09100
:1054B000D702CD91CDBFDD91DEBFFF91EF91DF919E
:1054C000CF91BF91AF919F918F917F916F915F919C
:1054D0004F913F912F911F910F91FF90EF90DF908F
:1054E000CF90BF90AF909F908F907F906F905F9084
:1054F0004F903F902F901F900F900CBE0F900BBEBF
:105500000F900FBE0F900895CF93DF93EC010E9490
:10551000FE20CE010E94412EEC010E94D62320974E
:1055200069F4279A2F9A2FEF80E792E0215080406C
:105530009040E1F700C000001F9AF5CFCE01DF9147
:10554000CF910895CF93DF93009751F0EC010E9423
:10555000FE20CE010E94DD2EDF91CF910C94D62348
:10556000DF91CF9108957F928F929F92AF92BF92D9
:10557000CF92DF92EF92FF920F931F93CF93DF931F
:10558000982EA92E762E872E7A01B22ECA010E945D
:10559000842A6C01892B09F4F3C088E290E00E9410
:1055A000842AEC01892B09F4E8C088E2DE011D920F
:1055B0008A95E9F7D88ECF8AA70165EA70E0C6011F
:1055C0000E94B22FB1E0EB1AF108EF89F88DEE0DD1
:1055D000FF1D672D782DCE0149969B01285F3F4F17
:1055E000DB014D91BD01DC014D93CD01AB0141507B
:1055F0005109DA014C91442319F06217730781F7BE
:1056000018A2BE8AB9A21B861A861D8A1C8AD9874F
:10561000C88784E090E08B1991099D878C87DB8B8C
:10562000CA8B9082DF011197AC9211971C9211974F
:105630001C92119780E88C9311971C9211971C92E1
:1056400011971C9257971C9211971C92B697F98349
:10565000E8830115110519F0F801D183C0830FB655
:10566000F8940F9280910B048F5F80930B048091CC
:10567000D6029091D702892B09F091C0D093D7021E
:10568000C093D60280910B04813081F583E194E0D0
:105690000E94D4228CE194E00E94D42285E294E01E
:1056A0000E94D4228EE294E00E94D42280E094E012
:1056B0000E94D42287EF93E00E94D4228EEE93E0E2
:1056C0000E94D42285EE93E00E94D4228CED93E0D8
:1056D0000E94D42280E094E09093DB038093DA036D
:1056E00087EF93E09093D9038093D80380910904C6
:1056F0008F5F80930904AE89809137048A1710F474
:10570000A093370429E02A9FD0011124AD5EBB4F3E
:1057100011960D90BC91A02DBD83AC8314968D91F4
:105720009C9115979F838E831496ED91FC9115970C
:10573000CE0102969383828315969C938E93149741
:10574000EE89E29FF0011124ED5EFB4FFB87EA87B3
:1057500080818F5F80830F900FBE80910A04882321
:1057600051F0E091D602F091D70296898E89981770
:1057700010F40E94122381E004C0C6010E94A22AF4
:105780008FEFDF91CF911F910F91FF90EF90DF90FE
:10579000CF90BF90AF909F908F907F900895809111
:1057A0000A048111A3CFE091D602F091D702968925
:1057B0008E89891708F49ACFD093D702C093D60266
:1057C00095CF0F931F93CF93DF930FEB13E020E060
:1057D00040EC50E068E872E08EE198E00E94B32A65
:1057E000813009F090C00FB6F8940F928091C903F0
:1057F0009091CA03892B49F584EB93E00E94D4224F
:105800008BEA93E00E94D42284EB93E09093CE0342
:105810008093CD038BEA93E09093CC038093CB03EA
:1058200081E590E00E94842AEC01009751F04F96A8
:10583000998388838AE08B8F85E08C8FCE010E94CC
:10584000E222D093CA03C093C9030F900FBE809188
:10585000C9039091CA03892B09F455C00DEB13E0DD
:1058600023E045E550E06DE872E085E596E00E94B2
:10587000B32A813009F047C0F8942FEF3FEF3093FF
:10588000C6032093C50380930A041092110410925A
:105890001004A89588E190EC0FB6F894A895809331
:1058A00060000FBE90936000A091D602B091D70225
:1058B000CD91CDBFDD91DEBFFF91EF91DF91CF9113
:1058C000BF91AF919F918F917F916F915F914F9118
:1058D0003F912F911F910F91FF90EF90DF90CF900C
:1058E000BF90AF909F908F907F906F905F904F9000
:1058F0003F902F901F900F900CBE0F900BBE0F90FB
:105900000FBE0F90089580910002DF91CF911F91FB
:105910000F9108950E94B5281895CF93DF931092A8
:105920003B0410923A0488EE93E0A0E0B0E080934C
:105930003C0490933D04A0933E04B0933F042BE1BC
:1059400032E0309339042093380425EC30E0309372
:1059500045042093440424EC30E030934704209322
:10596000460420EC30E0309349042093480421ECB5
:1059700030E030934B0420934A0422EC30E0309323
:105980004D0420934C0426EC30E030934F042093D8
:105990004E0410925104109252041092530410922B
:1059A00054041092E5041092E4048093E60490936A
:1059B000E704A093E804B093E9048DE292E09093A9
:1059C000E3048093E2041092F1041092F00420E8C2
:1059D00030E03093F3042093F20480E490E090935D
:1059E000F5048093F4043093F7042093F604909325
:1059F000F9048093F804109204051092FB041092AD
:105A0000FA041092FD041092FC0481E080930305D7
:105A100080930205CFEFDFEFD0930105C09300051F
:105A2000D093FF04C093FE048093050510920605F1
:105A300010920805109207052FE332E03093EF042F
:105A40002093EE0410920A051092090522EE34E02C
:105A500030930C0520930B0510920E0510920D0546
:105A60009FEF9093120590931305909314059093D4
:105A7000150594E09093160540E85AE166E070E061
:105A800040932305509324056093250570932605C4
:105A900040EA56E861E070E04093270550932805FE
:105AA0006093290570932A0590E590932C05109238
:105AB0002D051092DF041092DE0422E030E03093D6
:105AC000E1042093E0048093D6048EE390E00E94EA
:105AD000412EFC0186E390E091838083D383C283CF
