:100000000C948F000C94CB180C94A4180C94B7008B
:100010000C94B7000C94B7000C94D7280C94B7003C
:100020000C94B7000C94B7000C94B7000C94B70074
:100030000C94B7000C94B7000C94B7000C94B70064
:100040000C945A180C94B7000C9418190C94F218CC
:100050000C94B7000C94B7000C94B7000C94B70044
:100060000C944A190C94B70008000000BE92244971
:10007000123EABAAAA2ABECDCCCC4C3E00000080DA
:10008000BEABAAAAAA3E00000000BF000000803F4D
:100090000000000000084178D3BB4387D1133D190D
:1000A0000E3CC3BD4282AD2B3E68EC8276BED98F3A
:1000B000E1A93E4C80EFFFBE01C4FF7F3F0000007E
:1000C000000000000000240027002A0000000000BB
:1000D000250028002B000000000023002600290036
:1000E00004040404040404040202020202020303DE
:1000F00003030303010204081020408001020408E6
:100100001020010204081020000000080002010075
:10011000000304070000000000000000DA2811249A
:100120001FBECFEFD8E0DEBFCDBF12E0A0E0B1E050
:10013000E0E4FEE502C005900D92AE35B107D9F7B7
:1001400027E0AEE5B2E001C01D92A93AB207E1F79F
:1001500010E0CFE8D0E004C02197FE010E94EE2E0F
:10016000CE38D107C9F70E94882A0C941E2F0C9410
:100170000000662329F06A3019F0862F90E0089578
:100180008FEF9FEF0895AF92BF92CF92DF92EF92E1
:10019000FF920F93CF93DF93EC01DA017901942F53
:1001A0009770E1E0F0E09F01092E01C0220F0A9450
:1001B000EAF7522F6E018AE8C80ED11CF601808141
:1001C00040E0823018F4422F813049F15D01F8EFB0
:1001D000AF22E8ADF9AD28813981D90150968C91D3
:1001E0008A9D90018B9D300D1124620F731FDF01DA
:1001F000A60FB71F01111AC0EA0EFB1E8C91842BAB
:1002000085278D93AE15BF05C9F7DF91CF910F916B
:10021000FF90EF90DF90CF90BF90AF90089550E0A7
:10022000D5CF440F550FE114F10479F33C91342BF1
:1002300035273C939F5F9770E1E0EE1AF10891112A
:10024000F0CF2CAD3DADA20FB31FF60180818230FF
:1002500028F4813009F051E041E0E5CF51E0E3CFEF
:1002600080E0089590E080E008954F925F926F9251
:100270007F928F929F92AF92BF92CF92DF92EF9236
:10028000FF92409096065090970660909806709066
:100290009906C0908E06D0908F06E0909006F09060
:1002A000910620E030E0A901C301B2010E94D02DE7
:1002B00018160CF061C08090920690909306A09062
:1002C0009406B090950620E030E0A901C501B40184
:1002D0000E94D02D18160CF04FC023E333E343E304
:1002E0005FE3C301B2010E94252E2B013C0120E0F7
:1002F00030E040E251E4C501B4010E947D2C9B0135
:10030000AC01C301B2010E947D2C9B01AC01C7016D
:10031000B6010E940B2C60938E0670938F0680931B
:1003200090069093910620E030E040EA51E460911D
:100330008E0670918F0680919006909191060E9492
:10034000782C87FF0CC080E090E0A0EAB1E48093B5
:100350008E0690938F06A0939006B0939106FF901F
:10036000EF90DF90CF90BF90AF909F908F907F9055
:100370006F905F904F90089524EA30E74DE75FE378
:10038000C701B6010E94252EC6CF9B01DC0118963D
:10039000ED91FC9141E067E10994FC01538D448D9E
:1003A000252F30E0842F90E0821B930B541710F020
:1003B000CF96089501970895FC01918D828D98172D
:1003C00061F0A28DAE0FBF2FB11D5D968C91928D05
:1003D0009F5F9F73928F90E008958FEF9FEF089536
:1003E000FC01918D828D981731F0828DE80FF11DFF
:1003F000858D90E008958FEF9FEF0895FC01918D1A
:10040000228D892F90E0805C9F4F821B91098F7312
:1004100099270895FC01A48DA80FB92FB11DA35AE7
:10042000BF4F2C91848D90E001968F739927848F14
:10043000A689B7892C93A089B1898C918370806437
:100440008C93938D848D981306C00288F389E02DD8
:1004500080818F7D80830895EF92FF920F931F9389
:10046000CF93DF93EC0181E0888F9B8D8C8D981367
:100470001AC0E889F989808185FF15C09FB7F89473
:10048000EE89FF896083E889F989808183708064BF
:1004900080839FBF81E090E0DF91CF911F910F910A
:1004A000FF90EF900895F62E0B8D10E00F5F1F4F19
:1004B0000F731127E02E8C8D8E110CC00FB607FC28
:1004C000FACFE889F989808185FFF5CFCE010E94B6
:1004D0000A02F1CFEB8DEC0FFD2FF11DE35AFF4F18
:1004E000F0829FB7F8940B8FEA89FB898081806244
:1004F000CFCFCF93DF93EC01888D8823B9F0AA8901
:10050000BB89E889F9898C9185FD03C0808186FDCE
:100510000DC00FB607FCF7CF8C9185FFF2CF80811D
:1005200085FFEDCFCE010E940A02E9CFDF91CF9186
:1005300008958FEC93E00E94FE0121E0892B09F4DD
:1005400020E0822F08950E94990281110C940000EE
:10055000089580E090E0892B11F00C94A302089597
:10056000833081F028F4813099F08230A9F0089529
:100570008730A9F08830C9F08430B1F480918000D0
:100580008F7D03C0809180008F77809380000895D5
:1005900084B58F7784BD089584B58F7DFBCF80911E
:1005A000B0008F778093B00008958091B0008F7D68
:1005B000F9CFCF93DF93282F30E0F901E85FFE4FAA
:1005C0008491F901EC50FF4FD491F901E052FF4FB3
:1005D000C491CC23A1F081110E94B002EC2FF0E075
:1005E000EE0FFF1FEA52FF4FA591B491EC91ED235E
:1005F00081E090E009F480E0DF91CF91089580E000
:1006000090E0FACF1F93CF93DF93282F30E0F901CA
:10061000E85FFE4F8491F901EC50FF4FD491F9014E
:10062000E052FF4FC491CC23A9F0162F81110E94F4
:10063000B002EC2FF0E0EE0FFF1FE453FF4FA59147
:10064000B4918FB7F894EC91111108C0D095DE23C6
:10065000DC938FBFDF91CF911F910895DE2BF8CFF0
:10066000CF93DF9390E0FC01EC50FF4F2491805238
:100670009F4FFC0184918823D1F090E0880F991F4F
:10068000FC01EE53FF4FA591B491FC01E453FF4FE1
:10069000C591D491623071F49FB7F8943C91822F48
:1006A000809583238C93E8812E2B28839FBFDF9135
:1006B000CF9108958FB7F894EC912E2B2C938FBF88
:1006C000F6CF3FB7F8948091FD029091FE02A09181
:1006D000FF02B091000326B5A89B05C02F3F19F07B
:1006E0000196A11DB11D3FBFBA2FA92F982F8827B2
:1006F000BC01CD01620F711D811D911D42E0660F8D
:10070000771F881F991F4A95D1F708952FB7F8943E
:100710006091F9027091FA028091FB029091FC02C3
:100720002FBF08950895AF92BF92CF92DF92EF92BC
:10073000FF920F931F93CF93DF936C017B018B018B
:10074000040F151FEB015E01AE18BF08C017D107DB
:1007500059F06991D601ED91FC910190F081E02D65
:10076000C6010995892B79F7C501DF91CF911F91BA
:100770000F91FF90EF90DF90CF90BF90AF900895D2
:100780002091D302260F3327331F21323105ECF499
:1007900020917D03FC0190E080E0243069F082E04C
:1007A0000895A091D3022191AC014F545D4FA40F45
:1007B000B52FB11D2C930196861798F38091D30223
:1007C000680F6093D30280E0089581E0089510924D
:1007D0007D0381E080937C031092570361E082E106
:1007E0000E94020361E083E10E940203E9EBF0E072
:1007F00080818E7F808380818D7F808388E4809359
:10080000B80085E48093BC000895CF93DF9391E016
:100810009093B0028823B9F0C091B800D091BA008B
:100820008091BC008A7B8093BC0060E082E10E94E2
:10083000020360E083E10E9402030E94E703D09379
:10084000BA00C093B800DF91CF9108958F929F9224
:10085000AF92BF92CF92DF92EF92FF920F931F93CE
:10086000CF93DF93D091A603D13208F0D7C0182FD1
:10087000C091A5030E9461036B017C0180917D03FF
:1008800081116BC082E080937D0310937C038FEF16
:1008900080937B0310927A03D0937903A5E8B3E0A9
:1008A000E9E5F3E080E0D81391C0109258038091FD
:1008B0005803CC0FC82BC093580380915703813045
:1008C00009F088C0109257030E9461036B017C01FC
:1008D000809158038093BB0080917F0390918003A7
:1008E000A0918103B0918203892B8A2B8B2BA1F0DD
:1008F0000E94610300917F03109180032091810386
:10090000309182036C197D098E099F09061717071C
:100910002807390708F442C08091BC0083FDD8CF76
:1009200085EC8093BC000E9461036B017C01809187
:100930007D03823009F450C080917B038F3F09F41E
:100940006FC080917B03803209F46CC080917B037F
:10095000803309F469C084E026C080917F039091C0
:100960008003A0918103B0918203892B8A2B8B2B6A
:1009700009F484CF0E94610380907F0390908003EC
:10098000A0908103B09082036C197D098E099F09A4
:1009900086169706A806B90608F070CF80917E03E8
:1009A0000E94050485E0109284031092A603109221
:1009B0008303DF91CF911F910F91FF90EF90DF9014
:1009C000CF90BF90AF909F908F9008959D919193FD
:1009D0008F5F69CF85EEA5CF80917F0390918003D3
:1009E000A0918103B0918203892B8A2B8B2B09F470
:1009F0009ECF0E94610300917F031091800320919C
:100A00008103309182036C197D098E099F090617B5
:100A100017072807390708F08ACFC0CF81E0C3CF76
:100A200080E0C1CF82E0BFCF83E0BDCFCF92DF9225
:100A3000EF92FF920F931F93CF93DF93D82FC62F80
:100A4000613208F098C00E9461036B017C018091C3
:100A50007D0381116BC081E080937D0380937C03D3
:100A60009FEF90937B0310927A039C0F90937903EE
:100A70008093580380915803DD0FD82BD0935803EF
:100A800080915703813009F078C0109257030E947B
:100A900061036B017C01809158038093BB008091BE
:100AA0007F0390918003A0918103B0918203892BF1
:100AB0008A2B8B2BA1F00E94610300917F03109180
:100AC000800320918103309182036C197D098E0986
:100AD0009F09061717072807390708F448C08091AF
:100AE000BC0083FDD8CF85EC8093BC000E946103DD
:100AF0006B017C0180917D03813009F440C08091BD
:100B00007A038C1710F4C0917A03E9E5F3E0A7E3C8
:100B1000B3E080E08C1355C08C2FDF91CF911F91F3
:100B20000F91FF90EF90DF90CF90089580917F0319
:100B300090918003A0918103B0918203892B8A2B2D
:100B40008B2B09F484CF0E94610300917F031091E5
:100B5000800320918103309182036C197D098E09F5
:100B60009F09061717072807390708F070CF8091EB
:100B70007E030E940504C0E0CFCF85EEB5CF809103
:100B80007F0390918003A0918103B0918203892B10
:100B90008A2B8B2B09F4AECF0E94610300917F0357
:100BA0001091800320918103309182036C197D099B
:100BB0008E099F09061717072807390708F09ACFEB
:100BC000D6CF91919D938F5FA5CF089508950895F5
:100BD000E091360380913503E81730F4F0E0E95CEA
:100BE000FC4F808190E008958FEF9FEF08959091E2
:100BF0003603809135032FEF3FEF981748F4E92F24
:100C0000F0E0E95CFC4F208130E09F5F9093360379
:100C1000C90108958091350390913603891B990B82
:100C20000895CF92DF92EF92FF920F931F93CF938D
:100C3000DF937C01CB018A0120918303222389F079
:100C4000EB016B01C40ED51ECC15DD0569F0699171
:100C5000D701ED91FC910190F081E02DC70109953C
:100C6000F3CF642F0E94C003C801DF91CF911F9181
:100C70000F91FF90EF90DF90CF900895CF93DF9387
:100C80001F92CDB7DEB76983209183032223F9F049
:100C90002091A603203258F021E030E0FC0133839C
:100CA000228390E080E00F90DF91CF9108958091B2
:100CB0008403E82FF0E0EB57FC4F998190838F5F1E
:100CC000809384038093A60381E090E0ECCF61E001
:100CD000CE0101960E94C003F7CFCF93C62F91E0BB
:100CE0009093830397E59093A50310928403109249
:100CF000A603682F8CE694E00E943E066C2F8CE6DB
:100D000094E00E943E0681E0CF910C942604DC0121
:100D10001A96ED91FC9130E020E00994462FDC0119
:100D20001496ED91FC9130E020E06BE00994DC0139
:100D30001696ED91FC9130E020E040E069E10994E5
:100D4000DC011696ED91FC9130E020E040E068E196
:100D500009949A01DC011696ED91FC91462F67E10A
:100D60000994EF92FF920F931F93CF93DF931F92FB
:100D7000CDB7DEB77C018B01D8016C91673129F1C9
:100D800050F46531A0F40F90DF91CF911F910F9136
:100D9000FF90EF9008956A3118F16E3FA1F7F801C6
:100DA0004181498369E2C7010E9487060BC0F801AF
:100DB00041814983D7011696ED91FC9130E020E006
:100DC000C70109950E5F1F4FD7CFF8018181898335
:100DD000AE014F5F5F4F61E0C7010E94A906F2CFED
:100DE0000F5F1F4FD7011696ED91FC9130E020E088
:100DF00040E0C7010995C0CF462FDC011696ED9162
:100E0000FC9130E020E066E10994462FDC01169663
:100E1000ED91FC9130E020E065E10994EF92FF92C2
:100E20000F931F93CF93DF93EC01042F7901693067
:100E300069F483E891E0998388831C8A81E0DF91DB
:100E4000CF911F910F91FF90EF9008956D3009F4AD
:100E500075C038F46A3091F16B3009F468C080E0F5
:100E6000EECF6E3009F47DC06F30C9F70E94A00646
:100E7000F7011381110F110F110F6C89160F612FDC
:100E800062956F706061CE010E940507612F6F70DF
:100E9000CE010E940507F7016481606BCE010E94BC
:100EA0000507F701408151816281660F660F660F69
:100EB000CE010E94A9060150A1F75DC0EA85FB851D
:100EC00030E020E040E068E20995EE81FF8130E00B
:100ED00020E040E064E1CE01099541E06BE4CE0101
:100EE0000E948706E881F981448169E2CE010E946F
:100EF000870640E06BE4CE010E948706E881F98115
:100F0000448169E2CE010E94870641E06BE4CE0194
:100F10000E948706E881F981458169E2CE010E943D
:100F200087066EE471E0CE010E94B10687CF69E4C6
:100F300071E04423C1F364E471E0F5CF411109C0CD
:100F40006DE371E00E94B106E881F98182898C8BA2
:100F500075CF66E371E00E94B106E881F98183896B
:100F6000F6CF0E94A00661E8CE010E940507602F1F
:100F7000CE010E94FC06CE010E9497065FCFDC01E5
:100F80001896ED91FC9130E020E040E069E1099491
:100F9000DC011896ED91FC9130E020E040E068E142
:100FA0000994CF93DF931F92CDB7DEB76983BE015B
:100FB0006F5F7F4F0E94C5010F90DF91CF91089521
:100FC000EF92FF921F93CF93DF93EC01162F7A01DC
:100FD0000E94C80760E4CE010E94D107E885F98528
:100FE0009701412F67E1CE010995CE01DF91CF91A5
:100FF0001F91FF90EF900C94BF07EF92FF921F9309
:10100000CF93DF93EC01142F7901663181F138F42D
:10101000643109F44BC0653179F080E022C0683159
:10102000C9F150F16931C9F78091AF02882391F17C
:10103000CE010E94BF072EC08091AF02882319F015
:10104000CE010E94BF07CE010E94C80760E0CE011A
:101050000E94D107612FCE010E94D10781E08093C9
:10106000AF02DF91CF911F91FF90EF900895642F11
:101070000E94D10781E0F5CF8091AF02882319F05B
:10108000CE010E94BF07A701193138F4612FCE01AC
:101090000E94E0071092AF02EDCF68E1CE010E94FE
:1010A000E007185188E1E80EF11CEDCF8E898F3FE3
:1010B00011F488E78E8BE885F9859701412F64E16B
:1010C000CE01DF91CF911F91FF90EF9009940F9384
:1010D000FC01E05CFF4F0190F081E02D4E1B5F0BA7
:1010E000DC01D496ED91FC9109950F910895CF9371
:1010F000DF93FC01A081B18182AD90E09C0143E0CF
:10110000220F331F4A95E1F737AF26AF50962C9147
:10111000509748E0249F9001112435AF24AF23ADB0
:1011200030E0B90153E0660F771F5A95E1F7EF0100
:10113000C05CDF4F7983688351964C915197E901E8
:10114000C80FD91F50E04C175D0718F4CA01821B65
:10115000930BEF01CE5BDF4F79836883229623E008
:10116000880F991F2A95E1F7860F971F9983888327
:10117000229654968D919C91559799838883E85B2C
:10118000FF4F56968D919C9191838083DF91CF91F3
:1011900008950F931F93FC01E25BFF4F0190F081D4
:1011A000E02DDC01A05BBF4F0D90BC91A02D4A1734
:1011B0005B0740F4E017F10748F00417150730F01B
:1011C00080E019C0E017F107C0F3FACFFC01E65B3D
:1011D000FF4F40815181845B9F4FFC018081918151
:1011E0006817790758F481E04217530720F081E02F
:1011F0002617370728F71F910F91089542175307B5
:10120000B0F3DECF2F923F924F925F926F927F9218
:101210008F929F92AF92BF92CF92DF92EF92FF9206
:101220000F931F93CF93DF93CDB7DEB72A970FB6F7
:10123000F894DEBF0FBECDBF9A878987865B9F4F2C
:101240009A838983FC0111821082E985FA85EA5B21
:10125000FF4F4080518029853A85245B3F4F3C8376
:101260002B83F90151824082E985FA85EE5BFF4FBD
:101270002080318029853A85225B3F4F3E832D8334
:10128000F90131822082E985FA85EC5BFF4F6080AD
:10129000718029853A85205B3F4F38872F83F9017C
:1012A00071826082E985FA85E85AFF4FE080F1801B
:1012B000E985FA85EC5AFF4FA080B180E985FA856F
:1012C000EA5AFF4FC080D180E985FA85EE5AFF4F78
:1012D0008080918087019501A601B40189859A8556
:1012E0000E94C90829853A852C573F4F3A8729879C
:1012F00081111BC0F90110822A960FB6F894DEBF47
:101300000FBECDBFDF91CF911F910F91FF90EF9056
:10131000DF90CF90BF90AF909F908F907F906F9015
:101320005F904F903F902F90089581E0E985FA8576
:1013300080838114910421F0E981FA819182808275
:10134000A414B50420F4EB81FC81B182A0822C149A
:101350003D0420F4ED81FE81D182C082E614F704C1
:1013600058F6EF81F885F182E082C6CF0F93CF93D4
:10137000DF93E02FDC01AC57BF4FFC91FF2309F452
:1013800060C02115310509F45CC02230310538F008
:10139000023009F04AC06F5F7F4F621B730B0E2F44
:1013A0000170E0FD52C0FC01E25BFF4F0190F08153
:1013B000E02D4E175F0708F444C0FC01E05BFF4FCF
:1013C0000190F081E02D4E175F07D8F5FC01E45B3A
:1013D000FF4F0190F081E02DDC01A65BBF4F0D9027
:1013E000BC91A02D260F371F2617370738F56E172B
:1013F0007F0718F59F0121503109A217B30708F59F
:101400006A177B0708F4BD012E173F0708F4F9019E
:10141000E61BF70BEC01AEA9BFA914960D90BC9189
:10142000A02D9F01FD0109950CC0033009F0B7CF35
:101430004F5F5F4F421B530BB2CFBD016E177F074B
:10144000E0F2DF91CF910F910895FC01E65BFF4F31
:101450000190F081E02D6E177F0798F3FC01E45BAB
:10146000FF4F0190F081E02D6E177F0750F7FC01D0
:10147000E05BFF4F0190F081E02DDC01A25BBF4FEC
:101480000D90BC91A02D240F351F24173507A8F40B
:101490004E175F0788F49F0121503109A217B30747
:1014A00080F64A175B0708F4AD012E173F0708F4D2
:1014B000F901E41BF50BAECFAD014E175F0708F63F
:1014C000EDCF213069F038F0223079F0840F911D92
:1014D00047FD9A950895860F911D67FD9A95089589
:1014E000841B910947FD93950895861B910967FD1B
:1014F00093950895213069F038F0223079F0861BF9
:10150000910967FD93950895840F911D47FD9A9564
:101510000895860F911D67FD9A950895841B910982
:1015200047FD939508953F924F925F926F927F92FD
:101530008F929F92AF92BF92CF92DF92EF92FF92E3
:101540000F931F93CF93DF937C01162F442EEC0152
:10155000C25ADF4F5E806F806C018AE8C80ED11CD2
:1015600078847518312E711608F4372C8C809D8084
:101570000E85202F462D652D8A819B810E94610A50
:101580005C01202F462D652DC4010E947A0AAC0112
:10159000442079F08C85F6018083232D30E0B5015D
:1015A000C7010E94B609171548F017196394512C0A
:1015B000D7CF8B858111F7CF8D85EDCF150D1E838C
:1015C0006F82DF91CF911F910F91FF90EF90DF908D
:1015D000CF90BF90AF909F908F907F906F905F90D3
:1015E0004F903F900895DC011A964C911A97ED9117
:1015F000FC911197249130E0042E02C03595279577
:101600000A94E2F7842F860F883068F0319611969D
:10161000FC93EE93E49198E0941B01C0EE0F9A9531
:10162000EAF72E2B88501A968C938FEF9FEF01C00C
:10163000880F6A95EAF7809582230895FC01E60FEA
:10164000F11D849190E0982F88273196E4918E0FB8
:10165000911D0895CF93DF93EC016BAFEEA9FFA925
:101660000190F081E02D0995EEA9FFA90280F38198
:10167000E02DCE01DF91CF910994AF92BF92CF922E
:10168000DF92EF92FF920F931F93CF93DF9300D0DF
:1016900000D01F92CDB7DEB78C01DC01DA96AC909A
:1016A000DA97DB96EC90DB97ED91FC91B188FE2CFC
:1016B000D12CC12CD801ED91FC9111978089D8963D
:1016C0002D913C911C82FD828B83B8E08B9FC001E1
:1016D00011248C9DA0018D9D500D9C9D500D1124B9
:1016E000240F351F3A832983D8011496ED91FC917C
:1016F0009E012F5F3F4F41E06FE0C8010995F394D1
:101700008F2D8E198A1528F4BFEFCB1ADB0AFB1434
:1017100088F20F900F900F900F900F90DF91CF9164
:101720001F910F91FF90EF90DF90CF90BF90AF90FF
:101730000895CF93DF93EC01962F683109F445C0EB
:10174000B901993130F4943199F0973159F080E032
:1017500006C0993109F45BC09032C9F781E0DF918E
:10176000CF91089550E08CE694E00E941106F6CFE8
:101770008C859D85AE85BF85892B8A2B8B2B71F43B
:10178000E881F981A585B0E020EA36E841E050E043
:101790000E94F42E6C877D878E879F871092360378
:1017A00010923503109284031092A6030E94E7035F
:1017B00085EE95E09093D2028093D10286EE95E07B
:1017C0009093D6028093D502C9CF2C853D854E8556
:1017D0005F8560E074E284EF90E00E94CC2E20519F
:1017E0003109410951095695479537952795209319
:1017F000B8008E8990E09595879591E0909383034A
:101800008093A503109284031092A603A7CF81E0D2
:101810000E942604A3CF8F929F92AF92BF92CF9245
:10182000DF92EF92FF92CF93DF937C01C62F6C3251
:10183000B0F46A32E8F5683249F1693209F444C01B
:1018400080E0C034B0F1CF73F701EC0FF11D868D4D
:101850008F3F71F1C03108F06DC0642F14C06D323C
:1018600009F456C068F384EB860F823048F7CF73D3
:10187000CE0DDF2DD11D8E8D411158C061E00E942B
:10188000300360E08E8D0E94020312C02EE1E20E52
:10189000F11CD0E0F70181917F018F3F31F061E0D1
:1018A000D03108F062E00E943003DF5FD63191F75B
:1018B00081E0DF91CF91FF90EF90DF90CF90BF90CC
:1018C000AF909F908F900895C42ED12CF12CE12CD5
:1018D0000E9461034B015C01C114D104E104F104D5
:1018E00039F30E946103681979098A099B09683EE6
:1018F00073408105910580F3F1E0CF1AD108E1082A
:10190000F10828EE820E23E0921EA11CB11CE4CF48
:1019100085E090E0433010F082E090E0880F991F5E
:10192000880F991F05970197F1F7C2CF62E00E94D7
:101930003003BECF0E94D90221E0892B09F420E0B8
:10194000F701218FB5CF809188029091890201968D
:1019500090938902809388020895CF92DF92EF924C
:10196000FF920F931F93CF93DF936C01EB017B01E9
:10197000E40EF51E10E000E0CE15DF0561F0699180
:10198000D601ED91FC910190F081E02DC601099501
:10199000080F191FF1CFC801DF91CF911F910F914F
:1019A000FF90EF90DF90CF9008952F923F924F924B
:1019B0005F926F927F928F929F92AF92BF92CF92DF
:1019C000DF92EF92FF920F931F93CF93DF93CDB7E8
:1019D000DEB728970FB6F894DEBF0FBECDBF7C01EF
:1019E0006C0124E0C20ED11CFC01E057FF4F0190B6
:1019F000F081E02DC60109958C018E3F9F4F08F0C4
:101A000061C0370184E9680E711CF3010190F08117
:101A1000E02DFD83EC835701F2E9AF0EB11CF50117
:101A200080809180970120593F4F3B832A83F901A1
:101A30008081813009F470C008F45FC0823009F4FD
:101A400076C0833009F482C0F701EC59FF4F9182D0
:101A5000808232962C813D8131832083389780812A
:101A6000918147969D838C830F3F110511F008F0FB
:101A700020C1B6960136110530F40134110558F035
:101A8000F701EE57FF4F808191812C813D81280F16
:101A9000391F3D832C838C819D810196FC0124910B
:101AA00021115FC090E080E0EA81FB81208121303C
:101AB00009F4C1C108F4B7C1223009F4BEC1233012
:101AC00009F4C3C181E090E028960FB6F894DEBF18
:101AD0000FBECDBFDF91CF911F910F91FF90EF907F
:101AE000DF90CF90BF90AF909F908F907F906F903E
:101AF0005F904F903F902F900895F701E05AFF4F6D
:101B00000190F081E02DC60109952C813D81280FBF
:101B1000391F3D832C8398CFF701E05AFF4F019086
:101B2000F081E02DC6010995881A990A8DCFF70139
:101B3000E05AFF4F0190F081E02DC6010995EC813C
:101B4000FD81E81BF90BFD83EC837ECFF701E05AA2
:101B5000FF4F0190F081E02DC6010995880E991E76
:101B600073CFEC81FD8124912017110609F09AC0F2
:101B7000CF010296009709F495CFF701EE59FF4F78
:101B8000F887EF83918380831286739660818F81BB
:101B900098850E94F30AEF81F8858087F701EA585B
:101BA000FF4F60818F8198850E94F30A582EEF8144
:101BB000F8858187970122573F4F3D832C83F90198
:101BC0009081EF81F885948781E0911180E0EF8129
:101BD000F8858587F701E958FF4F8080682D8F8150
:101BE00098850E94F30A382EF701E858FF4F2080AD
:101BF000622D8F8198850E94F30A982EF701E7588D
:101C0000FF4F1081612F8F8198850E94F30A9FEF0B
:101C1000910F01E010E0980101C0220F9A95EAF7B8
:101C2000821B8E83EF81F885408414140CF0C4C0AD
:101C30008A94C80101C0880F8A94EAF7381AF68599
:101C4000F983950C2A94C80101C0880F2A94EAF7F9
:101C5000282E29182F2F422D632DEF81F8858281A0
:101C600093810E94610A4C01EF81F88593838283FE
:101C70002981422D632D848195810E947A0AEF810A
:101C8000F88595838483F981F13009F49AC008F4CA
:101C90004EC0F23009F4A4C0F33009F4B5C0BC0161
:101CA00094014FC0FC0184912C813D81280F311D8E
:101CB000F0CEF701EA57FF4F80819181EC81FD81E1
:101CC000E80FF91FFD83EC834F0160E0C4010E941F
:101CD0001E0B2C813D81280F391F3D832C8362E030
:101CE000C4010E941E0B34E0830E911C80179107E3
:101CF00060F3EC81FD81849190E0982F88273196E4
:101D0000E4918E2B009709F4CDCE0817190721F422
:101D10008C819D8103962ECFEC81FD813296E491DA
:101D20002C813D812E0F311D3D832C83E2CF940108
:101D3000240D311D47FC3A95BC01650D711D57FC02
:101D40007A958B01AC01B401C6010E94C9088823B1
:101D500099F1EF81F885168217824701F3E78F0E1C
:101D6000911C24E7E20EF11CF40160818F819885BB
:101D70000E94F30A082FF70160818F8198850E94E5
:101D8000F30A182F40E0602FC6010E94930A41E039
:101D9000612FC6010E94930A61E08F8198850E949D
:101DA000F30A8111EFCFEF81F88587818515E4F281
:101DB0008485EC81FD818083FE818F2FFF0F990B3D
:101DC00073CE0519110957FC139594012F5F3F4FEE
:101DD000BC01640D711D47FC7A95800E911EB1CF38
:101DE000A8014419510947FC539594012F5F3F4FB7
:101DF0000519110957FC1395BC016F5F7F4F800FC8
:101E0000911F840E951E9DCF9401250D311D57FC09
:101E10003A950419110947FC1395BC016F5F7F4F78
:101E2000800F911F8ECFF50120813181820F931F8A
:101E30009183808347CEF301F7CFF5012081318173
:101E4000281B390B318320833DCEF301F7CF089552
:101E500090E080E0089591E09093830397E590935C
:101E6000A503109284031092A603682F8CE694E0D9
:101E70000E943E0680E00E94260461E087E50E9401
:101E8000160510923603809335038CE694E00E9489
:101E9000F7050895FC01A081B18150962C9182AD87
:101EA00038E0839FC0011124289FA001299F500D75
:101EB000112470E060E080AD91AD0C94172F1F935A
:101EC000CF93DF93EC010E943D0B1BAD8AAD180F41
:101ED000E881F9818189181768F0EC81FD8130E093
:101EE00020E040E060E1CE01099580E0DF91CF91F4
:101EF0001F910895FE01E557FF4F8081882319F057
:101F0000CE010E944A0F612FCE010E942A0B81E070
:101F1000EDCFCF93DF93EC01FC01E557FF4F8081BC
:101F2000882319F0CE010E944A0F60E0CE01DF91B4
:101F3000CF910C942A0BFB0101900020E9F7319717
:101F4000AF01461B570BDC01ED91FC910280F38140
:101F5000E02D09948F929F92AF92BF92EF92FF92E1
:101F60000F931F93CF93DF93CDB7DEB7A1970FB633
:101F7000F894DEBF0FBECDBF7C01FA01CB0119A2E0
:101F8000223008F42AE08E010F5D1F4F822E912C23
:101F9000B12CA12CBF01A50194010E94CC2EF90106
:101FA000CA016A300CF5605DD8016E938D01232B58
:101FB000242B252B79F790E080E0109721F0BD01CC
:101FC000C7010E949B0FA1960FB6F894DEBF0FBE0B
:101FD000CDBFDF91CF911F910F91FF90EF90BF90F8
:101FE000AF909F908F900895695CDECF2F923F92C3
:101FF0004F925F926F927F928F929F92AF92BF9219
:10200000CF92DF92EF92FF921F93CF93DF93EC0179
:102010006A017B01722EAB019601CB01B6010E94D1
:10202000922E61ED71E0811126C046015701E894BE
:10203000B7F82FEF3FEF4FE75FE7C501B4010E940C
:10204000922E81110CC02FEF3FEF4FE75FE7C501E4
:10205000B4010E94782C65ED71E0181664F02FEF42
:102060003FEF4FE75FE4C701B6010E94D02D18167D
:10207000B4F469ED71E0CE01DF91CF911F91FF9033
:10208000EF90DF90CF90BF90AF909F908F907F9018
:102090006F905F904F903F902F900C949B0F2FEF7D
:1020A0003FEF4FE75FECC701B6010E94782C87FD38
:1020B000E0CF20E030E0A901C701B6010E94782CF2
:1020C000312C212C87FF0DC0E881F9810190F0812E
:1020D000E02D6DE2CE0109951C01F7FAF094F7F8B6
:1020E000F09410E060E070E080E09FE3711641F052
:1020F00020E030E040E251E40E947D2C1F5FF6CFEB
:10210000A70196010E940C2C2B013C010E94EF2C90
:102110004B015C012AE0BC01A401CE010E94AA0F80
:102120007C01E20CF31C1123E1F1C501B4010E9412
:102130001E2D9B01AC01C301B2010E940B2C4B016F
:102140005C01E881F9810190F081E02D6EE2CE0121
:102150000995E80EF91E115020F120E030E040E230
:1021600051E4C501B4010E94252E2B013C010E94BF
:10217000EF2C4B01B12CA12C2AE0B501A401CE011A
:102180000E94AA0FE80EF91EC501B4010E941E2D7F
:102190009B01AC01C301B2010E940B2C4B015C01FD
:1021A000DACFC701DF91CF911F91FF90EF90DF90C1
:1021B000CF90BF90AF909F908F907F906F905F90E7
:1021C0004F903F902F9008950C949B0F85ED809336
:1021D000BC0080917F0390918003A0918103B09116
:1021E00082030796A11DB11D23E0B695A79597958B
:1021F00087952A95D1F72091BC0024FD03C0109249
:102200007D03089540917F03509180036091810385
:1022100070918203452B462B472B69F30097A1054C
:10222000B10541F02AE22A95F1F700C00197A10912
:10223000B109E1CF80917E030C9405048091860260
:10224000909187020E942621813031F4809186028C
:10225000909187020E94FB1F8EE390E00E9404236E
:10226000EDCFC4E1D0E088EE882E83E0982EA12C3B
:10227000B12C0EE110E080918602909187020E94BD
:102280002621813009F057C083E197E00E94890F31
:102290001092A2071092A107D093A407C093A3079E
:1022A0006DED71E08FE097E00E94E4100E948603DC
:1022B000A50194010E94CC2EBA01A9012AE08FE069
:1022C00097E00E94AA0F1092A2071092A107109304
:1022D000A4070093A30764EE71E08FE097E00E94EB
:1022E000E410C0908802D09089020D2C000CEE08FA
:1022F000FF082AE0B701A601F7FE0DC06DE28FE0EE
:1023000097E00E94D50C44275527BA014C195D0966
:102310006E097F092AE08FE097E00E94AA0F83E10F
:1023200097E00E945F0F8111B3CF80918602909158
:1023300087020E94FB1F82E00E94D902019799F454
:1023400060E083E197E00E948E068FE190E00E94BA
:10235000042361E083E197E00E948E0686E090E02E
:102360000E94042388CF83E00E94D9020197B1F72D
:10237000E7CF0F931F93CF93DF93E0911707F0916F
:10238000180730E020E040E06AE083E197E009953B
:1023900083E197E00E94890F83E197E00E945F0F3D
:1023A0008111FACF60E083E197E00E942A0B60E0A0
:1023B00083E197E00E948E0610927B0610927A06C7
:1023C0001092360310923503109284031092A603E4
:1023D0000E94E70385EE95E09093D2028093D102AC
:1023E00086EE95E09093D6028093D5028CE08093A0
:1023F000B8008FEF0E942B0F8131A1F080917A06F7
:1024000090917B06892B09F468C069EF71E08FEC2D
:1024100093E00E949B0F6DE172E08FEC93E00E94CD
:102420009B0F5BC062E086E00E946D0687E00E9421
:102430002B0F682F636087E00E946D0687E00E9483
:102440002B0F837E682F646087E00E946D066FEF1C
:1024500089E00E946D0687E00E942B0F682F606460
:1024600087E00E946D0663E086E00E946D06609141
:10247000B60620E1629FC00111246091B706682B67
:1024800089E00E946D0683E393E3A3E7BFE38093B3
:102490009E0690939F06A093A006B093A10610926B
:1024A000A2061092A3061092A4061092A50680938D
:1024B000A6069093A706A093A806B093A90610922B
:1024C000AA061092AB061092AC061092AD0681E0FF
:1024D00090E090937906809378068FE190E00E94D7
:1024E000B726EC01009781F09983888381E08B8F78
:1024F0001C8ECE010E94471D1D821C8219821882EB
:102500001E82CE010E94FB1FD0938702C0938602D9
:1025100062E082E00E943003C3EADCE0D093020173
:10252000C0930101809169008C7F82608093690073
:10253000E89A62E083E00E943003D0930401C093E4
:10254000030180916900837F886080936900E99A24
:1025500010E000E022E048EE53E060E272E08AEC36
:1025600092E10E94D52621E048EE53E06EE272E04F
:1025700081E391E10E94D52621E048EE53E06AE331
:1025800072E08EE191E10E94D526DF91CF911F91FB
:102590000F910895CF93DF93CDB7DEB7CF54D10914
:1025A0000FB6F894DEBF0FBECDBF0E94591B249614
:1025B0009FAF8EAF249782E00E942B0F182F84E0EC
:1025C0000E942B0F181B1F7009F46FC021E020938D
:1025D000830387E58093A503109284031092A603DA
:1025E00065E08CE694E00E943E0680E00E942604AE
:1025F000612F660F660F613208F060E287E50E9486
:102600001605F82E109236038093350300E0809172
:102610003603F81669F08CE694E00E94F705E1E0D5
:10262000F0E0EC0FFD1FE00FF11D80830F5FEFCF97
:10263000E0910907F0910A07809107079091080738
:10264000DE01119660E04C9111962C911197542F58
:10265000422F12963C91129713962C911397349611
:1026600077E0E730F70711F4E7ECF6E051834083B9
:102670003383228320910B0730910C0720313105E1
:1026800009F0FBC0049627E08730920711F487EC2D
:1026900096E06F5F14961613D6CFF0930A07E09377
:1026A0000907909308078093070780910B07909183
:1026B0000C07009709F409C4E0910907F0910A0793
:1026C0009F012450310930930A0720930907408164
:1026D0005181628173812C964CAF5DAF6EAF7FAF3D
:1026E0002C97275C364030F463E077E070930A075C
:1026F00060930907019790930C0780930B07C09094
:10270000A206D090A306E090A406F090A506209122
:102710009E0630919F064091A0065091A106C701E8
:10272000B6010E94252E4B015C012A962EAD3FADCD
:102730002A97B90190E080E00E941E2D9B01AC0118
:10274000C501B4010E940C2C6093A2067093A306ED
:102750008093A4069093A506A70196010E940B2CD6
:1027600028966CAF7DAF8EAF9FAF2897C090AA061A
:10277000D090AB06E090AC06F090AD062091A60696
:102780003091A7064091A8065091A906C701B6014D
:102790000E94252E4B015C012C964EAD5FAD2C970F
:1027A000BA0190E080E00E941E2D9B01AC01C501A2
:1027B000B4010E940C2C6093AA067093AB06809320
:1027C000AC069093AD06A70196010E940B2C609673
:1027D0006CAF7DAF8EAF9FAF6097C090B206D090C8
:1027E000B306E090B406F090B506C092AE06D09263
:1027F000AF06E092B006F092B10628966CAD7DADC2
:102800008EAD9FAD289790582BE73FE14BE75EE3F5
:102810000E94252E4B015C0123E430E742E05FE398
:10282000C701B6010E94252E9B01AC01C501B40170
:102830000E940C2C9B01AC012093B2063093B3068E
:102840004093B4065093B506C701B6010E940C2C04
:10285000062F372E282E22969FAF229780918C0626
:1028600090918D068230910509F4A5C090F40097EF
:1028700089F10197E9F110E053C1A9014F5F5F4F62
:1028800050930C0740930B07232B09F002CFCF0185
:1028900000CF8330910509F4CDC0049761F70E9401
:1028A0008603C0909A06D0909B06E0909C06F0901C
:1028B0009D066C197D098E099F09693C710581058A
:1028C000910508F470C021E030E030938D0620932C
:1028D0008C0669C00E948603613D774081059105A1
:1028E00050F261E070E070938D0660938C06C3CF68
:1028F00020918E0630918F0640919006509191065E
:10290000602F732D822D22969FAD22970E94D02D8D
:10291000181634F520E030E048E454E4602F732DBD
:10292000822D22969FAD22970E94782C87FF3EC071
:10293000502F432D322D22962FAD2297852F942F85
:10294000A32FB22F80938E0690938F06A0939006AC
:10295000B093910682E090E090938D0680938C0670
:102960000E948603C0909A06D0909B06E0909C0639
:10297000F0909D066C197D098E099F09613D774095
:102980008105910580F010929206109293061092A4
:102990009406109295061092960610929706109241
:1029A0009806109299060E94350165CF50E040E0EC
:1029B00038E424E4C3CF20918E0630918F064091F5
:1029C000900650919106602F732D822D22969FAD17
:1029D00022970E94782C87FF07C043E050E0509375
:1029E0008D0640938C0647CF20E030E048E454E465
:1029F000602F732D822D22969FAD22970E94782CF6
:102A000087FF13C0502F432D322D22962FAD2297D2
:102A1000852F942FA32FB22F80938E0690938F062D
:102A2000A0939006B093910626CF50E040E038E4A2
:102A300024E4EECF20E030E040EF51E4602F732D2E
:102A4000822D22969FAD22970E940C2C20918E06FB
:102A500030918F0640919006509191060E94782CFB
:102A600087FF86C1802F932DA22D2296BFAD22977E
:102A70008093960690939706A0939806B093990634
:102A800064E070E070938D0660938C060E9486036C
:102A9000C0909A06D0909B06E0909C06F0909D0610
:102AA0006C197D098E099F090E941E2D6B017C0106
:102AB00020E030E0A9010E94782C882331F12CEC31
:102AC0003CEC4CEC5EE36091920670919306809131
:102AD0009406909195060E94252E4B015C012AE9EF
:102AE00039E949E15FE3C701B6010E94252E9B0148
:102AF000AC01C501B4010E940C2C60939206709346
:102B0000930680939406909395060E9486036093A3
:102B10009A0670939B0680939C0690939D0611E005
:102B2000C0909206D0909306E0909406F09095069F
:102B300020E030E0A901C701B6010E94782C88236B
:102B400009F42FC1A701960160E070E080E89FE3DF
:102B50000E947D2C20E030E04AE754E40E94252EBC
:102B600020E030E040E752E40E94252E20E030E0F3
:102B7000A9010E94D02D18160CF013C142E050E0BC
:102B8000509379064093780628962CAD3DAD4EAD16
:102B90005FAD2897CA01B9010E94252E2091B90680
:102BA0003091BA064091BB065091BC060E940C2C95
:102BB0006B017C01C092B906D092BA06E092BB06C6
:102BC000F092BC0660962CAD3DAD4EAD5FAD60970A
:102BD000CA01B9010E94252E2091BD063091BE0682
:102BE0004091BF065091C0060E940C2C2B013C0165
:102BF0004092BD065092BE066092BF067092C0061B
:102C00006091C2067091C3068091C4069091C5067A
:102C10006F5F7F4F8F4F9F4F6093C2067093C306C5
:102C20008093C4069093C506112309F45DC02091DA
:102C3000C1062F5F2093C106233009F055C00E94C2
:102C40001E2D4B015C01AC019B01C301B2010E942E
:102C50007D2C0E94DD2D2B013C01A5019401C701B3
:102C6000B6010E947D2C0E94DD2D6B017C0120E0CD
:102C700030E048EC52E4C301B2010E94252EA701C6
:102C800096010E947D2C6B017C0120E030E044E83D
:102C900052E40E94D02D18160CF071C0C701B60185
:102CA0000E94EF2C62541092C2061092C30610923A
:102CB000C4061092C5061092BD061092BE06109270
:102CC000BF061092C0061092B9061092BA06109272
:102CD000BB061092BC061092C106E62FF0E0E55F3D
:102CE000FE4F80818093C60680917A0690917B0684
:102CF0008230910509F47FC08330910509F49EC0AC
:102D0000019751F568E472E08FEC93E00E94E410C3
:102D10002A968EAD9FAD2A97AC0170E060E02AE064
:102D20008FEC93E00E94AA0F6BE472E08FEC93E0CB
:102D30000E94E4102C962EAD3FAD2C97A90170E0B7
:102D400060E02AE08FEC93E00E94AA0F6DE172E050
:102D50008FEC93E00E949B0F112309F4A6CCE09125
:102D60000D07F0910E07309709F49FCC09959DCC83
:102D700082E090E090938D0680938C067CCD20E0DD
:102D800030E048E452E4C701B6010E94D02D60E073
:102D900018160CF088CFC701B6010E94EF2C6253C1
:102DA00082CF8091780690917906029709F09CCFA6
:102DB00061E070E070937906609378061092C20625
:102DC0001092C3061092C4061092C5061092BD065A
:102DD0001092BE061092BF061092C0061092B9065D
:102DE0001092BA061092BB061092BC061092C10651
:102DF0001092C60679CF68E472E08FEC93E00E94EF
:102E0000E41022E028964CAD5DAD6EAD7FAD289705
:102E10008FEC93E00E94F60F6BE472E08FEC93E08E
:102E20000E94E41022E060964CAD5DAD6EAD7FADCA
:102E300060978FEC93E00E94F60F88CF68E472E011
:102E40008FEC93E00E94E41022E0402F532D622D7E
:102E500022967FAD22978FEC93E00E94F60F6BE4F1
:102E600072E08FEC93E00E94E41040918E06509146
:102E70008F06609190067091910622E0DACFA5014D
:102E80009401C701B6010E940B2C20E038EB48E802
:102E900057E40E94D02D18160CF084C08091B6061D
:102EA000882309F47FC0815049C024962EAD3FADE0
:102EB00024970217130708F0EEC060E0A801481B32
:102EC000590BCA010E94A61CEAC00E948603009109
:102ED0008406109185062091860630918706601B36
:102EE000710B820B930B653F71408105910508F4CE
:102EF00063C08090A2069090A306A090A406B09014
:102F0000A506C090AA06D090AB06E090AC06F09063
:102F1000AD06A7019601C501B4010E940B2C20E06B
:102F200038EB48E857E40E94D02D18160CF0A7CFD4
:102F30008091B6068F3008F0A2CF8F5F8093B606DF
:102F40006091B60630E1639FC00111246091B7061D
:102F5000682B89E00E946D060E94860360938806B4
:102F60007093890680938A0690938B0680917A06E7
:102F700090917B06892BB1F06DE472E08FEC93E0C9
:102F80000E94E4104091B60650E070E060E02AE054
:102F90008FEC93E00E94AA0F6DE172E08FEC93E05A
:102FA0000E949B0F0E94860360938406709385069F
:102FB000809386069093870680918602909187027F
:102FC0000E942621813009F04FC083E197E00E94E2
:102FD000890F1092A2071092A1074AE050E0509387
:102FE000A4074093A30760E572E08FE097E00E949A
:102FF000E410C0909206D0909306E0909406F09072
:10300000950620E030E0A901C701B6010E94782CA6
:1030100040E050E0BA018823B1F0A701960160E0DA
:1030200070E080E89FE30E947D2C20E030E04AE7DA
:1030300054E40E94252E20E030E040E752E40E9454
:10304000252EAB01BC0122E08FE097E00E94F60F35
:1030500083E197E00E945F0F8111BBCF80918602D0
:10306000909187020E94FB1F0E94631B8091A7031F
:103070009091A80324960EAD1FAD2497025C1F4FBC
:1030800024966EAD7FAD24978617970708F00DCF75
:103090000617170720F48017910708F40ECF0E9437
:1030A000331E811102C00E94771D24961FAF0EAF00
:1030B000249781CA1F920F920FB60F9211242F935B
:1030C0003F938F939F93AF93BF938091F902909119
:1030D000FA02A091FB02B091FC023091F80223E0C9
:1030E000230F2D3758F50196A11DB11D2093F8022D
:1030F0008093F9029093FA02A093FB02B093FC0232
:103100008091FD029091FE02A091FF02B091000318
:103110000196A11DB11D8093FD029093FE02A09324
:10312000FF02B0930003BF91AF919F918F913F91A8
:103130002F910F900FBE0F901F90189526E8230F28
:103140000296A11DB11DD2CF1F920F920FB60F9202
:1031500011242F933F934F935F936F937F938F939C
:103160009F93AF93BF93EF93FF93E0910301F0918F
:1031700004010995FF91EF91BF91AF919F918F91BC
:103180007F916F915F914F913F912F910F900FBE63
:103190000F901F9018951F920F920FB60F92112447
:1031A0002F933F934F935F936F937F938F939F934F
:1031B000AF93BF93EF93FF93E0910101F091020170
:1031C0000995FF91EF91BF91AF919F918F917F9161
:1031D0006F915F914F913F912F910F900FBE0F9084
:1031E0001F9018951F920F920FB60F9211242F93D4
:1031F0003F934F935F936F937F938F939F93AF937F
:10320000BF93EF93FF938FEC93E00E940A02FF912C
:10321000EF91BF91AF919F918F917F916F915F914E
:103220004F913F912F910F900FBE0F901F901895C7
:103230001F920F920FB60F9211242F938F939F938B
:10324000EF93FF93E091DF03F091E0038081E09141
:10325000E503F091E60382FD1BC090818091E803B5
:103260008F5F8F732091E903821741F0E091E803AB
:10327000F0E0E153FC4F958F8093E803FF91EF91CD
:103280009F918F912F910F900FBE0F901F901895C7
:103290008081F4CF1F920F920FB60F9211242F93BB
:1032A0003F934F935F936F937F938F939F93AF93CE
:1032B000BF93EF93FF938091B900887F803609F424
:1032C0004AC0F0F5883209F4A7C018F5803109F436
:1032D0009BC0B8F4882309F4F9C0883009F494C07D
:1032E000FF91EF91BF91AF919F918F917F916F91DE
:1032F0005F914F913F912F910F900FBE0F901F90B4
:103300001895883109F488C0803251F780937B0387
:1033100014C0803409F49DC040F48033B9F388337D
:10332000F9F680937B0385ECB0C0803509F485C045
:10333000883509F496C0883499F60E94E610D0CFFB
:10334000883909F48CC038F5883729F050F488366C
:1033500011F0803729F683E080937D031092F70205
:1033600057C0883809F47BC0803919F0803809F0DB
:10337000B7CF8091F702803208F071C0E091F70278
:1033800081E08E0F8093F7028091BB00F0E0E9525C
:10339000FD4F80833DC0803B39F0E0F4803A09F472
:1033A00079C0883A09F09CCF84E080937D03109225
:1033B000D4021092D302E091D102F091D202099589
:1033C0008091D30281110FC081E08093D3021092CB
:1033D000B10209C0803C09F4A6CF883C09F4A3CF10
:1033E000883B09F07DCFE091D40281E08E0F80937D
:1033F000D402F0E0EF54FD4F80818093BB009091A8
:10340000D4028091D30229C0809158038093BB00DD
:1034100085EC8093BC0064CF90917A03809179030E
:10342000981758F5E0917A0381E08E0F80937A0324
:10343000F0E0E75AFC4F8081E9CFE0917A0381E028
:103440008E0F80937A038091BB00F0E0E75AFC4F27
:10345000808390917A03809179039817C8F285E868
:10346000D8CFE0917A0381E08E0F80937A03809128
:10347000BB00F0E0E75AFC4F808380917C03811110
:103480005CCF81E08093570384EA8093BC00109264
:103490007D0326CF85EC8093BC0010927D03809144
:1034A000F702803230F4E091F702F0E0E952FD4F8C
:1034B00010826091F70270E0E091D502F091D6029F
:1034C00087ED92E009951092F7020ACF10927B03E4
:1034D00034CFE0910303F09104038081811107C090
:1034E0008FEF9FEF9093A6028093A5020895E0913D
:1034F0000303F09104030580F681E02D8081918122
:10350000F1CFFC01DB010FB6F8940F924091A703B5
:103510005091A8032D913C9111972F3F320711F143
:10352000818192816091A9037081761749F04817D3
:10353000590730F01D921C9281E00F900FBE089544
:10354000481B590B42175307A8F7241B350B2D9323
:103550003C938091A90380838091A7039091A80355
:103560009283818380E0E9CFCF93DF93DC011596CE
:10357000ED91FC910680F781E02DA489B5898685BF
:10358000978520893189EC013D832C83C089D189BD
:103590009B838A83CF010C9611962D913C911297B3
:1035A0002817390721F41296DC93CE931197158AC8
:1035B000148A2C9121502C932091A302211157C0E1
:1035C000A285B3858481958126813781EC013D8375
:1035D0002C83C681D7819B838A83CF010296119663
:1035E0002D913C9112972817390721F41296DC93FC
:1035F000CE931197138612862C9121502C93C68955
:103600002091CE032C1710F4C093CE0329E02C9FF9
:10361000E0011124C655DC4F0980DA81C02DD58325
:10362000C4834C815D8157834683AC81BD811396F1
:103630009C938E9312979D838C83A689A29FD00121
:103640001124A655BC4FB387A2878C918F5F8C93B2
:10365000A0915E02B0915F02968956968C9189176F
:1036600030F581E08093A202DF91CF910895A0917F
:103670001803B0911903B787A68714962D913C9132
:103680001597318B208B1496CD91DC9115979B83E8
:103690008A8315969C938E93149787E193E0958B7C
:1036A000848B809117038F5F80931703D1CF80E0C5
:1036B000DBCF0FB6F8940F928091A7039091A803E7
:1036C0000F900FBE08958091A3028F5F8093A30295
:1036D00008950FB6F8940F92FC01928D0F900FBED3
:1036E00081E0911180E00895EF92FF920F931F9374
:1036F000CF93DF93EC010FB6F8940F921E8D7C01EF
:1037000081E1E80EF11C01E01116D4F08FEF8E8FED
:103710000F900FBE0FB6F8940F921D8D7E0188E0BA
:10372000E80EF11C01E01116B4F08FEF8D8F0F90B1
:103730000FBEDF91CF911F910F91FF90EF900895F1
:103740008989882319F3C7010E94B41A8111009353
:10375000A2021150D9CF8885882339F3C7010E946E
:10376000B41A81110093A2021150DDCFCF93DF93E1
:10377000FC01A085B1858281938124813581EC0192
:103780003D832C83C481D5819B838A8311968D913F
:103790009C9112978E179F0721F41296DC93CE937B
:1037A0001197118610868C9181508C938C91DF91AA
:1037B000CF9108950F931F93CF93DF938C01FB015B
:1037C00080819181D80113968F3F9807F1F4E80129
:1037D000AF81B88512968D919C91139793838283C4
:1037E000EC01FD83EC83B583A4831396FC93EE93E5
:1037F000129711870087F80180818F5F8083DF91A6
:10380000CF911F910F910895D90112962D913C915E
:103810001397E9014881598184179507A8F7DACFF2
:10382000FC0173836283918780874617570790F066
:10383000421B530B8485958548175907C8F4BF016F
:103840006E5F7F4F8091AB029091AC020E94DA1BB9
:1038500080E008954217530718F46217730740F485
:10386000BF016E5F7F4F8091AD029091AE02EECFAF
:1038700081E00895EF92FF920F931F93CF93DF9310
:10388000EC018B017A016C857D85600F711F9801B9
:10389000A701CE010E94101C811107C0DF91CF91BA
:1038A0001F910F91FF90EF9008958C859D85080FD3
:1038B000191FE889F989CE010995E5CFEF92FF92AA
:1038C0000F931F93CF93DF938C017B01E091AD02A7
:1038D000F091AE020580F681E02DC681D781CE0140
:1038E00002960E94B61B8A8982FF0FC0A701B80109
:1038F000CE010E943A1CE889F989CE01DF91CF916F
:103900001F910F91FF90EF9009948E7F8A8BF3CFD8
:10391000E091AD02F091AE02808181110DC08091E5
:10392000AB029091AC029093AE028093AD02F09303
:10393000AC02E093AB0208950580F681E02D6FEFB5
:103940007FEF808191810E945E1CE2CFFF920F93F6
:103950001F93CF93DF93EC01F62E0091A7031091F4
:10396000A80380915E0290915F0202960E94B61BAE
:10397000CF3FDC07E9F5FF20D9F1E0910603F09194
:103980000703A0915E02B0915F021596FC93EE933F
:103990001497A0915E02B0915F0284819581179681
:1039A0009C938E93169780915E0290915F02A48102
:1039B000B581029613969C938E93129780915E0226
:1039C00090915F02029695838483E0915E02F0916C
:1039D0005F0285E093E093878287809105038F5F84
:1039E00080930503DF91CF911F910F91FF90089570
:1039F000C00FD11FE0915E02F0915F02D383C283BA
:103A000060915E0270915F02C017D10768F48091E7
:103A10000103909102036E5F7F4FDF91CF911F9161
:103A20000F91FF900C94DA1B809103039091040393
:103A30006E5F7F4F0E94DA1B8091A5029091A602D3
:103A4000C817D90778F6D093A602C093A502CACFAB
:103A5000CF93DF93EB0160915E0270915F02645F30
:103A60007F4F0E94DA1B61E0CE01DF91CF910C9471
:103A7000A61CFC010396928381832FEF3FEF3483D2
:103A80002383968385839087878310820895CF93BD
:103A9000DF93EC010FB6F8940F92888199812B8DFA
:103AA0004C8DBC01249F600D711D11247D836C839E
:103AB0001A8E9B838A832150330B429FB001439F10
:103AC000700D1124860F971F9F838E838FEF8D8F2C
:103AD0008E8FCE0108960E94391DCE0141960E941C
:103AE000391D0F900FBE81E0DF91CF9108950F92A5
:103AF0000FB6F8940F921F9211242F923F924F927B
:103B00005F926F927F928F929F92AF92BF92CF926D
:103B1000DF92EF92FF920F931F932F933F934F9358
:103B20005F936F937F938F939F93AF93BF93CF9345
:103B3000DF93EF93FF93A0915E02B0915F020DB609
:103B40000D920EB60D928091A302882321F081E0A0
:103B50008093A2025DC01092A202A0915E02B09179
:103B60005F02E0915E02F0915F022D913C918789A6
:103B7000908D82179307A8F080915E0290915F026A
:103B800080915E0290915F02259A2D9A2FEF87EA2D
:103B900091E6215080409040E1F700C000001D9A5E
:103BA000F5CF2091CE0389E001C02150422F50E093
:103BB000849FF001859FF00D1124E655FC4F908104
:103BC000992399F3A181B28112966D917C917283B0
:103BD0006183289FC001112483559C4F6817790782
:103BE00021F4858196819283818389E0849FF0010D
:103BF000859FF00D1124E655FC4F0180F281E02DE8
:103C00008681978190935F0280935E022093CE031A
:103C1000A0915E02B0915F02CD91CDBFDD91DEBF7C
:103C2000FF91EF91DF91CF91BF91AF919F918F91D4
:103C30007F916F915F914F913F912F911F910F91C4
:103C4000FF90EF90DF90CF90BF90AF909F908F90BC
:103C50007F906F905F904F903F902F901F900F90AC
:103C60000FBE0F9008958F929F92BF92CF92DF92D6
:103C7000EF92FF920F931F93CF93DF930FB6F894B9
:103C80000F928091A30281508093A3028091A3029E
:103C9000882379F080E00F900FBEDF91CF911F91C4
:103CA0000F91FF90EF90DF90CF90BF909F908F90FB
:103CB000089580913403882369F3E0901C03F09009
:103CC0001D03F0E0E0E039E041E08091170381114D
:103CD0005EC0EF2B11F00E94691AE090A002F090F4
:103CE000A102E114F10409F47DC189E0D82ECC24AD
:103CF000C3940FEF1FEF8091A302811161C1C091A6
:103D0000A703D091A8034E018FEF881A980A9092CA
:103D1000A8038092A70381149104B9F4809103034E
:103D20009091040320910103309102033093040326
:103D30002093030390930203809301038091A903CE
:103D40008F5F8093A9030E94691A8091A5029091C8
:103D5000A602B12C8816990608F026C1E0915E02F1
:103D6000F0915F02E689DE9EF0011124E655FC4FDA
:103D70008081823010F0BB24B3948091A202811123
:103D800003C0BB2009F425C1C092A20222C1D70101
:103D90001696ED91FC91A489B58966857785808911
:103DA0009189EB019D838C8380899189EC017B83D0
:103DB0006A83BF01645F7F4F11960D911C9112972A
:103DC0000617170721F412969C938E931197158A64
:103DD000148A8C9181508C93A285B38584819581BE
:103DE00066817781EC017D836C8366817781EB014D
:103DF0009B838A83CF01029611960D911C91129795
:103E00000817190721F412967C936E931197138665
:103E100012862C9121502C93A6892091CE032A172B
:103E200010F4A093CE033A9FD0011124A655BC4FA5
:103E300011960D90BC91A02DB583A48314966D911D
:103E40007C9115977783668314966D917C91159775
:103E5000EB019B838A8315969C938E931497968986
:103E6000939FD0011124A655BC4FB387A2878C9194
:103E70008F5F8C93A0915E02B0915F0256968C91F9
:103E8000891708F022CF4093A2021FCFE0910303CD
:103E9000F09104030580F681E02D0680F781E02D86
:103EA000828193818816990628F49093A6028093C4
:103EB000A50254CFC285D38584819581268137811F
:103EC000DC0115963C932E93149726813781D901F6
:103ED00013969C938E931297CF01029649815A8133
:103EE0004817590711F43A832983138612862881CB
:103EF00021502883A489B5891097F9F02685378544
:103F000040895189E9015D834C8340895189EA01E7
:103F10003B832A8311966D917C9112979F01245FB8
:103F20003F4F6217730721F412965C934E931197DB
:103F3000158A148A2C9121502C93A6892091CE03A6
:103F40002A1710F4A093CE03DA9ED0011124A655AF
:103F5000BC4F11960D90BC91A02DB583A4831496EF
:103F60002D913C9115973783268314962D913C9182
:103F70001597E9019B838A8315969C938E931497DA
:103F800096899D9DD0011124A655BC4FB387A28769
:103F90008C918F5F8C93E0915E02F0915F02868935
:103FA000891710F4BB24B394E0910303F091040348
:103FB000808181116BCF1093A6020093A502CECE13
:103FC0008091A0029091A10201969093A10280930A
:103FD000A002D1E0ED1AF10809F08DCE1092A102F5
:103FE0001092A0028091A202882309F453CE0E946D
:103FF000771D81E050CEAF92BF92DF92EF92FF9299
:104000000F931F93CF93DF9300D000D01F92CDB7B3
:10401000DEB78C011D821C8280E0780198E0E90EF9
:10402000F11C0FB6F8940F92D8015A962C915A971A
:104030005B969C915B97291708F0B0C05A96DC906C
:104040005A975C964C915C9741118CC08D919C91D4
:10405000892B11F080E00AC0F801E480F580E114BA
:10406000F10431F580E0F80115821482D394D8016F
:104070005A96DC925A9751969C91992321F0C80147
:1040800041960E94B41A81110E94771D0F900FBEB5
:1040900081E00F900F900F900F900F90DF91CF91D4
:1040A0001F910F91FF90EF90DF90BF90AF90089518
:1040B000D70192968C919297815092968C93929779
:1040C00056962C91569791969C91291759F28111E9
:1040D000C9CF5701B2E0AB0EB11CC5010E94B61B9F
:1040E000F70181A1868B482F50E024E030E0241BAB
:1040F000350B358724879091CE03981710F4809361
:10410000CE0389E0849FD001859FB00D1124A65570
:10411000BC4F11960D90BC91A02DF701B583A483DF
:1041200014962D913C911597378326831496ED9123
:10413000FC911597B382A2821596BC92AE92149709
:10414000D7015696EC915697E89FF0011124E65559
:10415000FC4F1B96FC93EE931A9780818F5F8083B0
:1041600081E081CF50E070E060E012968D919C91EB
:104170000E940E2FF801848D22813381820F932FAC
:10418000911D93838283248135818217930708F4DC
:1041900061CF80819181938382835CCF2C813D812B
:1041A000232B21F40F900FBE80E073CF811109C043
:1041B0008091A90389838091A7039091A8039B8391
:1041C0008A830F900FBE0E94631B0FB6F8940F9264
:1041D000F801858D8F3F09F4158ED8015E968C917C
:1041E0005E978F3F11F45E961C920F900FBEBE013A
:1041F0006C5F7F4FCE0101960E94811A811120C011
:104200000FB6F8940F92F801928D838D0F900FBE28
:10421000981310C06C817D81C7010E94281DC801C0
:104220000E94741B0E94331E811102C00E94771DE0
:1042300081E0F7CEC8010E94741B0E94331EF8CFA4
:10424000C8010E94741B0E94331EAECF7F928F92D2
:104250009F92AF92BF92CF92DF92EF92FF920F9315
:104260001F93CF93DF9300D000D01F92CDB7DEB75E
:104270008C018FEF9FEF9D838C83D12C90E05801B0
:1042800021E1A20EB11C89E0782E24E0822E912C2F
:104290000FB6F8940F92D8015A968C915A978823AA
:1042A00009F440C081505A968C935A978D919C91F5
:1042B000892BA1F480915E0290915F02892B39F0E5
:1042C000E0915E02F0915F0282A18F5F82A38091F4
:1042D0005E0290915F02F80195838483D80118965D
:1042E0008C91882339F0C80108960E94B41A811174
:1042F0000E94771D0F900FBEDD24D3948D2D0F905B
:104300000F900F900F900F90DF91CF911F910F9111
:10431000FF90EF90DF90CF90BF90AF909F908F90E5
:104320007F9008952C813D81232B21F40F900FBEA7
:10433000D12CE4CF911109C08091A9038983809188
:10434000A7039091A8039B838A830F900FBE0E94BE
:10435000631B0FB6F8940F92F801858D8F3F09F417
:10436000158ED8015E968C915E978F3F11F45E9604
:104370001C920F900FBEBE016C5F7F4FCE01019665
:104380000E94811A8111AEC0C8010E94691B882356
:1043900009F4A2C0F80180819181892B09F076C0CF
:1043A0000FB6F8940F92E480F580E114F10409F45B
:1043B00091C0F7018689E0915E02F0915F029689D3
:1043C000891708F07BC0D7011C962D913C911D9751
:1043D00037FD0CC0E0915E02F0915F029689940176
:1043E000291B31091D963C932E931C97879DC00174
:1043F000112486559C4FF7012285338528173907EC
:1044000009F054C06701F2E0CF0ED11CC6010E9432
:10441000B61BE0915E02F0915F02E689D7015696E5
:10442000EC938091CE038E1710F4E093CE037E9E22
:10443000F0011124E655FC4F0180F281E02DD701F7
:104440001596FC93EE9314978481958117969C930F
:104450008E931697A481B5811396DC92CE92129713
:10446000D582C482D7015696EC915697E79DF0010C
:104470001124E655FC4F1B96FC93EE931A9780810E
:104480008F5F8083DD24D3940F900FBE6C817D817C
:10449000C5010E94281DC8010E94741B0E94331E82
:1044A000811102C00E94771D91E0F2CEE0915E0280
:1044B000F0915F028689F701868BE4CFE0915E027E
:1044C000F0915F02DD24D394D70191969C91868967
:1044D0009817D0F2D12CD8CFC8010E94741B0E942B
:1044E000331EE2CFC8010E94741B0E94331EC80114
:1044F0000E94691B8823C1F2DD2009F4FFCE0FB6AC
:10450000F8940F92F8018189882309F47BC006880A
:10451000F789E02D908184E0891BD80114960D91D4
:104520001C910115110509F401CFF80191A198170B
:1045300008F4982FD80156968C915697981709F43D
:10454000F5CE92962C919297213009F0EFCE5696A7
:104550009C9356971C962D913C911D9737FD08C052
:1045600024E030E0291B31091D963C932E931C97C3
:10457000B9E08B9FC001112486559C4FF80122851C
:1045800033852817390709F0D1CE7801F2E0EF0E14
:10459000F11CC7010E94B61BF801A6898091CE03C9
:1045A0008A1710F4A093CE0389E08A9FD0011124CA
:1045B000A655BC4F11960D90BC91A02DF801B58366
:1045C000A48314962D913C911597378326831496D6
:1045D000ED91FC911597F382E2821596FC92EE9292
:1045E0001497D8015696EC915697E89FF001112444
:1045F000E655FC4F1B96FC93EE931A9780818F5FD4
:10460000808394CE80E089CFCF93DF93EC010E942A
:10461000631B60E0CE010E94A61C0E94331E811124
:1046200002C00E94771DDF91CF9108950F920FB6BF
:10463000F8940F921F9211242F923F924F925F9203
:104640006F927F928F929F92AF92BF92CF92DF92A2
:10465000EF92FF920F931F932F933F934F935F938C
:104660006F937F938F939F93AF93BF93CF93DF937A
:10467000EF93FF93A0915E02B0915F020DB60D9291
:104680000EB60D9213BE8091A3028111F9C08091E4
:10469000A7039091A80301969093A8038093A70382
:1046A000009781F5209103033091040340910103A9
:1046B0005091020350930403409303033093020389
:1046C000209301032091A9032F5F2093A903E09178
:1046D0000303F09104032081211107C02FEF3FEF66
:1046E0003093A6022093A5020DC0E0910303F09140
:1046F00004030580F681E02D208131813093A602EC
:104700002093A5022091A5023091A602821793075B
:1047100010F420E0A1C020E039E0D32EE0910303A3
:10472000F09104033081311107C08FEF9FEF909318
:10473000A6028093A50290C0E0910303F0910403C8
:104740000580F681E02D0680F781E02D42815381BE
:104750008417950728F45093A6024093A5027CC0C5
:10476000A285B3854481558166817781EA017D8385
:104770006C8366817781EB015B834A83AF014E5F77
:104780005F4F11960D911C9112970417150721F494
:1047900012967C936E931197138612863C9131503A
:1047A0003C93A489B5891097F9F0668577850089CF
:1047B0001189EB011D830C8300891189E8017B833A
:1047C0006A831196ED90FC901297BF01645F7F4F52
:1047D000E616F70621F412961C930E931197158A8C
:1047E000148A3C9131503C93A6893091CE033A17FC
:1047F00010F4A093CE03DA9ED0011124A655BC4F2D
:1048000011960D90BC91A02DB583A48314966D9143
:104810007C9115977783668314966D917C9115979B
:10482000EB015B834A8315965C934E9314974689FC
:104830004D9DD0011124A655BC4FB387A2873C9152
:104840003F5F3C93E0915E02F0915F02368934173E
:1048500008F064CF21E062CFE0915E02F0915F0248
:10486000E689D9E0ED9FF0011124E655FC4F8081E7
:10487000823008F021E08091A20281110EC00AC0AE
:104880008091A0029091A10201969093A102809341
:10489000A00268C0222309F465C08091A302882386
:1048A00021F081E08093A2025DC01092A202A0914B
:1048B0005E02B0915F02E0915E02F0915F022D9185
:1048C0003C918789908D82179307A8F080915E02B2
:1048D00090915F0280915E0290915F02259A2D9ADD
:1048E0002FEF87EA91E6215080409040E1F700C029
:1048F00000001D9AF5CF2091CE0389E001C0215020
:10490000422F50E0849FF001859FF00D1124E65561
:10491000FC4F9081992399F3A181B28112966D91F8
:104920007C9172836183289FC001112483559C4F21
:104930006817790721F4858196819283818389E0C4
:10494000849FF001859FF00D1124E655FC4F0180F6
:10495000F281E02D8681978190935F0280935E02C1
:104960002093CE03A0915E02B0915F02CD91CDBFA6
:10497000DD91DEBFFF91EF91DF91CF91BF91AF91BC
:104980009F918F917F916F915F914F913F912F9167
:104990001F910F91FF90EF90DF90CF90BF90AF905D
:1049A0009F908F907F906F905F904F903F902F904F
:1049B0001F900F900FBE0F900895CF93DF93009735
:1049C00051F0EC010E94631BCE010E94822BDF910B
:1049D000CF910C94331EDF91CF910895CF93DF9345
:1049E000CDB7DEB72A970FB6F894DEBF0FBECDBFA6
:1049F000E091AD02F091AE021081F12CE12C112377
:104A000029F00580F681E02DE080F1800E94631B93
:104A10000E94591B6C018091A7029091A802C816B0
:104A2000D90608F08CC00E94881CD092A802C092BF
:104A3000A7020E94331E0091A9021091AA021A86B1
:104A4000198680E06801F1E1CF0ED11C0FB6F89411
:104A50000F92D8015A96FC905A97FF2009F430C162
:104A60005C964C915C97442301F150E016968D9131
:104A70009C911797840F951F17969C938E9316976A
:104A800014962D913C9115978217930738F08D91CC
:104A90009C91119717969C938E931697F8016681B7
:104AA0007781CE0101960E940E2FFA94D8015A9672
:104AB000FC925A9718968C91882339F0C801089671
:104AC0000E94B41A81110E94771D0F900FBED980E9
:104AD000D7FCB1CF0C811D81D8011A968D919C9184
:104AE000892B21F0C80102960E94B61B0E94591B17
:104AF0007C018091A7029091A802E816F90610F4B3
:104B00000E94881CF092A802E092A702EFEFED0D40
:104B1000E93008F090CF0E2E000CFF0BEA56FA4D4C
:104B2000D80152968C9152970C94EE2E1926192684
:104B30005C2644265626192619265C264426D09241
:104B4000A802C092A702112351F0CE14DF0470F026
:104B50000E94331EB601C7010E945E1C6CCFE0911B
:104B6000AB02F091AC02808161E0811160E00091C4
:104B7000A9021091AA020FB6F8940F92D8015D967F
:104B80008C915D978F3F11F45D961C92F801868D94
:104B90008F3F09F4168E0F900FBED8015A968C9154
:104BA0005A9781113CC05296ED91FC91A0915E0202
:104BB000B0915F021F96FC93EE931E97A0915E0248
:104BC000B0915F028481958151969C938E9350970A
:104BD00080915E0290915F02A481B5810C9613963C
:104BE0009C938E93129780915E0290915F020C9637
:104BF00095838483E0915E02F0915F02C801419643
:104C0000958B848BF80181898F5F818BC7018C190B
:104C10009D09662311F08FEF9FEF0E94A61CC8012B
:104C20000E94741B0E94331E811105CF0E94771DC4
:104C300002CF8160F801828BCA80DB806485758534
:104C40006C0D7D1D9601A701C8010E94101C8823D0
:104C500009F4F1CED80152968C91529782FF10C080
:104C60001C966D917C916C0D7D1DA701C8010E9461
:104C70003A1CD8015096ED91FC91C8010995DBCE04
:104C80008E7FF801828BF5CF816052968C9352977C
:104C90006A817B811D967C936E931C976E0D7F1DA0
:104CA0009701A701C8010E94101CC5CE81FD04C058
:104CB000C8010E94DD24BFCE8E7FF801828BBBCE5F
:104CC00029853A85232B19F40F900FBE91CE8111BF
:104CD00009C08091A9038E838091A7039091A803B6
:104CE00098878F830F900FBE0E94631B0FB6F894B6
:104CF0000F92F801858D8F3F09F4158ED8015E96CD
:104D00008C915E978F3F11F45E961C920F900FBEB0
:104D1000BE01675F7F4FCE0106960E94811A811106
:104D20001BC0C8010E94691B882381F069857A85B0
:104D3000C6010E94281DC8010E94741B0E94331ED8
:104D4000811102C00E94771D81E080CEC8010E94BF
:104D5000741B0E94331EF8CFC8010E94741B0E946E
:104D6000331EC8010E94691B882371F341CECF9383
:104D7000DF93EC010E94631BCE010E94E62AEC0146
:104D80000E94331E209769F4259A2D9A2FEF80E711
:104D900092E0215080409040E1F700C000001D9A51
:104DA000F5CFCE01DF91CF9108957F928F929F92A0
:104DB000AF92BF92CF92DF92EF92FF920F931F9329
:104DC000CF93DF93982EA92E762E872E7A01B22EBE
:104DD000CA010E94B7266C01892B09F4EDC088E254
:104DE00090E00E94B726EC01892B09F4E2C088E22A
:104DF000DE011D928A95E9F7D88ECF8AA70165EA70
:104E000070E0C6010E94172FB1E0EB1AF108EF899C
:104E1000F88DEE0DFF1D672D782DCE0149969B0173
:104E2000285F3F4FDB014D91BD01DC014D93CD016A
:104E3000AB0141505109DA014C91442319F062173A
:104E4000730781F718A2BE8AB9A21B861A861D8A2B
:104E50001C8AD987C88784E090E08B1991099D87C7
:104E60008C87DB8BCA8B9082DF011197AC921197F4
:104E70001C92119780E88C9311971C9257971C9263
:104E800011971C92B397F983E8830115110519F066
:104E9000F801D183C0830FB6F8940F928091340348
:104EA0008F5F8093340380915E0290915F02892B23
:104EB00009F091C0D0935F02C0935E0280913403E9
:104EC000813081F58AEA93E00E94391D83EB93E0FB
:104ED0000E94391D8CEB93E00E94391D85EC93E014
:104EE0000E94391D89E293E00E94391D80E293E01F
:104EF0000E94391D87E193E00E94391D8EE093E006
:104F00000E94391D85E093E00E94391D89E293E0FB
:104F1000909304038093030380E293E09093020351
:104F200080930103809132038F5F80933203AE89B7
:104F30008091CE038A1710F4A093CE0329E02A9F14
:104F4000D0011124A655BC4F11960D90BC91A02DF7
:104F5000BD83AC8314968D919C9115979F838E830E
:104F60001496ED91FC911597CE010296938382835E
:104F700015969C938E931497EE89E29FF00111246D
:104F8000E655FC4FFB87EA8780818F5F80830F9017
:104F90000FBE80913303882351F0E0915E02F091BF
:104FA0005F0296898E89981710F40E94771D81E020
:104FB00004C0C6010E94DD248FEFDF91CF911F91C5
:104FC0000F91FF90EF90DF90CF90BF90AF909F90A8
:104FD0008F907F900895809133038111A3CFE0914A
:104FE0005E02F0915F0296898E89891708F49ACF44
:104FF000D0935F02C0935E0295CF0F931F93CF9320
:10500000DF930EE912E020E040EC50E06CEE71E03E
:1050100082EA98E20E94D526813009F08CC00FB652
:10502000F8940F928091A9029091AA02892B49F5D8
:1050300083E992E00E94391D8AE892E00E94391DBE
:1050400083E992E09093AE028093AD028AE892E009
:105050009093AC028093AB0281E590E00E94B7266A
:10506000EC01009751F04F96998388838AE08B8FEB
:1050700085E08C8FCE010E94471DD093AA02C09379
:10508000A9020F900FBE8091A9029091AA02892BCC
:1050900009F451C00CE912E023E045E550E061EF6E
:1050A00071E08EEE94E20E94D526813009F043C073
:1050B000F8942FEF3FEF3093A6022093A502809340
:1050C00033031092A8031092A703A89588E190ECEF
:1050D0000FB6F894A895809360000FBE909360007F
:1050E000A0915E02B0915F02CD91CDBFDD91DEBF98
:1050F000FF91EF91DF91CF91BF91AF919F918F91F0
:105100007F916F915F914F913F912F911F910F91DF
:10511000FF90EF90DF90CF90BF90AF909F908F90D7
:105120007F906F905F904F903F902F901F900F90C7
:105130000FBE0F90089580910001DF91CF911F91D4
:105140000F91089500E010E08091A40281110EC03B
:105150008091AA03823010F00E94771D0E94FD27E3
:105160000115110589F30E94A302EECF0FB6F89442
:105170000F92E0911303F0911403C681D781CE0101
:1051800002960E94B61B80913403815080933403B1
:105190008091A40281508093A4020F900FBE8F894A
:1051A000988D0E94DD24CE010E94DD24CDCF0E9487
:1051B00016231895CF93DF931092D2031092D10348
:1051C00088EE93E0A0E0B0E08093D3039093D40303
:1051D000A093D503B093D6032FE931E03093D003E9
:1051E0002093CF0325EC30E03093DC032093DB03E6
:1051F00024EC30E03093DE032093DD0320EC30E03C
:105200003093E0032093DF0321EC30E03093E2039E
:105210002093E10322EC30E03093E4032093E30396
:1052200026EC30E03093E6032093E5031092E80388
:105230001092E9031092EA031092EB0310926F04AC
:1052400010926E048093700490937104A093720482
:10525000B093730481EB91E090936D0480936C04A0
:10526000109212071092110789EB90E09093A0071B
:1052700080939F071092A2071092A1071092A40793
:105280001092A30710922B0783EC91E090931007E4
:1052900080930F071092140710921307109228079B
:1052A00010921F07109220071092210710922207D8
:1052B0008FEF8093290780932D07E1E3F7E087E4E0
:1052C00097E0CFEFC1938E179F07E1F78EE097E04D
:1052D00090931807809317078DEF97E090931A0724
:1052E0008093190789E99BE090931C0780931B0723
:1052F0008BE09CE090931E0780931D0730E020E038
:1053000040E069E083E197E00E940E0710926E078B
:1053100010926D0783EC90E09093480780934707C5
:1053200088E794E090934C0780934B07D4E0D093A8
:105330004D0710924E0710927C0710929C07109216
:10534000980781E080939D0780939E078BEC91E006
:1053500090934A078093490783E197E00E9477087A
:10536000109266071092650710926A0710926907FB
:105370008FEF9FEF909368078093670790936C0778
:1053800080936B07E0914907F0914A070280F3810F
:10539000E02D83E197E0099582E391E09093700717
:1053A00080936F0710927F07D0933C07C0933D070F
:1053B000C0933E07109279061092780610927C06F0
:1053C00010927D0610927E0610927F061092800643
:1053D0001092810610928206109283061092840623
:1053E0001092850610928606109287061092880603
:1053F0001092890610928A0610928B0610928D06E2
:1054000010928C0680E090E0A0EAB1E480938E06D2
:1054100090938F06A0939006B093910610929206F7
:10542000109293061092940610929506109296068A
:1054300010929706109298061092990610929A066A
:1054400010929B0610929C0610929D0610929E064A
:1054500010929F061092A0061092A1061092A2062A
:105460001092A3061092A4061092A5061092A6060A
:105470001092A7061092A8061092A9061092AA06EA
:105480001092AB061092AC061092AD061092AE06CA
:105490001092AF061092B0061092B10688E0809389
:1054A000B6068FE090E09093B8068093B70610920E
:1054B000B9061092BA061092BB061092BC06109262
:1054C000BD061092BE061092BF061092C006109242
:1054D000C1061092C2061092C3061092C406109222
:1054E000C5061092C60687EC96E090930807809355
:1054F000070790930A078093090710920C071092F0
:105500000B0710920E0710920D07DF91CF910895AF
:10551000789484B5826084BD84B5816084BD85B58E
:10552000826085BD85B5816085BD80916E0081609A
:1055300080936E0010928100809181008260809340
:105540008100809181008160809381008091800042
:105550008160809380008091B10084608093B1006D
:105560008091B00081608093B00080917A00846067
:1055700080937A0080917A00826080937A00809193
:105580007A00816080937A0080917A0080688093AD
:105590007A001092C1002091090130910A018FEF29
:1055A00098E0821B930B90930601809305010E9463
:1055B000B9110E94FD270E94B911C0E0D0E00E94FD
:1055C000FD272097E1F30E94A302F9CF0F931F93C9
:1055D000CF93DF938230910510F482E090E0E09168
:1055E000A707F091A80730E020E0B0E0A0E03097F6
:1055F00099F42115310509F44AC0281B390B2430D0
:105600003105D8F58A819B816115710589F1FB010E
:1056100093838283FE0111C04081518102811381F5
:1056200048175907E0F04817590799F4109761F0A7
:1056300012960C93129713961C933296CF01DF911A
:10564000CF911F910F9108950093A7071093A8077A
:10565000F4CF2115310551F04217530738F0A90155
:10566000DB019A01BD01DF01F801C1CFEF01F9CFE4
:105670009093A8078093A707CDCFFE01E20FF31FF9
:10568000819391932250310939832883D7CF209178
:10569000A5073091A607232B41F4209107013091F3
:1056A00008013093A6072093A507209105013091AA
:1056B00006012115310541F42DB73EB7409109018E
:1056C00050910A01241B350BE091A507F091A60724
:1056D000E217F307A0F42E1B3F0B2817390778F0C9
:1056E000AC014E5F5F4F2417350748F04E0F5F1F28
:1056F0005093A6074093A507819391939FCFF0E025
:10570000E0E09CCFCF93DF930097E9F0FC01329764
:1057100013821282A091A707B091A807ED0130E093
:1057200020E01097A1F420813181820F931F2091F6
:10573000A5073091A6072817390709F061C0F09333
:10574000A607E093A507DF91CF910895EA01CE1750
:10575000DF07E8F54A815B819E0141155105B1F7EC
:10576000E901FB83EA8349915991C40FD51FEC17D6
:10577000FD0761F4808191810296840F951FE901F4
:1057800099838883828193819B838A83F0E0E0E020
:1057900012968D919C9113970097B9F52D913C919C
:1057A0001197CD010296820F931F2091A50730918A
:1057B000A6072817390739F6309751F51092A80730
:1057C0001092A707B093A607A093A507BCCFD383D9
:1057D000C28340815181840F951FC817D90761F496
:1057E0004E5F5F4F88819981480F591F51834083D5
:1057F0008A819B81938382832115310509F0B0CF83
:10580000F093A807E093A7079ECFFD01DC01C0CF6E
:1058100013821282D7CF5058BB27AA270E94232C6D
:105820000C94962D0E94882D38F00E948F2D20F028
:1058300039F49F3F19F426F40C94852D0EF4E0956D
:10584000E7FB0C947F2DE92F0E94A72D58F3BA1780
:10585000620773078407950720F079F4A6F50C9486
:10586000C92D0EF4E0950B2EBA2FA02D0B01B90116
:1058700090010C01CA01A0011124FF27591B99F0C6
:10588000593F50F4503E68F11A16F040A22F232FD2
:10589000342F4427585FF3CF469537952795A79522
:1058A000F0405395C9F77EF41F16BA0B620B730BC9
:1058B000840BBAF09150A1F0FF0FBB1F661F771F3A
:1058C000881FC2F70EC0BA0F621F731F841F48F4EF
:1058D000879577956795B795F7959E3F08F0B0CF78
:1058E0009395880F08F09927EE0F9795879508955F
:1058F0000E945B2D08F481E008950E94912C0C9485
:10590000962D0E948F2D58F00E94882D40F029F48A
:105910005F3F29F00C947F2D51110C94CA2D0C94EB
:10592000852D0E94A72D68F39923B1F3552391F398
:10593000951B550BBB27AA2762177307840738F0FE
:105940009F5F5F4F220F331F441FAA1FA9F335D05B
:105950000E2E3AF0E0E832D091505040E695001C0F
:10596000CAF72BD0FE2F29D0660F771F881FBB1FC9
:10597000261737074807AB07B0E809F0BB0B802DA7
:10598000BF01FF2793585F4F3AF09E3F510578F0D3
:105990000C947F2D0C94CA2D5F3FE4F3983ED4F312
:1059A000869577956795B795F7959F5FC9F7880FA7
:1059B000911D9695879597F90895E1E0660F771FF9
:1059C000881FBB1F621773078407BA0720F0621B8A
:1059D000730B840BBA0BEE1F88F7E09508950E94B5
:1059E000AF2D88F09F5798F0B92F9927B751B0F095
:1059F000E1F0660F771F881F991F1AF0BA95C9F753
:105A000014C0B13091F00E94C92DB1E008950C94FA
:105A1000C92D672F782F8827B85F39F0B93FCCF3AD
:105A2000869577956795B395D9F73EF490958095CF
:105A3000709561957F4F8F4F9F4F0895E89409C0EF
:105A400097FB3EF490958095709561957F4F8F4FB1
:105A50009F4F9923A9F0F92F96E9BB279395F695C7
:105A6000879577956795B795F111F8CFFAF4BB0F45
:105A700011F460FF1BC06F5F7F4F8F4F9F4F16C0A9
:105A8000882311F096E911C0772321F09EE8872F33
:105A9000762F05C0662371F096E8862F70E060E0EF
:105AA0002AF09A95660F771F881FDAF7880F969568
:105AB000879597F90895990F0008550FAA0BE0E80C
:105AC000FEEF16161706E807F907C0F012161306C0
:105AD000E407F50798F0621B730B840B950B39F400
